{
  "address": "0xa447BFE1D2534a07805D2333e0A19B1b857bF04B",
  "abi": [
    {
      "inputs": [
        {
          "internalType": "uint16",
          "name": "_hubChain",
          "type": "uint16"
        },
        {
          "internalType": "address",
          "name": "_endpoint",
          "type": "address"
        },
        {
          "internalType": "contract IVotes",
          "name": "_token",
          "type": "address"
        }
      ],
      "stateMutability": "nonpayable",
      "type": "constructor"
    },
    {
      "inputs": [],
      "name": "VotingHasClosedOnThisChain",
      "type": "error"
    },
    {
      "anonymous": false,
      "inputs": [
        {
          "indexed": false,
          "internalType": "uint16",
          "name": "_srcChainId",
          "type": "uint16"
        },
        {
          "indexed": false,
          "internalType": "bytes",
          "name": "_srcAddress",
          "type": "bytes"
        },
        {
          "indexed": false,
          "internalType": "uint64",
          "name": "_nonce",
          "type": "uint64"
        },
        {
          "indexed": false,
          "internalType": "bytes",
          "name": "_payload",
          "type": "bytes"
        },
        {
          "indexed": false,
          "internalType": "bytes",
          "name": "_reason",
          "type": "bytes"
        }
      ],
      "name": "MessageFailed",
      "type": "event"
    },
    {
      "anonymous": false,
      "inputs": [
        {
          "indexed": true,
          "internalType": "address",
          "name": "previousOwner",
          "type": "address"
        },
        {
          "indexed": true,
          "internalType": "address",
          "name": "newOwner",
          "type": "address"
        }
      ],
      "name": "OwnershipTransferred",
      "type": "event"
    },
    {
      "anonymous": false,
      "inputs": [
        {
          "indexed": false,
          "internalType": "uint256",
          "name": "oldQuorumNumerator",
          "type": "uint256"
        },
        {
          "indexed": false,
          "internalType": "uint256",
          "name": "newQuorumNumerator",
          "type": "uint256"
        }
      ],
      "name": "QuorumNumeratorUpdated",
      "type": "event"
    },
    {
      "anonymous": false,
      "inputs": [
        {
          "indexed": false,
          "internalType": "uint16",
          "name": "_srcChainId",
          "type": "uint16"
        },
        {
          "indexed": false,
          "internalType": "bytes",
          "name": "_srcAddress",
          "type": "bytes"
        },
        {
          "indexed": false,
          "internalType": "uint64",
          "name": "_nonce",
          "type": "uint64"
        },
        {
          "indexed": false,
          "internalType": "bytes32",
          "name": "_payloadHash",
          "type": "bytes32"
        }
      ],
      "name": "RetryMessageSuccess",
      "type": "event"
    },
    {
      "anonymous": false,
      "inputs": [
        {
          "indexed": false,
          "internalType": "uint16",
          "name": "_dstChainId",
          "type": "uint16"
        },
        {
          "indexed": false,
          "internalType": "uint16",
          "name": "_type",
          "type": "uint16"
        },
        {
          "indexed": false,
          "internalType": "uint256",
          "name": "_minDstGas",
          "type": "uint256"
        }
      ],
      "name": "SetMinDstGas",
      "type": "event"
    },
    {
      "anonymous": false,
      "inputs": [
        {
          "indexed": false,
          "internalType": "address",
          "name": "precrime",
          "type": "address"
        }
      ],
      "name": "SetPrecrime",
      "type": "event"
    },
    {
      "anonymous": false,
      "inputs": [
        {
          "indexed": false,
          "internalType": "uint16",
          "name": "_remoteChainId",
          "type": "uint16"
        },
        {
          "indexed": false,
          "internalType": "bytes",
          "name": "_path",
          "type": "bytes"
        }
      ],
      "name": "SetTrustedRemote",
      "type": "event"
    },
    {
      "anonymous": false,
      "inputs": [
        {
          "indexed": false,
          "internalType": "uint16",
          "name": "_remoteChainId",
          "type": "uint16"
        },
        {
          "indexed": false,
          "internalType": "bytes",
          "name": "_remoteAddress",
          "type": "bytes"
        }
      ],
      "name": "SetTrustedRemoteAddress",
      "type": "event"
    },
    {
      "inputs": [
        {
          "internalType": "uint256",
          "name": "proposalId",
          "type": "uint256"
        },
        {
          "internalType": "uint8",
          "name": "support",
          "type": "uint8"
        }
      ],
      "name": "castVote",
      "outputs": [
        {
          "internalType": "uint256",
          "name": "balance",
          "type": "uint256"
        }
      ],
      "stateMutability": "nonpayable",
      "type": "function"
    },
    {
      "inputs": [
        {
          "internalType": "uint16",
          "name": "",
          "type": "uint16"
        },
        {
          "internalType": "bytes",
          "name": "",
          "type": "bytes"
        },
        {
          "internalType": "uint64",
          "name": "",
          "type": "uint64"
        }
      ],
      "name": "failedMessages",
      "outputs": [
        {
          "internalType": "bytes32",
          "name": "",
          "type": "bytes32"
        }
      ],
      "stateMutability": "view",
      "type": "function"
    },
    {
      "inputs": [
        {
          "internalType": "uint16",
          "name": "_srcChainId",
          "type": "uint16"
        },
        {
          "internalType": "bytes",
          "name": "_srcAddress",
          "type": "bytes"
        }
      ],
      "name": "forceResumeReceive",
      "outputs": [],
      "stateMutability": "nonpayable",
      "type": "function"
    },
    {
      "inputs": [
        {
          "internalType": "uint16",
          "name": "_version",
          "type": "uint16"
        },
        {
          "internalType": "uint16",
          "name": "_chainId",
          "type": "uint16"
        },
        {
          "internalType": "address",
          "name": "",
          "type": "address"
        },
        {
          "internalType": "uint256",
          "name": "_configType",
          "type": "uint256"
        }
      ],
      "name": "getConfig",
      "outputs": [
        {
          "internalType": "bytes",
          "name": "",
          "type": "bytes"
        }
      ],
      "stateMutability": "view",
      "type": "function"
    },
    {
      "inputs": [
        {
          "internalType": "uint16",
          "name": "_remoteChainId",
          "type": "uint16"
        }
      ],
      "name": "getTrustedRemoteAddress",
      "outputs": [
        {
          "internalType": "bytes",
          "name": "",
          "type": "bytes"
        }
      ],
      "stateMutability": "view",
      "type": "function"
    },
    {
      "inputs": [],
      "name": "hubChain",
      "outputs": [
        {
          "internalType": "uint16",
          "name": "",
          "type": "uint16"
        }
      ],
      "stateMutability": "view",
      "type": "function"
    },
    {
      "inputs": [
        {
          "internalType": "uint16",
          "name": "_srcChainId",
          "type": "uint16"
        },
        {
          "internalType": "bytes",
          "name": "_srcAddress",
          "type": "bytes"
        }
      ],
      "name": "isTrustedRemote",
      "outputs": [
        {
          "internalType": "bool",
          "name": "",
          "type": "bool"
        }
      ],
      "stateMutability": "view",
      "type": "function"
    },
    {
      "inputs": [],
      "name": "lzEndpoint",
      "outputs": [
        {
          "internalType": "contract ILayerZeroEndpoint",
          "name": "",
          "type": "address"
        }
      ],
      "stateMutability": "view",
      "type": "function"
    },
    {
      "inputs": [
        {
          "internalType": "uint16",
          "name": "_srcChainId",
          "type": "uint16"
        },
        {
          "internalType": "bytes",
          "name": "_srcAddress",
          "type": "bytes"
        },
        {
          "internalType": "uint64",
          "name": "_nonce",
          "type": "uint64"
        },
        {
          "internalType": "bytes",
          "name": "_payload",
          "type": "bytes"
        }
      ],
      "name": "lzReceive",
      "outputs": [],
      "stateMutability": "nonpayable",
      "type": "function"
    },
    {
      "inputs": [
        {
          "internalType": "uint16",
          "name": "",
          "type": "uint16"
        },
        {
          "internalType": "uint16",
          "name": "",
          "type": "uint16"
        }
      ],
      "name": "minDstGasLookup",
      "outputs": [
        {
          "internalType": "uint256",
          "name": "",
          "type": "uint256"
        }
      ],
      "stateMutability": "view",
      "type": "function"
    },
    {
      "inputs": [
        {
          "internalType": "uint16",
          "name": "_srcChainId",
          "type": "uint16"
        },
        {
          "internalType": "bytes",
          "name": "_srcAddress",
          "type": "bytes"
        },
        {
          "internalType": "uint64",
          "name": "_nonce",
          "type": "uint64"
        },
        {
          "internalType": "bytes",
          "name": "_payload",
          "type": "bytes"
        }
      ],
      "name": "nonblockingLzReceive",
      "outputs": [],
      "stateMutability": "nonpayable",
      "type": "function"
    },
    {
      "inputs": [],
      "name": "owner",
      "outputs": [
        {
          "internalType": "address",
          "name": "",
          "type": "address"
        }
      ],
      "stateMutability": "view",
      "type": "function"
    },
    {
      "inputs": [],
      "name": "precrime",
      "outputs": [
        {
          "internalType": "address",
          "name": "",
          "type": "address"
        }
      ],
      "stateMutability": "view",
      "type": "function"
    },
    {
      "inputs": [
        {
          "internalType": "uint256",
          "name": "blockNumber",
          "type": "uint256"
        }
      ],
      "name": "quorum",
      "outputs": [
        {
          "internalType": "uint256",
          "name": "",
          "type": "uint256"
        }
      ],
      "stateMutability": "view",
      "type": "function"
    },
    {
      "inputs": [],
      "name": "quorumDenominator",
      "outputs": [
        {
          "internalType": "uint256",
          "name": "",
          "type": "uint256"
        }
      ],
      "stateMutability": "view",
      "type": "function"
    },
    {
      "inputs": [
        {
          "internalType": "uint256",
          "name": "blockNumber",
          "type": "uint256"
        }
      ],
      "name": "quorumNumerator",
      "outputs": [
        {
          "internalType": "uint256",
          "name": "",
          "type": "uint256"
        }
      ],
      "stateMutability": "view",
      "type": "function"
    },
    {
      "inputs": [],
      "name": "quorumNumerator",
      "outputs": [
        {
          "internalType": "uint256",
          "name": "",
          "type": "uint256"
        }
      ],
      "stateMutability": "view",
      "type": "function"
    },
    {
      "inputs": [],
      "name": "renounceOwnership",
      "outputs": [],
      "stateMutability": "nonpayable",
      "type": "function"
    },
    {
      "inputs": [
        {
          "internalType": "uint16",
          "name": "_srcChainId",
          "type": "uint16"
        },
        {
          "internalType": "bytes",
          "name": "_srcAddress",
          "type": "bytes"
        },
        {
          "internalType": "uint64",
          "name": "_nonce",
          "type": "uint64"
        },
        {
          "internalType": "bytes",
          "name": "_payload",
          "type": "bytes"
        }
      ],
      "name": "retryMessage",
      "outputs": [],
      "stateMutability": "payable",
      "type": "function"
    },
    {
      "inputs": [
        {
          "internalType": "uint16",
          "name": "_version",
          "type": "uint16"
        },
        {
          "internalType": "uint16",
          "name": "_chainId",
          "type": "uint16"
        },
        {
          "internalType": "uint256",
          "name": "_configType",
          "type": "uint256"
        },
        {
          "internalType": "bytes",
          "name": "_config",
          "type": "bytes"
        }
      ],
      "name": "setConfig",
      "outputs": [],
      "stateMutability": "nonpayable",
      "type": "function"
    },
    {
      "inputs": [
        {
          "internalType": "uint16",
          "name": "_dstChainId",
          "type": "uint16"
        },
        {
          "internalType": "uint16",
          "name": "_packetType",
          "type": "uint16"
        },
        {
          "internalType": "uint256",
          "name": "_minGas",
          "type": "uint256"
        }
      ],
      "name": "setMinDstGas",
      "outputs": [],
      "stateMutability": "nonpayable",
      "type": "function"
    },
    {
      "inputs": [
        {
          "internalType": "address",
          "name": "_precrime",
          "type": "address"
        }
      ],
      "name": "setPrecrime",
      "outputs": [],
      "stateMutability": "nonpayable",
      "type": "function"
    },
    {
      "inputs": [
        {
          "internalType": "uint16",
          "name": "_version",
          "type": "uint16"
        }
      ],
      "name": "setReceiveVersion",
      "outputs": [],
      "stateMutability": "nonpayable",
      "type": "function"
    },
    {
      "inputs": [
        {
          "internalType": "uint16",
          "name": "_version",
          "type": "uint16"
        }
      ],
      "name": "setSendVersion",
      "outputs": [],
      "stateMutability": "nonpayable",
      "type": "function"
    },
    {
      "inputs": [
        {
          "internalType": "uint16",
          "name": "_srcChainId",
          "type": "uint16"
        },
        {
          "internalType": "bytes",
          "name": "_path",
          "type": "bytes"
        }
      ],
      "name": "setTrustedRemote",
      "outputs": [],
      "stateMutability": "nonpayable",
      "type": "function"
    },
    {
      "inputs": [
        {
          "internalType": "uint16",
          "name": "_remoteChainId",
          "type": "uint16"
        },
        {
          "internalType": "bytes",
          "name": "_remoteAddress",
          "type": "bytes"
        }
      ],
      "name": "setTrustedRemoteAddress",
      "outputs": [],
      "stateMutability": "nonpayable",
      "type": "function"
    },
    {
      "inputs": [],
      "name": "token",
      "outputs": [
        {
          "internalType": "contract IVotes",
          "name": "",
          "type": "address"
        }
      ],
      "stateMutability": "view",
      "type": "function"
    },
    {
      "inputs": [
        {
          "internalType": "address",
          "name": "newOwner",
          "type": "address"
        }
      ],
      "name": "transferOwnership",
      "outputs": [],
      "stateMutability": "nonpayable",
      "type": "function"
    },
    {
      "inputs": [
        {
          "internalType": "uint16",
          "name": "",
          "type": "uint16"
        }
      ],
      "name": "trustedRemoteLookup",
      "outputs": [
        {
          "internalType": "bytes",
          "name": "",
          "type": "bytes"
        }
      ],
      "stateMutability": "view",
      "type": "function"
    }
  ],
  "transactionHash": "0xe5a560166d1867256f0befce7d79cdf79514e421b543480148d2e2c69a7d980f",
  "args": [
    10126,
    "0x7dcAD72640F835B0FA36EFD3D6d3ec902C7E5acf",
    "0xf0f5dCE13947bf44305bce477758c4150556F946"
  ],
  "numDeployments": 1,
  "solcInputHash": "9f871dfd19017270ca6c6b95ff7b9fa2",
  "bytecode": "0x60e06040523480156200001157600080fd5b5060405162002bb138038062002bb18339810160408190526200003491620000cf565b8180620000413362000066565b6001600160a01b0390811660805261ffff90941660a0525090911660c0525062000129565b600080546001600160a01b038381166001600160a01b0319831681178455604051919092169283917f8be0079c531659141344cd1fd0a4f28419497f9722a3daafe3b4186f6b6457e09190a35050565b6001600160a01b0381168114620000cc57600080fd5b50565b600080600060608486031215620000e557600080fd5b835161ffff81168114620000f857600080fd5b60208501519093506200010b81620000b6565b60408501519092506200011e81620000b6565b809150509250925092565b60805160a05160c051612a0b620001a6600039600081816105ef0152818161145e01526115e701526000818161042c015281816118960152611a940152600081816104c80152818161061401528181610863015281816108ec01528181610a0e01528181610f79015281816113bb0152611f790152612a0b6000f3fe6080604052600436106101c15760003560e01c806397c3d334116100f7578063cbed8b9c11610095578063f2fde38b11610064578063f2fde38b1461057d578063f5ecbdbc1461059d578063f8ce560a146105bd578063fc0c546a146105dd57600080fd5b8063cbed8b9c1461050a578063d1deba1f1461052a578063df2a5b3b1461053d578063eb8d72b71461055d57600080fd5b8063a6c3d165116100d1578063a6c3d16514610481578063a7713a70146104a1578063b353aaa7146104b6578063baf3292d146104ea57600080fd5b806397c3d334146104065780639dd0cc161461041a5780639f38369a1461046157600080fd5b806360c4247f116101645780637533d7881161013e5780637533d7881461034f5780638cfd8f5c1461037c5780638da5cb5b146103b4578063950c8a74146103e657600080fd5b806360c4247f146102fa57806366ad5c8a1461031a578063715018a61461033a57600080fd5b80633d8b38f6116101a05780633d8b38f61461022857806342d65a8d1461025d578063567813881461027d5780635b8c41e6146102ab57600080fd5b80621d3567146101c657806307e0db17146101e857806310ddb13714610208575b600080fd5b3480156101d257600080fd5b506101e66101e136600461218d565b610611565b005b3480156101f457600080fd5b506101e6610203366004612222565b610842565b34801561021457600080fd5b506101e6610223366004612222565b6108cb565b34801561023457600080fd5b5061024861024336600461223f565b610923565b60405190151581526020015b60405180910390f35b34801561026957600080fd5b506101e661027836600461223f565b6109ef565b34801561028957600080fd5b5061029d610298366004612293565b610a75565b604051908152602001610254565b3480156102b757600080fd5b5061029d6102c6366004612336565b6004602090815260009384526040808520845180860184018051928152908401958401959095209452929052825290205481565b34801561030657600080fd5b5061029d6103153660046123d8565b610b0a565b34801561032657600080fd5b506101e661033536600461218d565b610ba0565b34801561034657600080fd5b506101e6610c7c565b34801561035b57600080fd5b5061036f61036a366004612222565b610c90565b604051610254919061244d565b34801561038857600080fd5b5061029d610397366004612460565b600260209081526000928352604080842090915290825290205481565b3480156103c057600080fd5b506000546001600160a01b03165b6040516001600160a01b039091168152602001610254565b3480156103f257600080fd5b506003546103ce906001600160a01b031681565b34801561041257600080fd5b50606461029d565b34801561042657600080fd5b5061044e7f000000000000000000000000000000000000000000000000000000000000000081565b60405161ffff9091168152602001610254565b34801561046d57600080fd5b5061036f61047c366004612222565b610d2a565b34801561048d57600080fd5b506101e661049c36600461223f565b610e41565b3480156104ad57600080fd5b5061029d610ed4565b3480156104c257600080fd5b506103ce7f000000000000000000000000000000000000000000000000000000000000000081565b3480156104f657600080fd5b506101e66105053660046124a5565b610efe565b34801561051657600080fd5b506101e66105253660046124c0565b610f5a565b6101e661053836600461218d565b610fef565b34801561054957600080fd5b506101e6610558366004612532565b611205565b34801561056957600080fd5b506101e661057836600461223f565b6112b7565b34801561058957600080fd5b506101e66105983660046124a5565b611311565b3480156105a957600080fd5b5061036f6105b8366004612573565b61138a565b3480156105c957600080fd5b5061029d6105d83660046123d8565b61143b565b3480156105e957600080fd5b506103ce7f000000000000000000000000000000000000000000000000000000000000000081565b337f00000000000000000000000000000000000000000000000000000000000000006001600160a01b03161461068e5760405162461bcd60e51b815260206004820152601e60248201527f4c7a4170703a20696e76616c696420656e64706f696e742063616c6c6572000060448201526064015b60405180910390fd5b61ffff8616600090815260016020526040812080546106ac906125c2565b80601f01602080910402602001604051908101604052809291908181526020018280546106d8906125c2565b80156107255780601f106106fa57610100808354040283529160200191610725565b820191906000526020600020905b81548152906001019060200180831161070857829003601f168201915b50505050509050805186869050148015610740575060008151115b801561076857508051602082012060405161075e90889088906125fd565b6040518091039020145b6107c35760405162461bcd60e51b815260206004820152602660248201527f4c7a4170703a20696e76616c696420736f757263652073656e64696e6720636f6044820152651b9d1c9858dd60d21b6064820152608401610685565b6108398787878080601f01602080910402602001604051908101604052809392919081815260200183838082843760009201919091525050604080516020601f8a018190048102820181019092528881528a9350915088908890819084018382808284376000920191909152506114eb92505050565b50505050505050565b61084a611564565b6040516307e0db1760e01b815261ffff821660048201527f00000000000000000000000000000000000000000000000000000000000000006001600160a01b0316906307e0db17906024015b600060405180830381600087803b1580156108b057600080fd5b505af11580156108c4573d6000803e3d6000fd5b5050505050565b6108d3611564565b6040516310ddb13760e01b815261ffff821660048201527f00000000000000000000000000000000000000000000000000000000000000006001600160a01b0316906310ddb13790602401610896565b61ffff831660009081526001602052604081208054829190610944906125c2565b80601f0160208091040260200160405190810160405280929190818152602001828054610970906125c2565b80156109bd5780601f10610992576101008083540402835291602001916109bd565b820191906000526020600020905b8154815290600101906020018083116109a057829003601f168201915b5050505050905083836040516109d49291906125fd565b60405180910390208180519060200120149150509392505050565b6109f7611564565b6040516342d65a8d60e01b81526001600160a01b037f000000000000000000000000000000000000000000000000000000000000000016906342d65a8d90610a4790869086908690600401612636565b600060405180830381600087803b158015610a6157600080fd5b505af1158015610839573d6000803e3d6000fd5b6000828152600660205260408120600281015460ff1615610ae45760405162461bcd60e51b815260206004820152602360248201527f476f7665726e6f723a20766f7465206e6f742063757272656e746c792061637460448201526269766560e81b6064820152608401610685565b6000610af43383600001546115be565b9050610b0285338684611654565b949350505050565b60075460009080610b1f575050600554919050565b60006007610b2e60018461266a565b81548110610b3e57610b3e612681565b60009182526020918290206040805180820190915291015463ffffffff81168083526401000000009091046001600160e01b03169282019290925291508410610b9557602001516001600160e01b03169392505050565b610b026007856117d3565b333014610bfe5760405162461bcd60e51b815260206004820152602660248201527f4e6f6e626c6f636b696e674c7a4170703a2063616c6c6572206d7573742062656044820152650204c7a4170760d41b6064820152608401610685565b610c748686868080601f01602080910402602001604051908101604052809392919081815260200183838082843760009201919091525050604080516020601f89018190048102820181019092528781528993509150879087908190840183828082843760009201919091525061189492505050565b505050505050565b610c84611564565b610c8e6000611ad5565b565b60016020526000908152604090208054610ca9906125c2565b80601f0160208091040260200160405190810160405280929190818152602001828054610cd5906125c2565b8015610d225780601f10610cf757610100808354040283529160200191610d22565b820191906000526020600020905b815481529060010190602001808311610d0557829003601f168201915b505050505081565b61ffff8116600090815260016020526040812080546060929190610d4d906125c2565b80601f0160208091040260200160405190810160405280929190818152602001828054610d79906125c2565b8015610dc65780601f10610d9b57610100808354040283529160200191610dc6565b820191906000526020600020905b815481529060010190602001808311610da957829003601f168201915b50505050509050805160001415610e1f5760405162461bcd60e51b815260206004820152601d60248201527f4c7a4170703a206e6f20747275737465642070617468207265636f72640000006044820152606401610685565b610e3a600060148351610e32919061266a565b839190611b25565b9392505050565b610e49611564565b818130604051602001610e5e93929190612697565b60408051601f1981840301815291815261ffff85166000908152600160209081529190208251610e9393919290910190612010565b507f8c0400cfe2d1199b1a725c78960bcc2a344d869b80590d0f2bd005db15a572ce838383604051610ec793929190612636565b60405180910390a1505050565b60075460009015610ef757610ee96007611c32565b6001600160e01b0316905090565b5060055490565b610f06611564565b600380546001600160a01b0319166001600160a01b0383169081179091556040519081527f5db758e995a17ec1ad84bdef7e8c3293a0bd6179bcce400dff5d4c3d87db726b9060200160405180910390a150565b610f62611564565b6040516332fb62e760e21b81526001600160a01b037f0000000000000000000000000000000000000000000000000000000000000000169063cbed8b9c90610fb690889088908890889088906004016126bd565b600060405180830381600087803b158015610fd057600080fd5b505af1158015610fe4573d6000803e3d6000fd5b505050505050505050565b61ffff8616600090815260046020526040808220905161101290889088906125fd565b90815260408051602092819003830190206001600160401b038716600090815292529020549050806110925760405162461bcd60e51b815260206004820152602360248201527f4e6f6e626c6f636b696e674c7a4170703a206e6f2073746f726564206d65737360448201526261676560e81b6064820152608401610685565b8083836040516110a39291906125fd565b6040518091039020146111025760405162461bcd60e51b815260206004820152602160248201527f4e6f6e626c6f636b696e674c7a4170703a20696e76616c6964207061796c6f616044820152601960fa1b6064820152608401610685565b61ffff8716600090815260046020526040808220905161112590899089906125fd565b90815260408051602092819003830181206001600160401b038916600090815290845282902093909355601f880182900482028301820190528682526111bd918991899089908190840183828082843760009201919091525050604080516020601f8a018190048102820181019092528881528a93509150889088908190840183828082843760009201919091525061189492505050565b7fc264d91f3adc5588250e1551f547752ca0cfa8f6b530d243b9f9f4cab10ea8e587878787856040516111f49594939291906126f6565b60405180910390a150505050505050565b61120d611564565b600081116112555760405162461bcd60e51b81526020600482015260156024820152744c7a4170703a20696e76616c6964206d696e47617360581b6044820152606401610685565b61ffff83811660008181526002602090815260408083209487168084529482529182902085905581519283528201929092529081018290527f9d5c7c0b934da8fefa9c7760c98383778a12dfbfc0c3b3106518f43fb9508ac090606001610ec7565b6112bf611564565b61ffff831660009081526001602052604090206112dd908383612090565b507ffa41487ad5d6728f0b19276fa1eddc16558578f5109fc39d2dc33c3230470dab838383604051610ec793929190612636565b611319611564565b6001600160a01b03811661137e5760405162461bcd60e51b815260206004820152602660248201527f4f776e61626c653a206e6577206f776e657220697320746865207a65726f206160448201526564647265737360d01b6064820152608401610685565b61138781611ad5565b50565b604051633d7b2f6f60e21b815261ffff808616600483015284166024820152306044820152606481018290526060907f00000000000000000000000000000000000000000000000000000000000000006001600160a01b03169063f5ecbdbc90608401600060405180830381865afa15801561140a573d6000803e3d6000fd5b505050506040513d6000823e601f3d908101601f191682016040526114329190810190612776565b95945050505050565b6000606461144883610b0a565b604051632394e7a360e21b8152600481018590527f00000000000000000000000000000000000000000000000000000000000000006001600160a01b031690638e539e8c90602401602060405180830381865afa1580156114ad573d6000803e3d6000fd5b505050506040513d601f19601f820116820180604052508101906114d191906127aa565b6114db91906127c3565b6114e591906127e2565b92915050565b60008061154e5a60966366ad5c8a60e01b898989896040516024016115139493929190612804565b60408051601f198184030181529190526020810180516001600160e01b03166001600160e01b03199093169290921790915230929190611c6c565b9150915081610c7457610c748686868685611cf6565b6000546001600160a01b03163314610c8e5760405162461bcd60e51b815260206004820181905260248201527f4f776e61626c653a2063616c6c6572206973206e6f7420746865206f776e65726044820152606401610685565b604051630748d63560e31b81526001600160a01b038381166004830152602482018390526000917f000000000000000000000000000000000000000000000000000000000000000090911690633a46b1a890604401602060405180830381865afa158015611630573d6000803e3d6000fd5b505050506040513d601f19601f82011682018060405250810190610e3a91906127aa565b60008481526008602090815260408083206001600160a01b0387168452600381019092529091205460ff16156116dc5760405162461bcd60e51b815260206004820152602760248201527f476f7665726e6f72566f74696e6753696d706c653a20766f746520616c726561604482015266191e4818d85cdd60ca1b6064820152608401610685565b6001600160a01b03841660009081526003820160205260408120805460ff1916600117905560ff168360ff16141561172d57818160000160008282546117229190612842565b909155506108c49050565b60ff83166001141561174d57818160010160008282546117229190612842565b60ff83166002141561176d57818160020160008282546117229190612842565b60405162461bcd60e51b815260206004820152603560248201527f476f7665726e6f72566f74696e6753696d706c653a20696e76616c69642076616044820152746c756520666f7220656e756d20566f74655479706560581b6064820152608401610685565b60004382106118245760405162461bcd60e51b815260206004820181905260248201527f436865636b706f696e74733a20626c6f636b206e6f7420796574206d696e65646044820152606401610685565b600061182f83611d93565b8454909150600061184286848385611dfc565b9050801561187e576118678661185960018461266a565b600091825260209091200190565b5464010000000090046001600160e01b0316611881565b60005b6001600160e01b03169695505050505050565b7f000000000000000000000000000000000000000000000000000000000000000061ffff168461ffff16146119255760405162461bcd60e51b815260206004820152603160248201527f4f6e6c79206d657373616765732066726f6d207468652068756220636861696e6044820152702063616e2062652072656365697665642160781b6064820152608401610685565b6000808280602001905181019061193c919061285a565b915061ffff1691508160001415611a185760008060008380602001905181019061196691906128aa565b6000838152600660205260409020600101549295509093509150156119cd5760405162461bcd60e51b815260206004820152601b60248201527f50726f706f73616c204944206d75737420626520756e697175652e00000000006044820152606401610685565b60408051606081018252928352602080840192835260008483018181529581526006909152209151825551600182015590516002909101805460ff1916911515919091179055610c74565b8160011415610c7457600081806020019051810190611a3791906127aa565b604080516020810183905260009181018290526060810182905291925090608001604051602081830303815290604052905060008082604051602001611a7e9291906128d8565b6040516020818303038152906040529050610fe47f0000000000000000000000000000000000000000000000000000000000000000823060006040518060200160405280600081525067016345785d8a0000611e5a565b600080546001600160a01b038381166001600160a01b0319831681178455604051919092169283917f8be0079c531659141344cd1fd0a4f28419497f9722a3daafe3b4186f6b6457e09190a35050565b606081611b3381601f612842565b1015611b725760405162461bcd60e51b815260206004820152600e60248201526d736c6963655f6f766572666c6f7760901b6044820152606401610685565b611b7c8284612842565b84511015611bc05760405162461bcd60e51b8152602060048201526011602482015270736c6963655f6f75744f66426f756e647360781b6044820152606401610685565b606082158015611bdf5760405191506000825260208201604052611c29565b6040519150601f8416801560200281840101858101878315602002848b0101015b81831015611c18578051835260209283019201611c00565b5050858452601f01601f1916604052505b50949350505050565b80546000908015611c6357611c4c8361185960018461266a565b5464010000000090046001600160e01b0316610e3a565b60009392505050565b6000606060008060008661ffff166001600160401b03811115611c9157611c916122c9565b6040519080825280601f01601f191660200182016040528015611cbb576020820181803683370190505b50905060008087516020890160008d8df191503d925086831115611cdd578692505b828152826000602083013e909890975095505050505050565b8180519060200120600460008761ffff1661ffff16815260200190815260200160002085604051611d2791906128f4565b9081526040805191829003602090810183206001600160401b0388166000908152915220919091557fe183f33de2837795525b4792ca4cd60535bd77c53b7e7030060bfcf5734d6b0c90611d849087908790879087908790612910565b60405180910390a15050505050565b600063ffffffff821115611df85760405162461bcd60e51b815260206004820152602660248201527f53616665436173743a2076616c756520646f65736e27742066697420696e203360448201526532206269747360d01b6064820152608401610685565b5090565b60005b81831015611e52576000611e138484611ff5565b60008781526020902090915063ffffffff86169082015463ffffffff161115611e3e57809250611e4c565b611e49816001612842565b93505b50611dff565b509392505050565b61ffff861660009081526001602052604081208054611e78906125c2565b80601f0160208091040260200160405190810160405280929190818152602001828054611ea4906125c2565b8015611ef15780601f10611ec657610100808354040283529160200191611ef1565b820191906000526020600020905b815481529060010190602001808311611ed457829003601f168201915b50505050509050805160001415611f635760405162461bcd60e51b815260206004820152603060248201527f4c7a4170703a2064657374696e6174696f6e20636861696e206973206e6f742060448201526f61207472757374656420736f7572636560801b6064820152608401610685565b60405162c5803160e81b81526001600160a01b037f0000000000000000000000000000000000000000000000000000000000000000169063c5803100908490611fba908b9086908c908c908c908c9060040161296e565b6000604051808303818588803b158015611fd357600080fd5b505af1158015611fe7573d6000803e3d6000fd5b505050505050505050505050565b600061200460028484186127e2565b610e3a90848416612842565b82805461201c906125c2565b90600052602060002090601f01602090048101928261203e5760008555612084565b82601f1061205757805160ff1916838001178555612084565b82800160010185558215612084579182015b82811115612084578251825591602001919060010190612069565b50611df8929150612104565b82805461209c906125c2565b90600052602060002090601f0160209004810192826120be5760008555612084565b82601f106120d75782800160ff19823516178555612084565b82800160010185558215612084579182015b828111156120845782358255916020019190600101906120e9565b5b80821115611df85760008155600101612105565b61ffff8116811461138757600080fd5b60008083601f84011261213b57600080fd5b5081356001600160401b0381111561215257600080fd5b60208301915083602082850101111561216a57600080fd5b9250929050565b80356001600160401b038116811461218857600080fd5b919050565b600080600080600080608087890312156121a657600080fd5b86356121b181612119565b955060208701356001600160401b03808211156121cd57600080fd5b6121d98a838b01612129565b90975095508591506121ed60408a01612171565b9450606089013591508082111561220357600080fd5b5061221089828a01612129565b979a9699509497509295939492505050565b60006020828403121561223457600080fd5b8135610e3a81612119565b60008060006040848603121561225457600080fd5b833561225f81612119565b925060208401356001600160401b0381111561227a57600080fd5b61228686828701612129565b9497909650939450505050565b600080604083850312156122a657600080fd5b82359150602083013560ff811681146122be57600080fd5b809150509250929050565b634e487b7160e01b600052604160045260246000fd5b604051601f8201601f191681016001600160401b0381118282101715612307576123076122c9565b604052919050565b60006001600160401b03821115612328576123286122c9565b50601f01601f191660200190565b60008060006060848603121561234b57600080fd5b833561235681612119565b925060208401356001600160401b0381111561237157600080fd5b8401601f8101861361238257600080fd5b80356123956123908261230f565b6122df565b8181528760208385010111156123aa57600080fd5b816020840160208301376000602083830101528094505050506123cf60408501612171565b90509250925092565b6000602082840312156123ea57600080fd5b5035919050565b60005b8381101561240c5781810151838201526020016123f4565b8381111561241b576000848401525b50505050565b600081518084526124398160208601602086016123f1565b601f01601f19169290920160200192915050565b602081526000610e3a6020830184612421565b6000806040838503121561247357600080fd5b823561247e81612119565b915060208301356122be81612119565b80356001600160a01b038116811461218857600080fd5b6000602082840312156124b757600080fd5b610e3a8261248e565b6000806000806000608086880312156124d857600080fd5b85356124e381612119565b945060208601356124f381612119565b93506040860135925060608601356001600160401b0381111561251557600080fd5b61252188828901612129565b969995985093965092949392505050565b60008060006060848603121561254757600080fd5b833561255281612119565b9250602084013561256281612119565b929592945050506040919091013590565b6000806000806080858703121561258957600080fd5b843561259481612119565b935060208501356125a481612119565b92506125b26040860161248e565b9396929550929360600135925050565b600181811c908216806125d657607f821691505b602082108114156125f757634e487b7160e01b600052602260045260246000fd5b50919050565b8183823760009101908152919050565b81835281816020850137506000828201602090810191909152601f909101601f19169091010190565b61ffff8416815260406020820152600061143260408301848661260d565b634e487b7160e01b600052601160045260246000fd5b60008282101561267c5761267c612654565b500390565b634e487b7160e01b600052603260045260246000fd5b8284823760609190911b6bffffffffffffffffffffffff19169101908152601401919050565b600061ffff8088168352808716602084015250846040830152608060608301526126eb60808301848661260d565b979650505050505050565b61ffff8616815260806020820152600061271460808301868861260d565b6001600160401b0394909416604083015250606001529392505050565b600082601f83011261274257600080fd5b81516127506123908261230f565b81815284602083860101111561276557600080fd5b610b028260208301602087016123f1565b60006020828403121561278857600080fd5b81516001600160401b0381111561279e57600080fd5b610b0284828501612731565b6000602082840312156127bc57600080fd5b5051919050565b60008160001904831182151516156127dd576127dd612654565b500290565b6000826127ff57634e487b7160e01b600052601260045260246000fd5b500490565b61ffff851681526080602082015260006128216080830186612421565b6001600160401b038516604084015282810360608401526126eb8185612421565b6000821982111561285557612855612654565b500190565b6000806040838503121561286d57600080fd5b825161287881612119565b60208401519092506001600160401b0381111561289457600080fd5b6128a085828601612731565b9150509250929050565b6000806000606084860312156128bf57600080fd5b8351925060208401519150604084015190509250925092565b60ff83168152604060208201526000610b026040830184612421565b600082516129068184602087016123f1565b9190910192915050565b61ffff8616815260a06020820152600061292d60a0830187612421565b6001600160401b0386166040840152828103606084015261294e8186612421565b905082810360808401526129628185612421565b98975050505050505050565b61ffff8716815260c06020820152600061298b60c0830188612421565b828103604084015261299d8188612421565b6001600160a01b0387811660608601528616608085015283810360a085015290506129c88185612421565b999850505050505050505056fea26469706673582212208622d3e788f850f60a50df8798e42c4b94f31586e44d9eb86f10deebbfad808664736f6c634300080c0033",
  "devdoc": {
    "kind": "dev",
    "methods": {
      "owner()": {
        "details": "Returns the address of the current owner."
      },
      "quorum(uint256)": {
        "details": "Returns the quorum for a block number, in terms of number of votes: `supply * numerator / denominator`."
      },
      "quorumDenominator()": {
        "details": "Returns the quorum denominator. Defaults to 100, but may be overridden."
      },
      "quorumNumerator()": {
        "details": "Returns the current quorum numerator. See {quorumDenominator}."
      },
      "quorumNumerator(uint256)": {
        "details": "Returns the quorum numerator at a specific block number. See {quorumDenominator}."
      },
      "renounceOwnership()": {
        "details": "Leaves the contract without owner. It will not be possible to call `onlyOwner` functions anymore. Can only be called by the current owner. NOTE: Renouncing ownership will leave the contract without an owner, thereby removing any functionality that is only available to the owner."
      },
      "transferOwnership(address)": {
        "details": "Transfers ownership of the contract to a new account (`newOwner`). Can only be called by the current owner."
      }
    },
    "version": 1
  },
  "userdoc": {
    "kind": "user",
    "methods": {},
    "version": 1
  },
  "storageLayout": {
    "storage": [
      {
        "astId": 3576,
        "contract": "contracts/VoteAggregator.sol:VoteAggregator",
        "label": "_owner",
        "offset": 0,
        "slot": "0",
        "type": "t_address"
      },
      {
        "astId": 19849,
        "contract": "contracts/VoteAggregator.sol:VoteAggregator",
        "label": "trustedRemoteLookup",
        "offset": 0,
        "slot": "1",
        "type": "t_mapping(t_uint16,t_bytes_storage)"
      },
      {
        "astId": 19855,
        "contract": "contracts/VoteAggregator.sol:VoteAggregator",
        "label": "minDstGasLookup",
        "offset": 0,
        "slot": "2",
        "type": "t_mapping(t_uint16,t_mapping(t_uint16,t_uint256))"
      },
      {
        "astId": 19857,
        "contract": "contracts/VoteAggregator.sol:VoteAggregator",
        "label": "precrime",
        "offset": 0,
        "slot": "3",
        "type": "t_address"
      },
      {
        "astId": 20342,
        "contract": "contracts/VoteAggregator.sol:VoteAggregator",
        "label": "failedMessages",
        "offset": 0,
        "slot": "4",
        "type": "t_mapping(t_uint16,t_mapping(t_bytes_memory_ptr,t_mapping(t_uint64,t_bytes32)))"
      },
      {
        "astId": 23856,
        "contract": "contracts/VoteAggregator.sol:VoteAggregator",
        "label": "_quorumNumerator",
        "offset": 0,
        "slot": "5",
        "type": "t_uint256"
      },
      {
        "astId": 23861,
        "contract": "contracts/VoteAggregator.sol:VoteAggregator",
        "label": "_proposals",
        "offset": 0,
        "slot": "6",
        "type": "t_mapping(t_uint256,t_struct(RemoteProposal)23868_storage)"
      },
      {
        "astId": 24044,
        "contract": "contracts/VoteAggregator.sol:VoteAggregator",
        "label": "_quorumNumeratorHistory",
        "offset": 0,
        "slot": "7",
        "type": "t_struct(History)10909_storage"
      },
      {
        "astId": 24226,
        "contract": "contracts/VoteAggregator.sol:VoteAggregator",
        "label": "_proposalVotes",
        "offset": 0,
        "slot": "8",
        "type": "t_mapping(t_uint256,t_struct(ProposalVote)24237_storage)"
      }
    ],
    "types": {
      "t_address": {
        "encoding": "inplace",
        "label": "address",
        "numberOfBytes": "20"
      },
      "t_array(t_struct(Checkpoint)10914_storage)dyn_storage": {
        "base": "t_struct(Checkpoint)10914_storage",
        "encoding": "dynamic_array",
        "label": "struct Checkpoints.Checkpoint[]",
        "numberOfBytes": "32"
      },
      "t_bool": {
        "encoding": "inplace",
        "label": "bool",
        "numberOfBytes": "1"
      },
      "t_bytes32": {
        "encoding": "inplace",
        "label": "bytes32",
        "numberOfBytes": "32"
      },
      "t_bytes_memory_ptr": {
        "encoding": "bytes",
        "label": "bytes",
        "numberOfBytes": "32"
      },
      "t_bytes_storage": {
        "encoding": "bytes",
        "label": "bytes",
        "numberOfBytes": "32"
      },
      "t_mapping(t_address,t_bool)": {
        "encoding": "mapping",
        "key": "t_address",
        "label": "mapping(address => bool)",
        "numberOfBytes": "32",
        "value": "t_bool"
      },
      "t_mapping(t_bytes_memory_ptr,t_mapping(t_uint64,t_bytes32))": {
        "encoding": "mapping",
        "key": "t_bytes_memory_ptr",
        "label": "mapping(bytes => mapping(uint64 => bytes32))",
        "numberOfBytes": "32",
        "value": "t_mapping(t_uint64,t_bytes32)"
      },
      "t_mapping(t_uint16,t_bytes_storage)": {
        "encoding": "mapping",
        "key": "t_uint16",
        "label": "mapping(uint16 => bytes)",
        "numberOfBytes": "32",
        "value": "t_bytes_storage"
      },
      "t_mapping(t_uint16,t_mapping(t_bytes_memory_ptr,t_mapping(t_uint64,t_bytes32)))": {
        "encoding": "mapping",
        "key": "t_uint16",
        "label": "mapping(uint16 => mapping(bytes => mapping(uint64 => bytes32)))",
        "numberOfBytes": "32",
        "value": "t_mapping(t_bytes_memory_ptr,t_mapping(t_uint64,t_bytes32))"
      },
      "t_mapping(t_uint16,t_mapping(t_uint16,t_uint256))": {
        "encoding": "mapping",
        "key": "t_uint16",
        "label": "mapping(uint16 => mapping(uint16 => uint256))",
        "numberOfBytes": "32",
        "value": "t_mapping(t_uint16,t_uint256)"
      },
      "t_mapping(t_uint16,t_uint256)": {
        "encoding": "mapping",
        "key": "t_uint16",
        "label": "mapping(uint16 => uint256)",
        "numberOfBytes": "32",
        "value": "t_uint256"
      },
      "t_mapping(t_uint256,t_struct(ProposalVote)24237_storage)": {
        "encoding": "mapping",
        "key": "t_uint256",
        "label": "mapping(uint256 => struct VoteAggregator.ProposalVote)",
        "numberOfBytes": "32",
        "value": "t_struct(ProposalVote)24237_storage"
      },
      "t_mapping(t_uint256,t_struct(RemoteProposal)23868_storage)": {
        "encoding": "mapping",
        "key": "t_uint256",
        "label": "mapping(uint256 => struct VoteAggregator.RemoteProposal)",
        "numberOfBytes": "32",
        "value": "t_struct(RemoteProposal)23868_storage"
      },
      "t_mapping(t_uint64,t_bytes32)": {
        "encoding": "mapping",
        "key": "t_uint64",
        "label": "mapping(uint64 => bytes32)",
        "numberOfBytes": "32",
        "value": "t_bytes32"
      },
      "t_struct(Checkpoint)10914_storage": {
        "encoding": "inplace",
        "label": "struct Checkpoints.Checkpoint",
        "members": [
          {
            "astId": 10911,
            "contract": "contracts/VoteAggregator.sol:VoteAggregator",
            "label": "_blockNumber",
            "offset": 0,
            "slot": "0",
            "type": "t_uint32"
          },
          {
            "astId": 10913,
            "contract": "contracts/VoteAggregator.sol:VoteAggregator",
            "label": "_value",
            "offset": 4,
            "slot": "0",
            "type": "t_uint224"
          }
        ],
        "numberOfBytes": "32"
      },
      "t_struct(History)10909_storage": {
        "encoding": "inplace",
        "label": "struct Checkpoints.History",
        "members": [
          {
            "astId": 10908,
            "contract": "contracts/VoteAggregator.sol:VoteAggregator",
            "label": "_checkpoints",
            "offset": 0,
            "slot": "0",
            "type": "t_array(t_struct(Checkpoint)10914_storage)dyn_storage"
          }
        ],
        "numberOfBytes": "32"
      },
      "t_struct(ProposalVote)24237_storage": {
        "encoding": "inplace",
        "label": "struct VoteAggregator.ProposalVote",
        "members": [
          {
            "astId": 24228,
            "contract": "contracts/VoteAggregator.sol:VoteAggregator",
            "label": "againstVotes",
            "offset": 0,
            "slot": "0",
            "type": "t_uint256"
          },
          {
            "astId": 24230,
            "contract": "contracts/VoteAggregator.sol:VoteAggregator",
            "label": "forVotes",
            "offset": 0,
            "slot": "1",
            "type": "t_uint256"
          },
          {
            "astId": 24232,
            "contract": "contracts/VoteAggregator.sol:VoteAggregator",
            "label": "abstainVotes",
            "offset": 0,
            "slot": "2",
            "type": "t_uint256"
          },
          {
            "astId": 24236,
            "contract": "contracts/VoteAggregator.sol:VoteAggregator",
            "label": "hasVoted",
            "offset": 0,
            "slot": "3",
            "type": "t_mapping(t_address,t_bool)"
          }
        ],
        "numberOfBytes": "128"
      },
      "t_struct(RemoteProposal)23868_storage": {
        "encoding": "inplace",
        "label": "struct VoteAggregator.RemoteProposal",
        "members": [
          {
            "astId": 23863,
            "contract": "contracts/VoteAggregator.sol:VoteAggregator",
            "label": "localVoteStart",
            "offset": 0,
            "slot": "0",
            "type": "t_uint256"
          },
          {
            "astId": 23865,
            "contract": "contracts/VoteAggregator.sol:VoteAggregator",
            "label": "localVoteEnd",
            "offset": 0,
            "slot": "1",
            "type": "t_uint256"
          },
          {
            "astId": 23867,
            "contract": "contracts/VoteAggregator.sol:VoteAggregator",
            "label": "voteFinished",
            "offset": 0,
            "slot": "2",
            "type": "t_bool"
          }
        ],
        "numberOfBytes": "96"
      },
      "t_uint16": {
        "encoding": "inplace",
        "label": "uint16",
        "numberOfBytes": "2"
      },
      "t_uint224": {
        "encoding": "inplace",
        "label": "uint224",
        "numberOfBytes": "28"
      },
      "t_uint256": {
        "encoding": "inplace",
        "label": "uint256",
        "numberOfBytes": "32"
      },
      "t_uint32": {
        "encoding": "inplace",
        "label": "uint32",
        "numberOfBytes": "4"
      },
      "t_uint64": {
        "encoding": "inplace",
        "label": "uint64",
        "numberOfBytes": "8"
      }
    }
  }
}