{
  "address": "0x77B18EE82992a2BC54C510783A2c2322a248B3BA",
  "abi": [
    {
      "inputs": [
        {
          "internalType": "uint16",
          "name": "_hubChain",
          "type": "uint16"
        },
        {
          "internalType": "address",
          "name": "_endpoint",
          "type": "address"
        },
        {
          "internalType": "contract IVotes",
          "name": "_token",
          "type": "address"
        }
      ],
      "stateMutability": "nonpayable",
      "type": "constructor"
    },
    {
      "inputs": [],
      "name": "VotingHasClosedOnThisChain",
      "type": "error"
    },
    {
      "anonymous": false,
      "inputs": [
        {
          "indexed": false,
          "internalType": "uint16",
          "name": "_srcChainId",
          "type": "uint16"
        },
        {
          "indexed": false,
          "internalType": "bytes",
          "name": "_srcAddress",
          "type": "bytes"
        },
        {
          "indexed": false,
          "internalType": "uint64",
          "name": "_nonce",
          "type": "uint64"
        },
        {
          "indexed": false,
          "internalType": "bytes",
          "name": "_payload",
          "type": "bytes"
        },
        {
          "indexed": false,
          "internalType": "bytes",
          "name": "_reason",
          "type": "bytes"
        }
      ],
      "name": "MessageFailed",
      "type": "event"
    },
    {
      "anonymous": false,
      "inputs": [
        {
          "indexed": true,
          "internalType": "address",
          "name": "previousOwner",
          "type": "address"
        },
        {
          "indexed": true,
          "internalType": "address",
          "name": "newOwner",
          "type": "address"
        }
      ],
      "name": "OwnershipTransferred",
      "type": "event"
    },
    {
      "anonymous": false,
      "inputs": [
        {
          "indexed": false,
          "internalType": "uint256",
          "name": "oldQuorumNumerator",
          "type": "uint256"
        },
        {
          "indexed": false,
          "internalType": "uint256",
          "name": "newQuorumNumerator",
          "type": "uint256"
        }
      ],
      "name": "QuorumNumeratorUpdated",
      "type": "event"
    },
    {
      "anonymous": false,
      "inputs": [
        {
          "indexed": false,
          "internalType": "uint16",
          "name": "_srcChainId",
          "type": "uint16"
        },
        {
          "indexed": false,
          "internalType": "bytes",
          "name": "_srcAddress",
          "type": "bytes"
        },
        {
          "indexed": false,
          "internalType": "uint64",
          "name": "_nonce",
          "type": "uint64"
        },
        {
          "indexed": false,
          "internalType": "bytes32",
          "name": "_payloadHash",
          "type": "bytes32"
        }
      ],
      "name": "RetryMessageSuccess",
      "type": "event"
    },
    {
      "anonymous": false,
      "inputs": [
        {
          "indexed": false,
          "internalType": "uint16",
          "name": "_dstChainId",
          "type": "uint16"
        },
        {
          "indexed": false,
          "internalType": "uint16",
          "name": "_type",
          "type": "uint16"
        },
        {
          "indexed": false,
          "internalType": "uint256",
          "name": "_minDstGas",
          "type": "uint256"
        }
      ],
      "name": "SetMinDstGas",
      "type": "event"
    },
    {
      "anonymous": false,
      "inputs": [
        {
          "indexed": false,
          "internalType": "address",
          "name": "precrime",
          "type": "address"
        }
      ],
      "name": "SetPrecrime",
      "type": "event"
    },
    {
      "anonymous": false,
      "inputs": [
        {
          "indexed": false,
          "internalType": "uint16",
          "name": "_remoteChainId",
          "type": "uint16"
        },
        {
          "indexed": false,
          "internalType": "bytes",
          "name": "_path",
          "type": "bytes"
        }
      ],
      "name": "SetTrustedRemote",
      "type": "event"
    },
    {
      "anonymous": false,
      "inputs": [
        {
          "indexed": false,
          "internalType": "uint16",
          "name": "_remoteChainId",
          "type": "uint16"
        },
        {
          "indexed": false,
          "internalType": "bytes",
          "name": "_remoteAddress",
          "type": "bytes"
        }
      ],
      "name": "SetTrustedRemoteAddress",
      "type": "event"
    },
    {
      "inputs": [
        {
          "internalType": "uint256",
          "name": "proposalId",
          "type": "uint256"
        },
        {
          "internalType": "uint8",
          "name": "support",
          "type": "uint8"
        }
      ],
      "name": "castVote",
      "outputs": [
        {
          "internalType": "uint256",
          "name": "balance",
          "type": "uint256"
        }
      ],
      "stateMutability": "nonpayable",
      "type": "function"
    },
    {
      "inputs": [
        {
          "internalType": "uint16",
          "name": "",
          "type": "uint16"
        },
        {
          "internalType": "bytes",
          "name": "",
          "type": "bytes"
        },
        {
          "internalType": "uint64",
          "name": "",
          "type": "uint64"
        }
      ],
      "name": "failedMessages",
      "outputs": [
        {
          "internalType": "bytes32",
          "name": "",
          "type": "bytes32"
        }
      ],
      "stateMutability": "view",
      "type": "function"
    },
    {
      "inputs": [
        {
          "internalType": "uint16",
          "name": "_srcChainId",
          "type": "uint16"
        },
        {
          "internalType": "bytes",
          "name": "_srcAddress",
          "type": "bytes"
        }
      ],
      "name": "forceResumeReceive",
      "outputs": [],
      "stateMutability": "nonpayable",
      "type": "function"
    },
    {
      "inputs": [
        {
          "internalType": "uint16",
          "name": "_version",
          "type": "uint16"
        },
        {
          "internalType": "uint16",
          "name": "_chainId",
          "type": "uint16"
        },
        {
          "internalType": "address",
          "name": "",
          "type": "address"
        },
        {
          "internalType": "uint256",
          "name": "_configType",
          "type": "uint256"
        }
      ],
      "name": "getConfig",
      "outputs": [
        {
          "internalType": "bytes",
          "name": "",
          "type": "bytes"
        }
      ],
      "stateMutability": "view",
      "type": "function"
    },
    {
      "inputs": [
        {
          "internalType": "uint16",
          "name": "_remoteChainId",
          "type": "uint16"
        }
      ],
      "name": "getTrustedRemoteAddress",
      "outputs": [
        {
          "internalType": "bytes",
          "name": "",
          "type": "bytes"
        }
      ],
      "stateMutability": "view",
      "type": "function"
    },
    {
      "inputs": [],
      "name": "hubChain",
      "outputs": [
        {
          "internalType": "uint16",
          "name": "",
          "type": "uint16"
        }
      ],
      "stateMutability": "view",
      "type": "function"
    },
    {
      "inputs": [
        {
          "internalType": "uint16",
          "name": "_srcChainId",
          "type": "uint16"
        },
        {
          "internalType": "bytes",
          "name": "_srcAddress",
          "type": "bytes"
        }
      ],
      "name": "isTrustedRemote",
      "outputs": [
        {
          "internalType": "bool",
          "name": "",
          "type": "bool"
        }
      ],
      "stateMutability": "view",
      "type": "function"
    },
    {
      "inputs": [],
      "name": "lzEndpoint",
      "outputs": [
        {
          "internalType": "contract ILayerZeroEndpoint",
          "name": "",
          "type": "address"
        }
      ],
      "stateMutability": "view",
      "type": "function"
    },
    {
      "inputs": [
        {
          "internalType": "uint16",
          "name": "_srcChainId",
          "type": "uint16"
        },
        {
          "internalType": "bytes",
          "name": "_srcAddress",
          "type": "bytes"
        },
        {
          "internalType": "uint64",
          "name": "_nonce",
          "type": "uint64"
        },
        {
          "internalType": "bytes",
          "name": "_payload",
          "type": "bytes"
        }
      ],
      "name": "lzReceive",
      "outputs": [],
      "stateMutability": "nonpayable",
      "type": "function"
    },
    {
      "inputs": [
        {
          "internalType": "uint16",
          "name": "",
          "type": "uint16"
        },
        {
          "internalType": "uint16",
          "name": "",
          "type": "uint16"
        }
      ],
      "name": "minDstGasLookup",
      "outputs": [
        {
          "internalType": "uint256",
          "name": "",
          "type": "uint256"
        }
      ],
      "stateMutability": "view",
      "type": "function"
    },
    {
      "inputs": [
        {
          "internalType": "uint16",
          "name": "_srcChainId",
          "type": "uint16"
        },
        {
          "internalType": "bytes",
          "name": "_srcAddress",
          "type": "bytes"
        },
        {
          "internalType": "uint64",
          "name": "_nonce",
          "type": "uint64"
        },
        {
          "internalType": "bytes",
          "name": "_payload",
          "type": "bytes"
        }
      ],
      "name": "nonblockingLzReceive",
      "outputs": [],
      "stateMutability": "nonpayable",
      "type": "function"
    },
    {
      "inputs": [],
      "name": "owner",
      "outputs": [
        {
          "internalType": "address",
          "name": "",
          "type": "address"
        }
      ],
      "stateMutability": "view",
      "type": "function"
    },
    {
      "inputs": [],
      "name": "precrime",
      "outputs": [
        {
          "internalType": "address",
          "name": "",
          "type": "address"
        }
      ],
      "stateMutability": "view",
      "type": "function"
    },
    {
      "inputs": [
        {
          "internalType": "uint256",
          "name": "blockNumber",
          "type": "uint256"
        }
      ],
      "name": "quorum",
      "outputs": [
        {
          "internalType": "uint256",
          "name": "",
          "type": "uint256"
        }
      ],
      "stateMutability": "view",
      "type": "function"
    },
    {
      "inputs": [],
      "name": "quorumDenominator",
      "outputs": [
        {
          "internalType": "uint256",
          "name": "",
          "type": "uint256"
        }
      ],
      "stateMutability": "view",
      "type": "function"
    },
    {
      "inputs": [
        {
          "internalType": "uint256",
          "name": "blockNumber",
          "type": "uint256"
        }
      ],
      "name": "quorumNumerator",
      "outputs": [
        {
          "internalType": "uint256",
          "name": "",
          "type": "uint256"
        }
      ],
      "stateMutability": "view",
      "type": "function"
    },
    {
      "inputs": [],
      "name": "quorumNumerator",
      "outputs": [
        {
          "internalType": "uint256",
          "name": "",
          "type": "uint256"
        }
      ],
      "stateMutability": "view",
      "type": "function"
    },
    {
      "inputs": [],
      "name": "renounceOwnership",
      "outputs": [],
      "stateMutability": "nonpayable",
      "type": "function"
    },
    {
      "inputs": [
        {
          "internalType": "uint16",
          "name": "_srcChainId",
          "type": "uint16"
        },
        {
          "internalType": "bytes",
          "name": "_srcAddress",
          "type": "bytes"
        },
        {
          "internalType": "uint64",
          "name": "_nonce",
          "type": "uint64"
        },
        {
          "internalType": "bytes",
          "name": "_payload",
          "type": "bytes"
        }
      ],
      "name": "retryMessage",
      "outputs": [],
      "stateMutability": "payable",
      "type": "function"
    },
    {
      "inputs": [
        {
          "internalType": "uint16",
          "name": "_version",
          "type": "uint16"
        },
        {
          "internalType": "uint16",
          "name": "_chainId",
          "type": "uint16"
        },
        {
          "internalType": "uint256",
          "name": "_configType",
          "type": "uint256"
        },
        {
          "internalType": "bytes",
          "name": "_config",
          "type": "bytes"
        }
      ],
      "name": "setConfig",
      "outputs": [],
      "stateMutability": "nonpayable",
      "type": "function"
    },
    {
      "inputs": [
        {
          "internalType": "uint16",
          "name": "_dstChainId",
          "type": "uint16"
        },
        {
          "internalType": "uint16",
          "name": "_packetType",
          "type": "uint16"
        },
        {
          "internalType": "uint256",
          "name": "_minGas",
          "type": "uint256"
        }
      ],
      "name": "setMinDstGas",
      "outputs": [],
      "stateMutability": "nonpayable",
      "type": "function"
    },
    {
      "inputs": [
        {
          "internalType": "address",
          "name": "_precrime",
          "type": "address"
        }
      ],
      "name": "setPrecrime",
      "outputs": [],
      "stateMutability": "nonpayable",
      "type": "function"
    },
    {
      "inputs": [
        {
          "internalType": "uint16",
          "name": "_version",
          "type": "uint16"
        }
      ],
      "name": "setReceiveVersion",
      "outputs": [],
      "stateMutability": "nonpayable",
      "type": "function"
    },
    {
      "inputs": [
        {
          "internalType": "uint16",
          "name": "_version",
          "type": "uint16"
        }
      ],
      "name": "setSendVersion",
      "outputs": [],
      "stateMutability": "nonpayable",
      "type": "function"
    },
    {
      "inputs": [
        {
          "internalType": "uint16",
          "name": "_srcChainId",
          "type": "uint16"
        },
        {
          "internalType": "bytes",
          "name": "_path",
          "type": "bytes"
        }
      ],
      "name": "setTrustedRemote",
      "outputs": [],
      "stateMutability": "nonpayable",
      "type": "function"
    },
    {
      "inputs": [
        {
          "internalType": "uint16",
          "name": "_remoteChainId",
          "type": "uint16"
        },
        {
          "internalType": "bytes",
          "name": "_remoteAddress",
          "type": "bytes"
        }
      ],
      "name": "setTrustedRemoteAddress",
      "outputs": [],
      "stateMutability": "nonpayable",
      "type": "function"
    },
    {
      "inputs": [],
      "name": "token",
      "outputs": [
        {
          "internalType": "contract IVotes",
          "name": "",
          "type": "address"
        }
      ],
      "stateMutability": "view",
      "type": "function"
    },
    {
      "inputs": [
        {
          "internalType": "address",
          "name": "newOwner",
          "type": "address"
        }
      ],
      "name": "transferOwnership",
      "outputs": [],
      "stateMutability": "nonpayable",
      "type": "function"
    },
    {
      "inputs": [
        {
          "internalType": "uint16",
          "name": "",
          "type": "uint16"
        }
      ],
      "name": "trustedRemoteLookup",
      "outputs": [
        {
          "internalType": "bytes",
          "name": "",
          "type": "bytes"
        }
      ],
      "stateMutability": "view",
      "type": "function"
    }
  ],
  "transactionHash": "0x04907093c6d83873b7b23ebe8ce632d76328d7e2494dcf20e57b101082e3147b",
  "args": [
    10126,
    "0x7dcAD72640F835B0FA36EFD3D6d3ec902C7E5acf",
    "0x0394c0EdFcCA370B20622721985B577850B0eb75"
  ],
  "numDeployments": 1,
  "solcInputHash": "fe902c91eaf4f4cd90ff101158596410",
  "bytecode": "0x60e06040523480156200001157600080fd5b50604051620048ef380380620048ef833981810160405281019062000037919062000296565b8180620000596200004d620000dc60201b60201c565b620000e460201b60201c565b8073ffffffffffffffffffffffffffffffffffffffff1660808173ffffffffffffffffffffffffffffffffffffffff168152505050508261ffff1660a08161ffff16815250508073ffffffffffffffffffffffffffffffffffffffff1660c08173ffffffffffffffffffffffffffffffffffffffff1681525050505050620002f2565b600033905090565b60008060009054906101000a900473ffffffffffffffffffffffffffffffffffffffff169050816000806101000a81548173ffffffffffffffffffffffffffffffffffffffff021916908373ffffffffffffffffffffffffffffffffffffffff1602179055508173ffffffffffffffffffffffffffffffffffffffff168173ffffffffffffffffffffffffffffffffffffffff167f8be0079c531659141344cd1fd0a4f28419497f9722a3daafe3b4186f6b6457e060405160405180910390a35050565b600080fd5b600061ffff82169050919050565b620001c681620001ad565b8114620001d257600080fd5b50565b600081519050620001e681620001bb565b92915050565b600073ffffffffffffffffffffffffffffffffffffffff82169050919050565b60006200021982620001ec565b9050919050565b6200022b816200020c565b81146200023757600080fd5b50565b6000815190506200024b8162000220565b92915050565b60006200025e826200020c565b9050919050565b620002708162000251565b81146200027c57600080fd5b50565b600081519050620002908162000265565b92915050565b600080600060608486031215620002b257620002b1620001a8565b5b6000620002c286828701620001d5565b9350506020620002d5868287016200023a565b9250506040620002e8868287016200027f565b9150509250925092565b60805160a05160c0516145806200036f6000396000818161188d015281816119420152611ab901526000818161106b01528181611e4f015261203a0152600081816107100152818161096e01528181610a0401528181610b6e0152818161128301528181611332015281816117cb01526125e301526145806000f3fe6080604052600436106101c15760003560e01c806397c3d334116100f7578063cbed8b9c11610095578063f2fde38b11610064578063f2fde38b14610640578063f5ecbdbc14610669578063f8ce560a146106a6578063fc0c546a146106e3576101c1565b8063cbed8b9c146105a9578063d1deba1f146105d2578063df2a5b3b146105ee578063eb8d72b714610617576101c1565b8063a6c3d165116100d1578063a6c3d16514610501578063a7713a701461052a578063b353aaa714610555578063baf3292d14610580576101c1565b806397c3d3341461046e5780639dd0cc16146104995780639f38369a146104c4576101c1565b806360c4247f116101645780637533d7881161013e5780637533d7881461039e5780638cfd8f5c146103db5780638da5cb5b14610418578063950c8a7414610443576101c1565b806360c4247f1461032157806366ad5c8a1461035e578063715018a614610387576101c1565b80633d8b38f6116101a05780633d8b38f61461024157806342d65a8d1461027e57806356781388146102a75780635b8c41e6146102e4576101c1565b80621d3567146101c657806307e0db17146101ef57806310ddb13714610218575b600080fd5b3480156101d257600080fd5b506101ed60048036038101906101e89190612799565b61070e565b005b3480156101fb57600080fd5b5061021660048036038101906102119190612840565b610964565b005b34801561022457600080fd5b5061023f600480360381019061023a9190612840565b6109fa565b005b34801561024d57600080fd5b506102686004803603810190610263919061286d565b610a90565b60405161027591906128e8565b60405180910390f35b34801561028a57600080fd5b506102a560048036038101906102a0919061286d565b610b64565b005b3480156102b357600080fd5b506102ce60048036038101906102c99190612972565b610c00565b6040516102db91906129c1565b60405180910390f35b3480156102f057600080fd5b5061030b60048036038101906103069190612b1d565b610c93565b6040516103189190612ba5565b60405180910390f35b34801561032d57600080fd5b5061034860048036038101906103439190612bc0565b610cdb565b60405161035591906129c1565b60405180910390f35b34801561036a57600080fd5b5061038560048036038101906103809190612799565b610e27565b005b34801561039357600080fd5b5061039c610f38565b005b3480156103aa57600080fd5b506103c560048036038101906103c09190612840565b610f4c565b6040516103d29190612c75565b60405180910390f35b3480156103e757600080fd5b5061040260048036038101906103fd9190612c97565b610fec565b60405161040f91906129c1565b60405180910390f35b34801561042457600080fd5b5061042d611011565b60405161043a9190612d18565b60405180910390f35b34801561044f57600080fd5b5061045861103a565b6040516104659190612d18565b60405180910390f35b34801561047a57600080fd5b50610483611060565b60405161049091906129c1565b60405180910390f35b3480156104a557600080fd5b506104ae611069565b6040516104bb9190612d42565b60405180910390f35b3480156104d057600080fd5b506104eb60048036038101906104e69190612840565b61108d565b6040516104f89190612c75565b60405180910390f35b34801561050d57600080fd5b506105286004803603810190610523919061286d565b6111a6565b005b34801561053657600080fd5b5061053f61123a565b60405161054c91906129c1565b60405180910390f35b34801561056157600080fd5b5061056a611281565b6040516105779190612dbc565b60405180910390f35b34801561058c57600080fd5b506105a760048036038101906105a29190612e03565b6112a5565b005b3480156105b557600080fd5b506105d060048036038101906105cb9190612e30565b611328565b005b6105ec60048036038101906105e79190612799565b6113ca565b005b3480156105fa57600080fd5b5061061560048036038101906106109190612eb8565b61160d565b005b34801561062357600080fd5b5061063e6004803603810190610639919061286d565b6116d1565b005b34801561064c57600080fd5b5061066760048036038101906106629190612e03565b611744565b005b34801561067557600080fd5b50610690600480360381019061068b9190612f0b565b6117c7565b60405161069d9190612c75565b60405180910390f35b3480156106b257600080fd5b506106cd60048036038101906106c89190612bc0565b611878565b6040516106da91906129c1565b60405180910390f35b3480156106ef57600080fd5b506106f8611940565b6040516107059190612f93565b60405180910390f35b7f000000000000000000000000000000000000000000000000000000000000000073ffffffffffffffffffffffffffffffffffffffff1661074d611964565b73ffffffffffffffffffffffffffffffffffffffff16146107a3576040517f08c379a000000000000000000000000000000000000000000000000000000000815260040161079a9061300b565b60405180910390fd5b6000600160008861ffff1661ffff16815260200190815260200160002080546107cb9061305a565b80601f01602080910402602001604051908101604052809291908181526020018280546107f79061305a565b80156108445780601f1061081957610100808354040283529160200191610844565b820191906000526020600020905b81548152906001019060200180831161082757829003601f168201915b5050505050905080518686905014801561085f575060008151115b801561088857508080519060200120868660405161087e9291906130bb565b6040518091039020145b6108c7576040517f08c379a00000000000000000000000000000000000000000000000000000000081526004016108be90613146565b60405180910390fd5b61095b8787878080601f016020809104026020016040519081016040528093929190818152602001838380828437600081840152601f19601f820116905080830192505050505050508686868080601f016020809104026020016040519081016040528093929190818152602001838380828437600081840152601f19601f8201169050808301925050505050505061196c565b50505050505050565b61096c611a37565b7f000000000000000000000000000000000000000000000000000000000000000073ffffffffffffffffffffffffffffffffffffffff166307e0db17826040518263ffffffff1660e01b81526004016109c59190612d42565b600060405180830381600087803b1580156109df57600080fd5b505af11580156109f3573d6000803e3d6000fd5b5050505050565b610a02611a37565b7f000000000000000000000000000000000000000000000000000000000000000073ffffffffffffffffffffffffffffffffffffffff166310ddb137826040518263ffffffff1660e01b8152600401610a5b9190612d42565b600060405180830381600087803b158015610a7557600080fd5b505af1158015610a89573d6000803e3d6000fd5b5050505050565b600080600160008661ffff1661ffff1681526020019081526020016000208054610ab99061305a565b80601f0160208091040260200160405190810160405280929190818152602001828054610ae59061305a565b8015610b325780601f10610b0757610100808354040283529160200191610b32565b820191906000526020600020905b815481529060010190602001808311610b1557829003601f168201915b505050505090508383604051610b499291906130bb565b60405180910390208180519060200120149150509392505050565b610b6c611a37565b7f000000000000000000000000000000000000000000000000000000000000000073ffffffffffffffffffffffffffffffffffffffff166342d65a8d8484846040518463ffffffff1660e01b8152600401610bc993929190613193565b600060405180830381600087803b158015610be357600080fd5b505af1158015610bf7573d6000803e3d6000fd5b50505050505050565b6000806006600085815260200190815260200160002090508060020160009054906101000a900460ff1615610c6a576040517f08c379a0000000000000000000000000000000000000000000000000000000008152600401610c6190613237565b60405180910390fd5b6000610c7a338360000154611ab5565b9050610c8885338684611b5b565b809250505092915050565b60046020528260005260406000208280516020810182018051848252602083016020850120818352809550505050505060205280600052604060002060009250925050505481565b600080600760000180549050905060008103610cfc57600554915050610e22565b60006007600001600183610d109190613286565b81548110610d2157610d206132ba565b5b906000526020600020016040518060400160405290816000820160009054906101000a900463ffffffff1663ffffffff1663ffffffff1681526020016000820160049054906101000a90047bffffffffffffffffffffffffffffffffffffffffffffffffffffffff167bffffffffffffffffffffffffffffffffffffffffffffffffffffffff167bffffffffffffffffffffffffffffffffffffffffffffffffffffffff1681525050905083816000015163ffffffff1611610e095780602001517bffffffffffffffffffffffffffffffffffffffffffffffffffffffff1692505050610e22565b610e1d846007611d5e90919063ffffffff16565b925050505b919050565b3073ffffffffffffffffffffffffffffffffffffffff16610e46611964565b73ffffffffffffffffffffffffffffffffffffffff1614610e9c576040517f08c379a0000000000000000000000000000000000000000000000000000000008152600401610e939061335b565b60405180910390fd5b610f308686868080601f016020809104026020016040519081016040528093929190818152602001838380828437600081840152601f19601f820116905080830192505050505050508585858080601f016020809104026020016040519081016040528093929190818152602001838380828437600081840152601f19601f82011690508083019250505050505050611e4d565b505050505050565b610f40611a37565b610f4a6000612088565b565b60016020528060005260406000206000915090508054610f6b9061305a565b80601f0160208091040260200160405190810160405280929190818152602001828054610f979061305a565b8015610fe45780601f10610fb957610100808354040283529160200191610fe4565b820191906000526020600020905b815481529060010190602001808311610fc757829003601f168201915b505050505081565b6002602052816000526040600020602052806000526040600020600091509150505481565b60008060009054906101000a900473ffffffffffffffffffffffffffffffffffffffff16905090565b600360009054906101000a900473ffffffffffffffffffffffffffffffffffffffff1681565b60006064905090565b7f000000000000000000000000000000000000000000000000000000000000000081565b60606000600160008461ffff1661ffff16815260200190815260200160002080546110b79061305a565b80601f01602080910402602001604051908101604052809291908181526020018280546110e39061305a565b80156111305780601f1061110557610100808354040283529160200191611130565b820191906000526020600020905b81548152906001019060200180831161111357829003601f168201915b50505050509050600081510361117b576040517f08c379a0000000000000000000000000000000000000000000000000000000008152600401611172906133c7565b60405180910390fd5b61119e60006014835161118e9190613286565b8361214c9092919063ffffffff16565b915050919050565b6111ae611a37565b8181306040516020016111c39392919061342f565b604051602081830303815290604052600160008561ffff1661ffff16815260200190815260200160002090816111f991906135fb565b507f8c0400cfe2d1199b1a725c78960bcc2a344d869b80590d0f2bd005db15a572ce83838360405161122d93929190613193565b60405180910390a1505050565b6000806007600001805490501461127857611255600761226a565b7bffffffffffffffffffffffffffffffffffffffffffffffffffffffff1661127c565b6005545b905090565b7f000000000000000000000000000000000000000000000000000000000000000081565b6112ad611a37565b80600360006101000a81548173ffffffffffffffffffffffffffffffffffffffff021916908373ffffffffffffffffffffffffffffffffffffffff1602179055507f5db758e995a17ec1ad84bdef7e8c3293a0bd6179bcce400dff5d4c3d87db726b8160405161131d9190612d18565b60405180910390a150565b611330611a37565b7f000000000000000000000000000000000000000000000000000000000000000073ffffffffffffffffffffffffffffffffffffffff1663cbed8b9c86868686866040518663ffffffff1660e01b81526004016113919594939291906136cd565b600060405180830381600087803b1580156113ab57600080fd5b505af11580156113bf573d6000803e3d6000fd5b505050505050505050565b6000600460008861ffff1661ffff16815260200190815260200160002086866040516113f79291906130bb565b908152602001604051809103902060008567ffffffffffffffff1667ffffffffffffffff1681526020019081526020016000205490506000801b8103611472576040517f08c379a00000000000000000000000000000000000000000000000000000000081526004016114699061378d565b60405180910390fd5b8083836040516114839291906130bb565b6040518091039020146114cb576040517f08c379a00000000000000000000000000000000000000000000000000000000081526004016114c29061381f565b60405180910390fd5b6000801b600460008961ffff1661ffff16815260200190815260200160002087876040516114fa9291906130bb565b908152602001604051809103902060008667ffffffffffffffff1667ffffffffffffffff168152602001908152602001600020819055506115c58787878080601f016020809104026020016040519081016040528093929190818152602001838380828437600081840152601f19601f820116905080830192505050505050508686868080601f016020809104026020016040519081016040528093929190818152602001838380828437600081840152601f19601f82011690508083019250505050505050611e4d565b7fc264d91f3adc5588250e1551f547752ca0cfa8f6b530d243b9f9f4cab10ea8e587878787856040516115fc95949392919061384e565b60405180910390a150505050505050565b611615611a37565b60008111611658576040517f08c379a000000000000000000000000000000000000000000000000000000000815260040161164f906138e8565b60405180910390fd5b80600260008561ffff1661ffff16815260200190815260200160002060008461ffff1661ffff168152602001908152602001600020819055507f9d5c7c0b934da8fefa9c7760c98383778a12dfbfc0c3b3106518f43fb9508ac08383836040516116c493929190613908565b60405180910390a1505050565b6116d9611a37565b8181600160008661ffff1661ffff168152602001908152602001600020918261170392919061394a565b507ffa41487ad5d6728f0b19276fa1eddc16558578f5109fc39d2dc33c3230470dab83838360405161173793929190613193565b60405180910390a1505050565b61174c611a37565b600073ffffffffffffffffffffffffffffffffffffffff168173ffffffffffffffffffffffffffffffffffffffff16036117bb576040517f08c379a00000000000000000000000000000000000000000000000000000000081526004016117b290613a8c565b60405180910390fd5b6117c481612088565b50565b60607f000000000000000000000000000000000000000000000000000000000000000073ffffffffffffffffffffffffffffffffffffffff1663f5ecbdbc868630866040518563ffffffff1660e01b81526004016118289493929190613aac565b600060405180830381865afa158015611845573d6000803e3d6000fd5b505050506040513d6000823e3d601f19601f8201168201806040525081019061186e9190613b61565b9050949350505050565b6000611882611060565b61188b83610cdb565b7f000000000000000000000000000000000000000000000000000000000000000073ffffffffffffffffffffffffffffffffffffffff16638e539e8c856040518263ffffffff1660e01b81526004016118e491906129c1565b602060405180830381865afa158015611901573d6000803e3d6000fd5b505050506040513d601f19601f820116820180604052508101906119259190613bbf565b61192f9190613bec565b6119399190613c75565b9050919050565b7f000000000000000000000000000000000000000000000000000000000000000081565b600033905090565b600080611a185a60966366ad5c8a60e01b898989896040516024016119949493929190613ca6565b604051602081830303815290604052907bffffffffffffffffffffffffffffffffffffffffffffffffffffffff19166020820180517bffffffffffffffffffffffffffffffffffffffffffffffffffffffff83818316178352505050503073ffffffffffffffffffffffffffffffffffffffff166122d4909392919063ffffffff16565b9150915081611a2f57611a2e868686868561236c565b5b505050505050565b611a3f611964565b73ffffffffffffffffffffffffffffffffffffffff16611a5d611011565b73ffffffffffffffffffffffffffffffffffffffff1614611ab3576040517f08c379a0000000000000000000000000000000000000000000000000000000008152600401611aaa90613d45565b60405180910390fd5b565b60007f000000000000000000000000000000000000000000000000000000000000000073ffffffffffffffffffffffffffffffffffffffff16633a46b1a884846040518363ffffffff1660e01b8152600401611b12929190613d65565b602060405180830381865afa158015611b2f573d6000803e3d6000fd5b505050506040513d601f19601f82011682018060405250810190611b539190613bbf565b905092915050565b60006008600086815260200190815260200160002090508060030160008573ffffffffffffffffffffffffffffffffffffffff1673ffffffffffffffffffffffffffffffffffffffff16815260200190815260200160002060009054906101000a900460ff1615611c01576040517f08c379a0000000000000000000000000000000000000000000000000000000008152600401611bf890613e00565b60405180910390fd5b60018160030160008673ffffffffffffffffffffffffffffffffffffffff1673ffffffffffffffffffffffffffffffffffffffff16815260200190815260200160002060006101000a81548160ff02191690831515021790555060006002811115611c6f57611c6e613e20565b5b60ff168360ff1603611c9b5781816000016000828254611c8f9190613e4f565b92505081905550611d57565b60016002811115611caf57611cae613e20565b5b60ff168360ff1603611cdb5781816001016000828254611ccf9190613e4f565b92505081905550611d56565b600280811115611cee57611ced613e20565b5b60ff168360ff1603611d1a5781816002016000828254611d0e9190613e4f565b92505081905550611d55565b6040517f08c379a0000000000000000000000000000000000000000000000000000000008152600401611d4c90613f17565b60405180910390fd5b5b5b5050505050565b6000438210611da2576040517f08c379a0000000000000000000000000000000000000000000000000000000008152600401611d9990613f83565b60405180910390fd5b6000611dad8361241a565b90506000846000018054905090506000611dcd866000018460008561246d565b905060008114611e2157611df086600001600183611deb9190613286565b6124e0565b60000160049054906101000a90047bffffffffffffffffffffffffffffffffffffffffffffffffffffffff16611e24565b60005b7bffffffffffffffffffffffffffffffffffffffffffffffffffffffff16935050505092915050565b7f000000000000000000000000000000000000000000000000000000000000000061ffff168461ffff1614611eb7576040517f08c379a0000000000000000000000000000000000000000000000000000000008152600401611eae90614015565b60405180910390fd5b60008082806020019051810190611ece919061404a565b915061ffff16915060008203611fc657600080600083806020019051810190611ef791906140a6565b9250925092506000600660008581526020019081526020016000206001015414611f56576040517f08c379a0000000000000000000000000000000000000000000000000000000008152600401611f4d90614145565b60405180910390fd5b60405180606001604052808381526020018281526020016000151581525060066000858152602001908152602001600020600082015181600001556020820151816001015560408201518160020160006101000a81548160ff021916908315150217905550905050505050612080565b6001820361207f57600081806020019051810190611fe49190613bbf565b9050600081600080604051602001611ffe939291906141a0565b6040516020818303038152906040529050600080826040516020016120249291906141d7565b604051602081830303815290604052905061207b7f0000000000000000000000000000000000000000000000000000000000000000823060006040518060200160405280600081525067016345785d8a00006124f5565b5050505b5b505050505050565b60008060009054906101000a900473ffffffffffffffffffffffffffffffffffffffff169050816000806101000a81548173ffffffffffffffffffffffffffffffffffffffff021916908373ffffffffffffffffffffffffffffffffffffffff1602179055508173ffffffffffffffffffffffffffffffffffffffff168173ffffffffffffffffffffffffffffffffffffffff167f8be0079c531659141344cd1fd0a4f28419497f9722a3daafe3b4186f6b6457e060405160405180910390a35050565b606081601f8361215c9190613e4f565b101561219d576040517f08c379a000000000000000000000000000000000000000000000000000000000815260040161219490614253565b60405180910390fd5b81836121a99190613e4f565b845110156121ec576040517f08c379a00000000000000000000000000000000000000000000000000000000081526004016121e3906142bf565b60405180910390fd5b606082156000811461220d576040519150600082526020820160405261225e565b6040519150601f8416801560200281840101858101878315602002848b0101015b8183101561224b578051835260208301925060208101905061222e565b50868552601f19601f8301166040525050505b50809150509392505050565b60008082600001805490509050600081146122c957612298836000016001836122939190613286565b6124e0565b60000160049054906101000a90047bffffffffffffffffffffffffffffffffffffffffffffffffffffffff166122cc565b60005b915050919050565b6000606060008060008661ffff1667ffffffffffffffff8111156122fb576122fa6129f2565b5b6040519080825280601f01601f19166020018201604052801561232d5781602001600182028036833780820191505090505b50905060008087516020890160008d8df191503d92508683111561234f578692505b828152826000602083013e81819450945050505094509492505050565b8180519060200120600460008761ffff1661ffff1681526020019081526020016000208560405161239d9190614310565b908152602001604051809103902060008567ffffffffffffffff1667ffffffffffffffff168152602001908152602001600020819055507fe183f33de2837795525b4792ca4cd60535bd77c53b7e7030060bfcf5734d6b0c858585858560405161240b959493929190614327565b60405180910390a15050505050565b600063ffffffff8016821115612465576040517f08c379a000000000000000000000000000000000000000000000000000000000815260040161245c90614401565b60405180910390fd5b819050919050565b60005b818310156124d55760006124848484612680565b90508463ffffffff1661249787836124e0565b60000160009054906101000a900463ffffffff1663ffffffff1611156124bf578092506124cf565b6001816124cc9190613e4f565b93505b50612470565b819050949350505050565b60008260005281602060002001905092915050565b6000600160008861ffff1661ffff168152602001908152602001600020805461251d9061305a565b80601f01602080910402602001604051908101604052809291908181526020018280546125499061305a565b80156125965780601f1061256b57610100808354040283529160200191612596565b820191906000526020600020905b81548152906001019060200180831161257957829003601f168201915b5050505050905060008151036125e1576040517f08c379a00000000000000000000000000000000000000000000000000000000081526004016125d890614493565b60405180910390fd5b7f000000000000000000000000000000000000000000000000000000000000000073ffffffffffffffffffffffffffffffffffffffff1663c58031008389848a8a8a8a6040518863ffffffff1660e01b8152600401612645969594939291906144d4565b6000604051808303818588803b15801561265e57600080fd5b505af1158015612672573d6000803e3d6000fd5b505050505050505050505050565b600060028284186126919190613c75565b82841661269e9190613e4f565b905092915050565b6000604051905090565b600080fd5b600080fd5b600061ffff82169050919050565b6126d1816126ba565b81146126dc57600080fd5b50565b6000813590506126ee816126c8565b92915050565b600080fd5b600080fd5b600080fd5b60008083601f840112612719576127186126f4565b5b8235905067ffffffffffffffff811115612736576127356126f9565b5b602083019150836001820283011115612752576127516126fe565b5b9250929050565b600067ffffffffffffffff82169050919050565b61277681612759565b811461278157600080fd5b50565b6000813590506127938161276d565b92915050565b600080600080600080608087890312156127b6576127b56126b0565b5b60006127c489828a016126df565b965050602087013567ffffffffffffffff8111156127e5576127e46126b5565b5b6127f189828a01612703565b9550955050604061280489828a01612784565b935050606087013567ffffffffffffffff811115612825576128246126b5565b5b61283189828a01612703565b92509250509295509295509295565b600060208284031215612856576128556126b0565b5b6000612864848285016126df565b91505092915050565b600080600060408486031215612886576128856126b0565b5b6000612894868287016126df565b935050602084013567ffffffffffffffff8111156128b5576128b46126b5565b5b6128c186828701612703565b92509250509250925092565b60008115159050919050565b6128e2816128cd565b82525050565b60006020820190506128fd60008301846128d9565b92915050565b6000819050919050565b61291681612903565b811461292157600080fd5b50565b6000813590506129338161290d565b92915050565b600060ff82169050919050565b61294f81612939565b811461295a57600080fd5b50565b60008135905061296c81612946565b92915050565b60008060408385031215612989576129886126b0565b5b600061299785828601612924565b92505060206129a88582860161295d565b9150509250929050565b6129bb81612903565b82525050565b60006020820190506129d660008301846129b2565b92915050565b600080fd5b6000601f19601f8301169050919050565b7f4e487b7100000000000000000000000000000000000000000000000000000000600052604160045260246000fd5b612a2a826129e1565b810181811067ffffffffffffffff82111715612a4957612a486129f2565b5b80604052505050565b6000612a5c6126a6565b9050612a688282612a21565b919050565b600067ffffffffffffffff821115612a8857612a876129f2565b5b612a91826129e1565b9050602081019050919050565b82818337600083830152505050565b6000612ac0612abb84612a6d565b612a52565b905082815260208101848484011115612adc57612adb6129dc565b5b612ae7848285612a9e565b509392505050565b600082601f830112612b0457612b036126f4565b5b8135612b14848260208601612aad565b91505092915050565b600080600060608486031215612b3657612b356126b0565b5b6000612b44868287016126df565b935050602084013567ffffffffffffffff811115612b6557612b646126b5565b5b612b7186828701612aef565b9250506040612b8286828701612784565b9150509250925092565b6000819050919050565b612b9f81612b8c565b82525050565b6000602082019050612bba6000830184612b96565b92915050565b600060208284031215612bd657612bd56126b0565b5b6000612be484828501612924565b91505092915050565b600081519050919050565b600082825260208201905092915050565b60005b83811015612c27578082015181840152602081019050612c0c565b83811115612c36576000848401525b50505050565b6000612c4782612bed565b612c518185612bf8565b9350612c61818560208601612c09565b612c6a816129e1565b840191505092915050565b60006020820190508181036000830152612c8f8184612c3c565b905092915050565b60008060408385031215612cae57612cad6126b0565b5b6000612cbc858286016126df565b9250506020612ccd858286016126df565b9150509250929050565b600073ffffffffffffffffffffffffffffffffffffffff82169050919050565b6000612d0282612cd7565b9050919050565b612d1281612cf7565b82525050565b6000602082019050612d2d6000830184612d09565b92915050565b612d3c816126ba565b82525050565b6000602082019050612d576000830184612d33565b92915050565b6000819050919050565b6000612d82612d7d612d7884612cd7565b612d5d565b612cd7565b9050919050565b6000612d9482612d67565b9050919050565b6000612da682612d89565b9050919050565b612db681612d9b565b82525050565b6000602082019050612dd16000830184612dad565b92915050565b612de081612cf7565b8114612deb57600080fd5b50565b600081359050612dfd81612dd7565b92915050565b600060208284031215612e1957612e186126b0565b5b6000612e2784828501612dee565b91505092915050565b600080600080600060808688031215612e4c57612e4b6126b0565b5b6000612e5a888289016126df565b9550506020612e6b888289016126df565b9450506040612e7c88828901612924565b935050606086013567ffffffffffffffff811115612e9d57612e9c6126b5565b5b612ea988828901612703565b92509250509295509295909350565b600080600060608486031215612ed157612ed06126b0565b5b6000612edf868287016126df565b9350506020612ef0868287016126df565b9250506040612f0186828701612924565b9150509250925092565b60008060008060808587031215612f2557612f246126b0565b5b6000612f33878288016126df565b9450506020612f44878288016126df565b9350506040612f5587828801612dee565b9250506060612f6687828801612924565b91505092959194509250565b6000612f7d82612d89565b9050919050565b612f8d81612f72565b82525050565b6000602082019050612fa86000830184612f84565b92915050565b600082825260208201905092915050565b7f4c7a4170703a20696e76616c696420656e64706f696e742063616c6c65720000600082015250565b6000612ff5601e83612fae565b915061300082612fbf565b602082019050919050565b6000602082019050818103600083015261302481612fe8565b9050919050565b7f4e487b7100000000000000000000000000000000000000000000000000000000600052602260045260246000fd5b6000600282049050600182168061307257607f821691505b6020821081036130855761308461302b565b5b50919050565b600081905092915050565b60006130a2838561308b565b93506130af838584612a9e565b82840190509392505050565b60006130c8828486613096565b91508190509392505050565b7f4c7a4170703a20696e76616c696420736f757263652073656e64696e6720636f60008201527f6e74726163740000000000000000000000000000000000000000000000000000602082015250565b6000613130602683612fae565b915061313b826130d4565b604082019050919050565b6000602082019050818103600083015261315f81613123565b9050919050565b60006131728385612bf8565b935061317f838584612a9e565b613188836129e1565b840190509392505050565b60006040820190506131a86000830186612d33565b81810360208301526131bb818486613166565b9050949350505050565b7f476f7665726e6f723a20766f7465206e6f742063757272656e746c792061637460008201527f6976650000000000000000000000000000000000000000000000000000000000602082015250565b6000613221602383612fae565b915061322c826131c5565b604082019050919050565b6000602082019050818103600083015261325081613214565b9050919050565b7f4e487b7100000000000000000000000000000000000000000000000000000000600052601160045260246000fd5b600061329182612903565b915061329c83612903565b9250828210156132af576132ae613257565b5b828203905092915050565b7f4e487b7100000000000000000000000000000000000000000000000000000000600052603260045260246000fd5b7f4e6f6e626c6f636b696e674c7a4170703a2063616c6c6572206d75737420626560008201527f204c7a4170700000000000000000000000000000000000000000000000000000602082015250565b6000613345602683612fae565b9150613350826132e9565b604082019050919050565b6000602082019050818103600083015261337481613338565b9050919050565b7f4c7a4170703a206e6f20747275737465642070617468207265636f7264000000600082015250565b60006133b1601d83612fae565b91506133bc8261337b565b602082019050919050565b600060208201905081810360008301526133e0816133a4565b9050919050565b60008160601b9050919050565b60006133ff826133e7565b9050919050565b6000613411826133f4565b9050919050565b61342961342482612cf7565b613406565b82525050565b600061343c828587613096565b91506134488284613418565b601482019150819050949350505050565b60008190508160005260206000209050919050565b60006020601f8301049050919050565b600082821b905092915050565b6000600883026134bb7fffffffffffffffffffffffffffffffffffffffffffffffffffffffffffffffff8261347e565b6134c5868361347e565b95508019841693508086168417925050509392505050565b60006134f86134f36134ee84612903565b612d5d565b612903565b9050919050565b6000819050919050565b613512836134dd565b61352661351e826134ff565b84845461348b565b825550505050565b600090565b61353b61352e565b613546818484613509565b505050565b5b8181101561356a5761355f600082613533565b60018101905061354c565b5050565b601f8211156135af5761358081613459565b6135898461346e565b81016020851015613598578190505b6135ac6135a48561346e565b83018261354b565b50505b505050565b600082821c905092915050565b60006135d2600019846008026135b4565b1980831691505092915050565b60006135eb83836135c1565b9150826002028217905092915050565b61360482612bed565b67ffffffffffffffff81111561361d5761361c6129f2565b5b613627825461305a565b61363282828561356e565b600060209050601f8311600181146136655760008415613653578287015190505b61365d85826135df565b8655506136c5565b601f19841661367386613459565b60005b8281101561369b57848901518255600182019150602085019450602081019050613676565b868310156136b857848901516136b4601f8916826135c1565b8355505b6001600288020188555050505b505050505050565b60006080820190506136e26000830188612d33565b6136ef6020830187612d33565b6136fc60408301866129b2565b818103606083015261370f818486613166565b90509695505050505050565b7f4e6f6e626c6f636b696e674c7a4170703a206e6f2073746f726564206d65737360008201527f6167650000000000000000000000000000000000000000000000000000000000602082015250565b6000613777602383612fae565b91506137828261371b565b604082019050919050565b600060208201905081810360008301526137a68161376a565b9050919050565b7f4e6f6e626c6f636b696e674c7a4170703a20696e76616c6964207061796c6f6160008201527f6400000000000000000000000000000000000000000000000000000000000000602082015250565b6000613809602183612fae565b9150613814826137ad565b604082019050919050565b60006020820190508181036000830152613838816137fc565b9050919050565b61384881612759565b82525050565b60006080820190506138636000830188612d33565b8181036020830152613876818688613166565b9050613885604083018561383f565b6138926060830184612b96565b9695505050505050565b7f4c7a4170703a20696e76616c6964206d696e4761730000000000000000000000600082015250565b60006138d2601583612fae565b91506138dd8261389c565b602082019050919050565b60006020820190508181036000830152613901816138c5565b9050919050565b600060608201905061391d6000830186612d33565b61392a6020830185612d33565b61393760408301846129b2565b949350505050565b600082905092915050565b613954838361393f565b67ffffffffffffffff81111561396d5761396c6129f2565b5b613977825461305a565b61398282828561356e565b6000601f8311600181146139b1576000841561399f578287013590505b6139a985826135df565b865550613a11565b601f1984166139bf86613459565b60005b828110156139e7578489013582556001820191506020850194506020810190506139c2565b86831015613a045784890135613a00601f8916826135c1565b8355505b6001600288020188555050505b50505050505050565b7f4f776e61626c653a206e6577206f776e657220697320746865207a65726f206160008201527f6464726573730000000000000000000000000000000000000000000000000000602082015250565b6000613a76602683612fae565b9150613a8182613a1a565b604082019050919050565b60006020820190508181036000830152613aa581613a69565b9050919050565b6000608082019050613ac16000830187612d33565b613ace6020830186612d33565b613adb6040830185612d09565b613ae860608301846129b2565b95945050505050565b6000613b04613aff84612a6d565b612a52565b905082815260208101848484011115613b2057613b1f6129dc565b5b613b2b848285612c09565b509392505050565b600082601f830112613b4857613b476126f4565b5b8151613b58848260208601613af1565b91505092915050565b600060208284031215613b7757613b766126b0565b5b600082015167ffffffffffffffff811115613b9557613b946126b5565b5b613ba184828501613b33565b91505092915050565b600081519050613bb98161290d565b92915050565b600060208284031215613bd557613bd46126b0565b5b6000613be384828501613baa565b91505092915050565b6000613bf782612903565b9150613c0283612903565b9250817fffffffffffffffffffffffffffffffffffffffffffffffffffffffffffffffff0483118215151615613c3b57613c3a613257565b5b828202905092915050565b7f4e487b7100000000000000000000000000000000000000000000000000000000600052601260045260246000fd5b6000613c8082612903565b9150613c8b83612903565b925082613c9b57613c9a613c46565b5b828204905092915050565b6000608082019050613cbb6000830187612d33565b8181036020830152613ccd8186612c3c565b9050613cdc604083018561383f565b8181036060830152613cee8184612c3c565b905095945050505050565b7f4f776e61626c653a2063616c6c6572206973206e6f7420746865206f776e6572600082015250565b6000613d2f602083612fae565b9150613d3a82613cf9565b602082019050919050565b60006020820190508181036000830152613d5e81613d22565b9050919050565b6000604082019050613d7a6000830185612d09565b613d8760208301846129b2565b9392505050565b7f476f7665726e6f72566f74696e6753696d706c653a20766f746520616c72656160008201527f6479206361737400000000000000000000000000000000000000000000000000602082015250565b6000613dea602783612fae565b9150613df582613d8e565b604082019050919050565b60006020820190508181036000830152613e1981613ddd565b9050919050565b7f4e487b7100000000000000000000000000000000000000000000000000000000600052602160045260246000fd5b6000613e5a82612903565b9150613e6583612903565b9250827fffffffffffffffffffffffffffffffffffffffffffffffffffffffffffffffff03821115613e9a57613e99613257565b5b828201905092915050565b7f476f7665726e6f72566f74696e6753696d706c653a20696e76616c696420766160008201527f6c756520666f7220656e756d20566f7465547970650000000000000000000000602082015250565b6000613f01603583612fae565b9150613f0c82613ea5565b604082019050919050565b60006020820190508181036000830152613f3081613ef4565b9050919050565b7f436865636b706f696e74733a20626c6f636b206e6f7420796574206d696e6564600082015250565b6000613f6d602083612fae565b9150613f7882613f37565b602082019050919050565b60006020820190508181036000830152613f9c81613f60565b9050919050565b7f4f6e6c79206d657373616765732066726f6d207468652068756220636861696e60008201527f2063616e20626520726563656976656421000000000000000000000000000000602082015250565b6000613fff603183612fae565b915061400a82613fa3565b604082019050919050565b6000602082019050818103600083015261402e81613ff2565b9050919050565b600081519050614044816126c8565b92915050565b60008060408385031215614061576140606126b0565b5b600061406f85828601614035565b925050602083015167ffffffffffffffff8111156140905761408f6126b5565b5b61409c85828601613b33565b9150509250929050565b6000806000606084860312156140bf576140be6126b0565b5b60006140cd86828701613baa565b93505060206140de86828701613baa565b92505060406140ef86828701613baa565b9150509250925092565b7f50726f706f73616c204944206d75737420626520756e697175652e0000000000600082015250565b600061412f601b83612fae565b915061413a826140f9565b602082019050919050565b6000602082019050818103600083015261415e81614122565b9050919050565b6000819050919050565b600061418a61418561418084614165565b612d5d565b612939565b9050919050565b61419a8161416f565b82525050565b60006060820190506141b560008301866129b2565b6141c26020830185614191565b6141cf6040830184614191565b949350505050565b60006040820190506141ec6000830185614191565b81810360208301526141fe8184612c3c565b90509392505050565b7f736c6963655f6f766572666c6f77000000000000000000000000000000000000600082015250565b600061423d600e83612fae565b915061424882614207565b602082019050919050565b6000602082019050818103600083015261426c81614230565b9050919050565b7f736c6963655f6f75744f66426f756e6473000000000000000000000000000000600082015250565b60006142a9601183612fae565b91506142b482614273565b602082019050919050565b600060208201905081810360008301526142d88161429c565b9050919050565b60006142ea82612bed565b6142f4818561308b565b9350614304818560208601612c09565b80840191505092915050565b600061431c82846142df565b915081905092915050565b600060a08201905061433c6000830188612d33565b818103602083015261434e8187612c3c565b905061435d604083018661383f565b818103606083015261436f8185612c3c565b905081810360808301526143838184612c3c565b90509695505050505050565b7f53616665436173743a2076616c756520646f65736e27742066697420696e203360008201527f3220626974730000000000000000000000000000000000000000000000000000602082015250565b60006143eb602683612fae565b91506143f68261438f565b604082019050919050565b6000602082019050818103600083015261441a816143de565b9050919050565b7f4c7a4170703a2064657374696e6174696f6e20636861696e206973206e6f742060008201527f61207472757374656420736f7572636500000000000000000000000000000000602082015250565b600061447d603083612fae565b915061448882614421565b604082019050919050565b600060208201905081810360008301526144ac81614470565b9050919050565b60006144be82612cd7565b9050919050565b6144ce816144b3565b82525050565b600060c0820190506144e96000830189612d33565b81810360208301526144fb8188612c3c565b9050818103604083015261450f8187612c3c565b905061451e60608301866144c5565b61452b6080830185612d09565b81810360a083015261453d8184612c3c565b905097965050505050505056fea26469706673582212201cd8003b992f0e50040c482dbfca0f51381b20f0cacf27fc07aa3303df13ec1064736f6c634300080f0033",
  "devdoc": {
    "kind": "dev",
    "methods": {
      "owner()": {
        "details": "Returns the address of the current owner."
      },
      "quorum(uint256)": {
        "details": "Returns the quorum for a block number, in terms of number of votes: `supply * numerator / denominator`."
      },
      "quorumDenominator()": {
        "details": "Returns the quorum denominator. Defaults to 100, but may be overridden."
      },
      "quorumNumerator()": {
        "details": "Returns the current quorum numerator. See {quorumDenominator}."
      },
      "quorumNumerator(uint256)": {
        "details": "Returns the quorum numerator at a specific block number. See {quorumDenominator}."
      },
      "renounceOwnership()": {
        "details": "Leaves the contract without owner. It will not be possible to call `onlyOwner` functions anymore. Can only be called by the current owner. NOTE: Renouncing ownership will leave the contract without an owner, thereby removing any functionality that is only available to the owner."
      },
      "transferOwnership(address)": {
        "details": "Transfers ownership of the contract to a new account (`newOwner`). Can only be called by the current owner."
      }
    },
    "version": 1
  },
  "userdoc": {
    "kind": "user",
    "methods": {},
    "version": 1
  },
  "storageLayout": {
    "storage": [
      {
        "astId": 7,
        "contract": "contracts/VoteAggregator.sol:VoteAggregator",
        "label": "_owner",
        "offset": 0,
        "slot": "0",
        "type": "t_address"
      },
      {
        "astId": 4413,
        "contract": "contracts/VoteAggregator.sol:VoteAggregator",
        "label": "trustedRemoteLookup",
        "offset": 0,
        "slot": "1",
        "type": "t_mapping(t_uint16,t_bytes_storage)"
      },
      {
        "astId": 4419,
        "contract": "contracts/VoteAggregator.sol:VoteAggregator",
        "label": "minDstGasLookup",
        "offset": 0,
        "slot": "2",
        "type": "t_mapping(t_uint16,t_mapping(t_uint16,t_uint256))"
      },
      {
        "astId": 4421,
        "contract": "contracts/VoteAggregator.sol:VoteAggregator",
        "label": "precrime",
        "offset": 0,
        "slot": "3",
        "type": "t_address"
      },
      {
        "astId": 4906,
        "contract": "contracts/VoteAggregator.sol:VoteAggregator",
        "label": "failedMessages",
        "offset": 0,
        "slot": "4",
        "type": "t_mapping(t_uint16,t_mapping(t_bytes_memory_ptr,t_mapping(t_uint64,t_bytes32)))"
      },
      {
        "astId": 5594,
        "contract": "contracts/VoteAggregator.sol:VoteAggregator",
        "label": "_quorumNumerator",
        "offset": 0,
        "slot": "5",
        "type": "t_uint256"
      },
      {
        "astId": 5599,
        "contract": "contracts/VoteAggregator.sol:VoteAggregator",
        "label": "_proposals",
        "offset": 0,
        "slot": "6",
        "type": "t_mapping(t_uint256,t_struct(RemoteProposal)5606_storage)"
      },
      {
        "astId": 5782,
        "contract": "contracts/VoteAggregator.sol:VoteAggregator",
        "label": "_quorumNumeratorHistory",
        "offset": 0,
        "slot": "7",
        "type": "t_struct(History)200_storage"
      },
      {
        "astId": 5964,
        "contract": "contracts/VoteAggregator.sol:VoteAggregator",
        "label": "_proposalVotes",
        "offset": 0,
        "slot": "8",
        "type": "t_mapping(t_uint256,t_struct(ProposalVote)5975_storage)"
      }
    ],
    "types": {
      "t_address": {
        "encoding": "inplace",
        "label": "address",
        "numberOfBytes": "20"
      },
      "t_array(t_struct(Checkpoint)205_storage)dyn_storage": {
        "base": "t_struct(Checkpoint)205_storage",
        "encoding": "dynamic_array",
        "label": "struct Checkpoints.Checkpoint[]",
        "numberOfBytes": "32"
      },
      "t_bool": {
        "encoding": "inplace",
        "label": "bool",
        "numberOfBytes": "1"
      },
      "t_bytes32": {
        "encoding": "inplace",
        "label": "bytes32",
        "numberOfBytes": "32"
      },
      "t_bytes_memory_ptr": {
        "encoding": "bytes",
        "label": "bytes",
        "numberOfBytes": "32"
      },
      "t_bytes_storage": {
        "encoding": "bytes",
        "label": "bytes",
        "numberOfBytes": "32"
      },
      "t_mapping(t_address,t_bool)": {
        "encoding": "mapping",
        "key": "t_address",
        "label": "mapping(address => bool)",
        "numberOfBytes": "32",
        "value": "t_bool"
      },
      "t_mapping(t_bytes_memory_ptr,t_mapping(t_uint64,t_bytes32))": {
        "encoding": "mapping",
        "key": "t_bytes_memory_ptr",
        "label": "mapping(bytes => mapping(uint64 => bytes32))",
        "numberOfBytes": "32",
        "value": "t_mapping(t_uint64,t_bytes32)"
      },
      "t_mapping(t_uint16,t_bytes_storage)": {
        "encoding": "mapping",
        "key": "t_uint16",
        "label": "mapping(uint16 => bytes)",
        "numberOfBytes": "32",
        "value": "t_bytes_storage"
      },
      "t_mapping(t_uint16,t_mapping(t_bytes_memory_ptr,t_mapping(t_uint64,t_bytes32)))": {
        "encoding": "mapping",
        "key": "t_uint16",
        "label": "mapping(uint16 => mapping(bytes => mapping(uint64 => bytes32)))",
        "numberOfBytes": "32",
        "value": "t_mapping(t_bytes_memory_ptr,t_mapping(t_uint64,t_bytes32))"
      },
      "t_mapping(t_uint16,t_mapping(t_uint16,t_uint256))": {
        "encoding": "mapping",
        "key": "t_uint16",
        "label": "mapping(uint16 => mapping(uint16 => uint256))",
        "numberOfBytes": "32",
        "value": "t_mapping(t_uint16,t_uint256)"
      },
      "t_mapping(t_uint16,t_uint256)": {
        "encoding": "mapping",
        "key": "t_uint16",
        "label": "mapping(uint16 => uint256)",
        "numberOfBytes": "32",
        "value": "t_uint256"
      },
      "t_mapping(t_uint256,t_struct(ProposalVote)5975_storage)": {
        "encoding": "mapping",
        "key": "t_uint256",
        "label": "mapping(uint256 => struct VoteAggregator.ProposalVote)",
        "numberOfBytes": "32",
        "value": "t_struct(ProposalVote)5975_storage"
      },
      "t_mapping(t_uint256,t_struct(RemoteProposal)5606_storage)": {
        "encoding": "mapping",
        "key": "t_uint256",
        "label": "mapping(uint256 => struct VoteAggregator.RemoteProposal)",
        "numberOfBytes": "32",
        "value": "t_struct(RemoteProposal)5606_storage"
      },
      "t_mapping(t_uint64,t_bytes32)": {
        "encoding": "mapping",
        "key": "t_uint64",
        "label": "mapping(uint64 => bytes32)",
        "numberOfBytes": "32",
        "value": "t_bytes32"
      },
      "t_struct(Checkpoint)205_storage": {
        "encoding": "inplace",
        "label": "struct Checkpoints.Checkpoint",
        "members": [
          {
            "astId": 202,
            "contract": "contracts/VoteAggregator.sol:VoteAggregator",
            "label": "_blockNumber",
            "offset": 0,
            "slot": "0",
            "type": "t_uint32"
          },
          {
            "astId": 204,
            "contract": "contracts/VoteAggregator.sol:VoteAggregator",
            "label": "_value",
            "offset": 4,
            "slot": "0",
            "type": "t_uint224"
          }
        ],
        "numberOfBytes": "32"
      },
      "t_struct(History)200_storage": {
        "encoding": "inplace",
        "label": "struct Checkpoints.History",
        "members": [
          {
            "astId": 199,
            "contract": "contracts/VoteAggregator.sol:VoteAggregator",
            "label": "_checkpoints",
            "offset": 0,
            "slot": "0",
            "type": "t_array(t_struct(Checkpoint)205_storage)dyn_storage"
          }
        ],
        "numberOfBytes": "32"
      },
      "t_struct(ProposalVote)5975_storage": {
        "encoding": "inplace",
        "label": "struct VoteAggregator.ProposalVote",
        "members": [
          {
            "astId": 5966,
            "contract": "contracts/VoteAggregator.sol:VoteAggregator",
            "label": "againstVotes",
            "offset": 0,
            "slot": "0",
            "type": "t_uint256"
          },
          {
            "astId": 5968,
            "contract": "contracts/VoteAggregator.sol:VoteAggregator",
            "label": "forVotes",
            "offset": 0,
            "slot": "1",
            "type": "t_uint256"
          },
          {
            "astId": 5970,
            "contract": "contracts/VoteAggregator.sol:VoteAggregator",
            "label": "abstainVotes",
            "offset": 0,
            "slot": "2",
            "type": "t_uint256"
          },
          {
            "astId": 5974,
            "contract": "contracts/VoteAggregator.sol:VoteAggregator",
            "label": "hasVoted",
            "offset": 0,
            "slot": "3",
            "type": "t_mapping(t_address,t_bool)"
          }
        ],
        "numberOfBytes": "128"
      },
      "t_struct(RemoteProposal)5606_storage": {
        "encoding": "inplace",
        "label": "struct VoteAggregator.RemoteProposal",
        "members": [
          {
            "astId": 5601,
            "contract": "contracts/VoteAggregator.sol:VoteAggregator",
            "label": "localVoteStart",
            "offset": 0,
            "slot": "0",
            "type": "t_uint256"
          },
          {
            "astId": 5603,
            "contract": "contracts/VoteAggregator.sol:VoteAggregator",
            "label": "localVoteEnd",
            "offset": 0,
            "slot": "1",
            "type": "t_uint256"
          },
          {
            "astId": 5605,
            "contract": "contracts/VoteAggregator.sol:VoteAggregator",
            "label": "voteFinished",
            "offset": 0,
            "slot": "2",
            "type": "t_bool"
          }
        ],
        "numberOfBytes": "96"
      },
      "t_uint16": {
        "encoding": "inplace",
        "label": "uint16",
        "numberOfBytes": "2"
      },
      "t_uint224": {
        "encoding": "inplace",
        "label": "uint224",
        "numberOfBytes": "28"
      },
      "t_uint256": {
        "encoding": "inplace",
        "label": "uint256",
        "numberOfBytes": "32"
      },
      "t_uint32": {
        "encoding": "inplace",
        "label": "uint32",
        "numberOfBytes": "4"
      },
      "t_uint64": {
        "encoding": "inplace",
        "label": "uint64",
        "numberOfBytes": "8"
      }
    }
  }
}