{
  "address": "0xe573BCA813c741229ffB2488F7856C6cAa841041",
  "abi": [
    {
      "inputs": [
        {
          "internalType": "uint256",
          "name": "_initialSupply",
          "type": "uint256"
        },
        {
          "internalType": "address",
          "name": "_lzEndpoint",
          "type": "address"
        }
      ],
      "stateMutability": "nonpayable",
      "type": "constructor"
    },
    {
      "anonymous": false,
      "inputs": [
        {
          "indexed": true,
          "internalType": "address",
          "name": "owner",
          "type": "address"
        },
        {
          "indexed": true,
          "internalType": "address",
          "name": "spender",
          "type": "address"
        },
        {
          "indexed": false,
          "internalType": "uint256",
          "name": "value",
          "type": "uint256"
        }
      ],
      "name": "Approval",
      "type": "event"
    },
    {
      "anonymous": false,
      "inputs": [
        {
          "indexed": true,
          "internalType": "address",
          "name": "delegator",
          "type": "address"
        },
        {
          "indexed": true,
          "internalType": "address",
          "name": "fromDelegate",
          "type": "address"
        },
        {
          "indexed": true,
          "internalType": "address",
          "name": "toDelegate",
          "type": "address"
        }
      ],
      "name": "DelegateChanged",
      "type": "event"
    },
    {
      "anonymous": false,
      "inputs": [
        {
          "indexed": true,
          "internalType": "address",
          "name": "delegate",
          "type": "address"
        },
        {
          "indexed": false,
          "internalType": "uint256",
          "name": "previousBalance",
          "type": "uint256"
        },
        {
          "indexed": false,
          "internalType": "uint256",
          "name": "newBalance",
          "type": "uint256"
        }
      ],
      "name": "DelegateVotesChanged",
      "type": "event"
    },
    {
      "anonymous": false,
      "inputs": [
        {
          "indexed": false,
          "internalType": "uint16",
          "name": "_srcChainId",
          "type": "uint16"
        },
        {
          "indexed": false,
          "internalType": "bytes",
          "name": "_srcAddress",
          "type": "bytes"
        },
        {
          "indexed": false,
          "internalType": "uint64",
          "name": "_nonce",
          "type": "uint64"
        },
        {
          "indexed": false,
          "internalType": "bytes",
          "name": "_payload",
          "type": "bytes"
        },
        {
          "indexed": false,
          "internalType": "bytes",
          "name": "_reason",
          "type": "bytes"
        }
      ],
      "name": "MessageFailed",
      "type": "event"
    },
    {
      "anonymous": false,
      "inputs": [
        {
          "indexed": true,
          "internalType": "address",
          "name": "previousOwner",
          "type": "address"
        },
        {
          "indexed": true,
          "internalType": "address",
          "name": "newOwner",
          "type": "address"
        }
      ],
      "name": "OwnershipTransferred",
      "type": "event"
    },
    {
      "anonymous": false,
      "inputs": [
        {
          "indexed": true,
          "internalType": "uint16",
          "name": "_srcChainId",
          "type": "uint16"
        },
        {
          "indexed": true,
          "internalType": "address",
          "name": "_to",
          "type": "address"
        },
        {
          "indexed": false,
          "internalType": "uint256",
          "name": "_amount",
          "type": "uint256"
        }
      ],
      "name": "ReceiveFromChain",
      "type": "event"
    },
    {
      "anonymous": false,
      "inputs": [
        {
          "indexed": false,
          "internalType": "uint16",
          "name": "_srcChainId",
          "type": "uint16"
        },
        {
          "indexed": false,
          "internalType": "bytes",
          "name": "_srcAddress",
          "type": "bytes"
        },
        {
          "indexed": false,
          "internalType": "uint64",
          "name": "_nonce",
          "type": "uint64"
        },
        {
          "indexed": false,
          "internalType": "bytes32",
          "name": "_payloadHash",
          "type": "bytes32"
        }
      ],
      "name": "RetryMessageSuccess",
      "type": "event"
    },
    {
      "anonymous": false,
      "inputs": [
        {
          "indexed": true,
          "internalType": "uint16",
          "name": "_dstChainId",
          "type": "uint16"
        },
        {
          "indexed": true,
          "internalType": "address",
          "name": "_from",
          "type": "address"
        },
        {
          "indexed": false,
          "internalType": "bytes",
          "name": "_toAddress",
          "type": "bytes"
        },
        {
          "indexed": false,
          "internalType": "uint256",
          "name": "_amount",
          "type": "uint256"
        }
      ],
      "name": "SendToChain",
      "type": "event"
    },
    {
      "anonymous": false,
      "inputs": [
        {
          "indexed": false,
          "internalType": "uint16",
          "name": "_dstChainId",
          "type": "uint16"
        },
        {
          "indexed": false,
          "internalType": "uint16",
          "name": "_type",
          "type": "uint16"
        },
        {
          "indexed": false,
          "internalType": "uint256",
          "name": "_minDstGas",
          "type": "uint256"
        }
      ],
      "name": "SetMinDstGas",
      "type": "event"
    },
    {
      "anonymous": false,
      "inputs": [
        {
          "indexed": false,
          "internalType": "address",
          "name": "precrime",
          "type": "address"
        }
      ],
      "name": "SetPrecrime",
      "type": "event"
    },
    {
      "anonymous": false,
      "inputs": [
        {
          "indexed": false,
          "internalType": "uint16",
          "name": "_remoteChainId",
          "type": "uint16"
        },
        {
          "indexed": false,
          "internalType": "bytes",
          "name": "_path",
          "type": "bytes"
        }
      ],
      "name": "SetTrustedRemote",
      "type": "event"
    },
    {
      "anonymous": false,
      "inputs": [
        {
          "indexed": false,
          "internalType": "uint16",
          "name": "_remoteChainId",
          "type": "uint16"
        },
        {
          "indexed": false,
          "internalType": "bytes",
          "name": "_remoteAddress",
          "type": "bytes"
        }
      ],
      "name": "SetTrustedRemoteAddress",
      "type": "event"
    },
    {
      "anonymous": false,
      "inputs": [
        {
          "indexed": false,
          "internalType": "bool",
          "name": "_useCustomAdapterParams",
          "type": "bool"
        }
      ],
      "name": "SetUseCustomAdapterParams",
      "type": "event"
    },
    {
      "anonymous": false,
      "inputs": [
        {
          "indexed": true,
          "internalType": "address",
          "name": "from",
          "type": "address"
        },
        {
          "indexed": true,
          "internalType": "address",
          "name": "to",
          "type": "address"
        },
        {
          "indexed": false,
          "internalType": "uint256",
          "name": "value",
          "type": "uint256"
        }
      ],
      "name": "Transfer",
      "type": "event"
    },
    {
      "inputs": [],
      "name": "DOMAIN_SEPARATOR",
      "outputs": [
        {
          "internalType": "bytes32",
          "name": "",
          "type": "bytes32"
        }
      ],
      "stateMutability": "view",
      "type": "function"
    },
    {
      "inputs": [],
      "name": "NO_EXTRA_GAS",
      "outputs": [
        {
          "internalType": "uint256",
          "name": "",
          "type": "uint256"
        }
      ],
      "stateMutability": "view",
      "type": "function"
    },
    {
      "inputs": [],
      "name": "PT_SEND",
      "outputs": [
        {
          "internalType": "uint16",
          "name": "",
          "type": "uint16"
        }
      ],
      "stateMutability": "view",
      "type": "function"
    },
    {
      "inputs": [
        {
          "internalType": "address",
          "name": "owner",
          "type": "address"
        },
        {
          "internalType": "address",
          "name": "spender",
          "type": "address"
        }
      ],
      "name": "allowance",
      "outputs": [
        {
          "internalType": "uint256",
          "name": "",
          "type": "uint256"
        }
      ],
      "stateMutability": "view",
      "type": "function"
    },
    {
      "inputs": [
        {
          "internalType": "address",
          "name": "spender",
          "type": "address"
        },
        {
          "internalType": "uint256",
          "name": "amount",
          "type": "uint256"
        }
      ],
      "name": "approve",
      "outputs": [
        {
          "internalType": "bool",
          "name": "",
          "type": "bool"
        }
      ],
      "stateMutability": "nonpayable",
      "type": "function"
    },
    {
      "inputs": [
        {
          "internalType": "address",
          "name": "account",
          "type": "address"
        }
      ],
      "name": "balanceOf",
      "outputs": [
        {
          "internalType": "uint256",
          "name": "",
          "type": "uint256"
        }
      ],
      "stateMutability": "view",
      "type": "function"
    },
    {
      "inputs": [
        {
          "internalType": "address",
          "name": "account",
          "type": "address"
        },
        {
          "internalType": "uint32",
          "name": "pos",
          "type": "uint32"
        }
      ],
      "name": "checkpoints",
      "outputs": [
        {
          "components": [
            {
              "internalType": "uint32",
              "name": "fromBlock",
              "type": "uint32"
            },
            {
              "internalType": "uint224",
              "name": "votes",
              "type": "uint224"
            }
          ],
          "internalType": "struct ERC20Votes.Checkpoint",
          "name": "",
          "type": "tuple"
        }
      ],
      "stateMutability": "view",
      "type": "function"
    },
    {
      "inputs": [],
      "name": "circulatingSupply",
      "outputs": [
        {
          "internalType": "uint256",
          "name": "",
          "type": "uint256"
        }
      ],
      "stateMutability": "view",
      "type": "function"
    },
    {
      "inputs": [],
      "name": "decimals",
      "outputs": [
        {
          "internalType": "uint8",
          "name": "",
          "type": "uint8"
        }
      ],
      "stateMutability": "view",
      "type": "function"
    },
    {
      "inputs": [
        {
          "internalType": "address",
          "name": "spender",
          "type": "address"
        },
        {
          "internalType": "uint256",
          "name": "subtractedValue",
          "type": "uint256"
        }
      ],
      "name": "decreaseAllowance",
      "outputs": [
        {
          "internalType": "bool",
          "name": "",
          "type": "bool"
        }
      ],
      "stateMutability": "nonpayable",
      "type": "function"
    },
    {
      "inputs": [
        {
          "internalType": "address",
          "name": "delegatee",
          "type": "address"
        }
      ],
      "name": "delegate",
      "outputs": [],
      "stateMutability": "nonpayable",
      "type": "function"
    },
    {
      "inputs": [
        {
          "internalType": "address",
          "name": "delegatee",
          "type": "address"
        },
        {
          "internalType": "uint256",
          "name": "nonce",
          "type": "uint256"
        },
        {
          "internalType": "uint256",
          "name": "expiry",
          "type": "uint256"
        },
        {
          "internalType": "uint8",
          "name": "v",
          "type": "uint8"
        },
        {
          "internalType": "bytes32",
          "name": "r",
          "type": "bytes32"
        },
        {
          "internalType": "bytes32",
          "name": "s",
          "type": "bytes32"
        }
      ],
      "name": "delegateBySig",
      "outputs": [],
      "stateMutability": "nonpayable",
      "type": "function"
    },
    {
      "inputs": [
        {
          "internalType": "address",
          "name": "account",
          "type": "address"
        }
      ],
      "name": "delegates",
      "outputs": [
        {
          "internalType": "address",
          "name": "",
          "type": "address"
        }
      ],
      "stateMutability": "view",
      "type": "function"
    },
    {
      "inputs": [
        {
          "internalType": "uint16",
          "name": "_dstChainId",
          "type": "uint16"
        },
        {
          "internalType": "bytes",
          "name": "_toAddress",
          "type": "bytes"
        },
        {
          "internalType": "uint256",
          "name": "_amount",
          "type": "uint256"
        },
        {
          "internalType": "bool",
          "name": "_useZro",
          "type": "bool"
        },
        {
          "internalType": "bytes",
          "name": "_adapterParams",
          "type": "bytes"
        }
      ],
      "name": "estimateSendFee",
      "outputs": [
        {
          "internalType": "uint256",
          "name": "nativeFee",
          "type": "uint256"
        },
        {
          "internalType": "uint256",
          "name": "zroFee",
          "type": "uint256"
        }
      ],
      "stateMutability": "view",
      "type": "function"
    },
    {
      "inputs": [
        {
          "internalType": "uint16",
          "name": "",
          "type": "uint16"
        },
        {
          "internalType": "bytes",
          "name": "",
          "type": "bytes"
        },
        {
          "internalType": "uint64",
          "name": "",
          "type": "uint64"
        }
      ],
      "name": "failedMessages",
      "outputs": [
        {
          "internalType": "bytes32",
          "name": "",
          "type": "bytes32"
        }
      ],
      "stateMutability": "view",
      "type": "function"
    },
    {
      "inputs": [
        {
          "internalType": "uint16",
          "name": "_srcChainId",
          "type": "uint16"
        },
        {
          "internalType": "bytes",
          "name": "_srcAddress",
          "type": "bytes"
        }
      ],
      "name": "forceResumeReceive",
      "outputs": [],
      "stateMutability": "nonpayable",
      "type": "function"
    },
    {
      "inputs": [
        {
          "internalType": "uint16",
          "name": "_version",
          "type": "uint16"
        },
        {
          "internalType": "uint16",
          "name": "_chainId",
          "type": "uint16"
        },
        {
          "internalType": "address",
          "name": "",
          "type": "address"
        },
        {
          "internalType": "uint256",
          "name": "_configType",
          "type": "uint256"
        }
      ],
      "name": "getConfig",
      "outputs": [
        {
          "internalType": "bytes",
          "name": "",
          "type": "bytes"
        }
      ],
      "stateMutability": "view",
      "type": "function"
    },
    {
      "inputs": [
        {
          "internalType": "uint256",
          "name": "blockNumber",
          "type": "uint256"
        }
      ],
      "name": "getPastTotalSupply",
      "outputs": [
        {
          "internalType": "uint256",
          "name": "",
          "type": "uint256"
        }
      ],
      "stateMutability": "view",
      "type": "function"
    },
    {
      "inputs": [
        {
          "internalType": "address",
          "name": "account",
          "type": "address"
        },
        {
          "internalType": "uint256",
          "name": "blockNumber",
          "type": "uint256"
        }
      ],
      "name": "getPastVotes",
      "outputs": [
        {
          "internalType": "uint256",
          "name": "",
          "type": "uint256"
        }
      ],
      "stateMutability": "view",
      "type": "function"
    },
    {
      "inputs": [
        {
          "internalType": "uint16",
          "name": "_remoteChainId",
          "type": "uint16"
        }
      ],
      "name": "getTrustedRemoteAddress",
      "outputs": [
        {
          "internalType": "bytes",
          "name": "",
          "type": "bytes"
        }
      ],
      "stateMutability": "view",
      "type": "function"
    },
    {
      "inputs": [
        {
          "internalType": "address",
          "name": "account",
          "type": "address"
        }
      ],
      "name": "getVotes",
      "outputs": [
        {
          "internalType": "uint256",
          "name": "",
          "type": "uint256"
        }
      ],
      "stateMutability": "view",
      "type": "function"
    },
    {
      "inputs": [
        {
          "internalType": "address",
          "name": "spender",
          "type": "address"
        },
        {
          "internalType": "uint256",
          "name": "addedValue",
          "type": "uint256"
        }
      ],
      "name": "increaseAllowance",
      "outputs": [
        {
          "internalType": "bool",
          "name": "",
          "type": "bool"
        }
      ],
      "stateMutability": "nonpayable",
      "type": "function"
    },
    {
      "inputs": [
        {
          "internalType": "uint16",
          "name": "_srcChainId",
          "type": "uint16"
        },
        {
          "internalType": "bytes",
          "name": "_srcAddress",
          "type": "bytes"
        }
      ],
      "name": "isTrustedRemote",
      "outputs": [
        {
          "internalType": "bool",
          "name": "",
          "type": "bool"
        }
      ],
      "stateMutability": "view",
      "type": "function"
    },
    {
      "inputs": [],
      "name": "lzEndpoint",
      "outputs": [
        {
          "internalType": "contract ILayerZeroEndpoint",
          "name": "",
          "type": "address"
        }
      ],
      "stateMutability": "view",
      "type": "function"
    },
    {
      "inputs": [
        {
          "internalType": "uint16",
          "name": "_srcChainId",
          "type": "uint16"
        },
        {
          "internalType": "bytes",
          "name": "_srcAddress",
          "type": "bytes"
        },
        {
          "internalType": "uint64",
          "name": "_nonce",
          "type": "uint64"
        },
        {
          "internalType": "bytes",
          "name": "_payload",
          "type": "bytes"
        }
      ],
      "name": "lzReceive",
      "outputs": [],
      "stateMutability": "nonpayable",
      "type": "function"
    },
    {
      "inputs": [
        {
          "internalType": "uint16",
          "name": "",
          "type": "uint16"
        },
        {
          "internalType": "uint16",
          "name": "",
          "type": "uint16"
        }
      ],
      "name": "minDstGasLookup",
      "outputs": [
        {
          "internalType": "uint256",
          "name": "",
          "type": "uint256"
        }
      ],
      "stateMutability": "view",
      "type": "function"
    },
    {
      "inputs": [],
      "name": "name",
      "outputs": [
        {
          "internalType": "string",
          "name": "",
          "type": "string"
        }
      ],
      "stateMutability": "view",
      "type": "function"
    },
    {
      "inputs": [
        {
          "internalType": "uint16",
          "name": "_srcChainId",
          "type": "uint16"
        },
        {
          "internalType": "bytes",
          "name": "_srcAddress",
          "type": "bytes"
        },
        {
          "internalType": "uint64",
          "name": "_nonce",
          "type": "uint64"
        },
        {
          "internalType": "bytes",
          "name": "_payload",
          "type": "bytes"
        }
      ],
      "name": "nonblockingLzReceive",
      "outputs": [],
      "stateMutability": "nonpayable",
      "type": "function"
    },
    {
      "inputs": [
        {
          "internalType": "address",
          "name": "owner",
          "type": "address"
        }
      ],
      "name": "nonces",
      "outputs": [
        {
          "internalType": "uint256",
          "name": "",
          "type": "uint256"
        }
      ],
      "stateMutability": "view",
      "type": "function"
    },
    {
      "inputs": [
        {
          "internalType": "address",
          "name": "account",
          "type": "address"
        }
      ],
      "name": "numCheckpoints",
      "outputs": [
        {
          "internalType": "uint32",
          "name": "",
          "type": "uint32"
        }
      ],
      "stateMutability": "view",
      "type": "function"
    },
    {
      "inputs": [],
      "name": "owner",
      "outputs": [
        {
          "internalType": "address",
          "name": "",
          "type": "address"
        }
      ],
      "stateMutability": "view",
      "type": "function"
    },
    {
      "inputs": [
        {
          "internalType": "address",
          "name": "owner",
          "type": "address"
        },
        {
          "internalType": "address",
          "name": "spender",
          "type": "address"
        },
        {
          "internalType": "uint256",
          "name": "value",
          "type": "uint256"
        },
        {
          "internalType": "uint256",
          "name": "deadline",
          "type": "uint256"
        },
        {
          "internalType": "uint8",
          "name": "v",
          "type": "uint8"
        },
        {
          "internalType": "bytes32",
          "name": "r",
          "type": "bytes32"
        },
        {
          "internalType": "bytes32",
          "name": "s",
          "type": "bytes32"
        }
      ],
      "name": "permit",
      "outputs": [],
      "stateMutability": "nonpayable",
      "type": "function"
    },
    {
      "inputs": [],
      "name": "precrime",
      "outputs": [
        {
          "internalType": "address",
          "name": "",
          "type": "address"
        }
      ],
      "stateMutability": "view",
      "type": "function"
    },
    {
      "inputs": [],
      "name": "renounceOwnership",
      "outputs": [],
      "stateMutability": "nonpayable",
      "type": "function"
    },
    {
      "inputs": [
        {
          "internalType": "uint16",
          "name": "_srcChainId",
          "type": "uint16"
        },
        {
          "internalType": "bytes",
          "name": "_srcAddress",
          "type": "bytes"
        },
        {
          "internalType": "uint64",
          "name": "_nonce",
          "type": "uint64"
        },
        {
          "internalType": "bytes",
          "name": "_payload",
          "type": "bytes"
        }
      ],
      "name": "retryMessage",
      "outputs": [],
      "stateMutability": "payable",
      "type": "function"
    },
    {
      "inputs": [
        {
          "internalType": "address",
          "name": "_from",
          "type": "address"
        },
        {
          "internalType": "uint16",
          "name": "_dstChainId",
          "type": "uint16"
        },
        {
          "internalType": "bytes",
          "name": "_toAddress",
          "type": "bytes"
        },
        {
          "internalType": "uint256",
          "name": "_amount",
          "type": "uint256"
        },
        {
          "internalType": "address payable",
          "name": "_refundAddress",
          "type": "address"
        },
        {
          "internalType": "address",
          "name": "_zroPaymentAddress",
          "type": "address"
        },
        {
          "internalType": "bytes",
          "name": "_adapterParams",
          "type": "bytes"
        }
      ],
      "name": "sendFrom",
      "outputs": [],
      "stateMutability": "payable",
      "type": "function"
    },
    {
      "inputs": [
        {
          "internalType": "uint16",
          "name": "_version",
          "type": "uint16"
        },
        {
          "internalType": "uint16",
          "name": "_chainId",
          "type": "uint16"
        },
        {
          "internalType": "uint256",
          "name": "_configType",
          "type": "uint256"
        },
        {
          "internalType": "bytes",
          "name": "_config",
          "type": "bytes"
        }
      ],
      "name": "setConfig",
      "outputs": [],
      "stateMutability": "nonpayable",
      "type": "function"
    },
    {
      "inputs": [
        {
          "internalType": "uint16",
          "name": "_dstChainId",
          "type": "uint16"
        },
        {
          "internalType": "uint16",
          "name": "_packetType",
          "type": "uint16"
        },
        {
          "internalType": "uint256",
          "name": "_minGas",
          "type": "uint256"
        }
      ],
      "name": "setMinDstGas",
      "outputs": [],
      "stateMutability": "nonpayable",
      "type": "function"
    },
    {
      "inputs": [
        {
          "internalType": "address",
          "name": "_precrime",
          "type": "address"
        }
      ],
      "name": "setPrecrime",
      "outputs": [],
      "stateMutability": "nonpayable",
      "type": "function"
    },
    {
      "inputs": [
        {
          "internalType": "uint16",
          "name": "_version",
          "type": "uint16"
        }
      ],
      "name": "setReceiveVersion",
      "outputs": [],
      "stateMutability": "nonpayable",
      "type": "function"
    },
    {
      "inputs": [
        {
          "internalType": "uint16",
          "name": "_version",
          "type": "uint16"
        }
      ],
      "name": "setSendVersion",
      "outputs": [],
      "stateMutability": "nonpayable",
      "type": "function"
    },
    {
      "inputs": [
        {
          "internalType": "uint16",
          "name": "_srcChainId",
          "type": "uint16"
        },
        {
          "internalType": "bytes",
          "name": "_path",
          "type": "bytes"
        }
      ],
      "name": "setTrustedRemote",
      "outputs": [],
      "stateMutability": "nonpayable",
      "type": "function"
    },
    {
      "inputs": [
        {
          "internalType": "uint16",
          "name": "_remoteChainId",
          "type": "uint16"
        },
        {
          "internalType": "bytes",
          "name": "_remoteAddress",
          "type": "bytes"
        }
      ],
      "name": "setTrustedRemoteAddress",
      "outputs": [],
      "stateMutability": "nonpayable",
      "type": "function"
    },
    {
      "inputs": [
        {
          "internalType": "bool",
          "name": "_useCustomAdapterParams",
          "type": "bool"
        }
      ],
      "name": "setUseCustomAdapterParams",
      "outputs": [],
      "stateMutability": "nonpayable",
      "type": "function"
    },
    {
      "inputs": [
        {
          "internalType": "bytes4",
          "name": "interfaceId",
          "type": "bytes4"
        }
      ],
      "name": "supportsInterface",
      "outputs": [
        {
          "internalType": "bool",
          "name": "",
          "type": "bool"
        }
      ],
      "stateMutability": "view",
      "type": "function"
    },
    {
      "inputs": [],
      "name": "symbol",
      "outputs": [
        {
          "internalType": "string",
          "name": "",
          "type": "string"
        }
      ],
      "stateMutability": "view",
      "type": "function"
    },
    {
      "inputs": [],
      "name": "token",
      "outputs": [
        {
          "internalType": "address",
          "name": "",
          "type": "address"
        }
      ],
      "stateMutability": "view",
      "type": "function"
    },
    {
      "inputs": [],
      "name": "totalSupply",
      "outputs": [
        {
          "internalType": "uint256",
          "name": "",
          "type": "uint256"
        }
      ],
      "stateMutability": "view",
      "type": "function"
    },
    {
      "inputs": [
        {
          "internalType": "address",
          "name": "to",
          "type": "address"
        },
        {
          "internalType": "uint256",
          "name": "amount",
          "type": "uint256"
        }
      ],
      "name": "transfer",
      "outputs": [
        {
          "internalType": "bool",
          "name": "",
          "type": "bool"
        }
      ],
      "stateMutability": "nonpayable",
      "type": "function"
    },
    {
      "inputs": [
        {
          "internalType": "address",
          "name": "from",
          "type": "address"
        },
        {
          "internalType": "address",
          "name": "to",
          "type": "address"
        },
        {
          "internalType": "uint256",
          "name": "amount",
          "type": "uint256"
        }
      ],
      "name": "transferFrom",
      "outputs": [
        {
          "internalType": "bool",
          "name": "",
          "type": "bool"
        }
      ],
      "stateMutability": "nonpayable",
      "type": "function"
    },
    {
      "inputs": [
        {
          "internalType": "address",
          "name": "newOwner",
          "type": "address"
        }
      ],
      "name": "transferOwnership",
      "outputs": [],
      "stateMutability": "nonpayable",
      "type": "function"
    },
    {
      "inputs": [
        {
          "internalType": "uint16",
          "name": "",
          "type": "uint16"
        }
      ],
      "name": "trustedRemoteLookup",
      "outputs": [
        {
          "internalType": "bytes",
          "name": "",
          "type": "bytes"
        }
      ],
      "stateMutability": "view",
      "type": "function"
    },
    {
      "inputs": [],
      "name": "useCustomAdapterParams",
      "outputs": [
        {
          "internalType": "bool",
          "name": "",
          "type": "bool"
        }
      ],
      "stateMutability": "view",
      "type": "function"
    }
  ],
  "transactionHash": "0xb34e9872577385de15aacb7a24f8b15fca644c40a251a4b0b53838f38f21c80e",
  "args": [
    "1000000000000000000000",
    "0xb23b28012ee92E8dE39DEb57Af31722223034747"
  ],
  "numDeployments": 3,
  "solcInputHash": "8c12b1faffa0d9aecad031584f955502",
  "bytecode": "0x6101606040523480156200001257600080fd5b506040516200514138038062005141833981016040819052620000359162000893565b6040518060400160405280601581526020017f43726f737320436861696e2044414f20546f6b656e00000000000000000000008152506040518060400160405280600481526020016310d0d11560e21b815250826040518060400160405280601581526020017f43726f737320436861696e2044414f20546f6b656e000000000000000000000081525080604051806040016040528060018152602001603160f81b8152508585858080620000f9620000f3620001e560201b60201c565b620001e9565b6001600160a01b0316608052505081516200011c906009906020850190620007f7565b5080516200013290600a906020840190620007f7565b505082516020938401208251928401929092206101008390526101208190524660c0818152604080517f8b73c3c69bb8fe3d512ecc4cf759cc79239f7b179b0ffacaa9a75d522b39400f81890181905281830197909752606081019490945260808401929092523060a080850182905283518086038201815294909201909252825192909501919091209093525060e0919091526101405250620001dd925033915084905062000239565b50506200095a565b3390565b600080546001600160a01b038381166001600160a01b0319831681178455604051919092169283917f8be0079c531659141344cd1fd0a4f28419497f9722a3daafe3b4186f6b6457e09190a35050565b6200025082826200025460201b62001f961760201c565b5050565b6200026b82826200030b60201b620020261760201c565b6001600160e01b036200027f620003da8216565b1115620002ec5760405162461bcd60e51b815260206004820152603060248201527f4552433230566f7465733a20746f74616c20737570706c79207269736b73206f60448201526f766572666c6f77696e6720766f74657360801b60648201526084015b60405180910390fd5b62000305600f620020f3620003e060201b1783620003f5565b50505050565b6001600160a01b038216620003635760405162461bcd60e51b815260206004820152601f60248201527f45524332303a206d696e7420746f20746865207a65726f2061646472657373006044820152606401620002e3565b8060086000828254620003779190620008e8565b90915550506001600160a01b0382166000818152600660209081526040808320805486019055518481527fddf252ad1be2c89b69c2b068fc378daa952ba7f163c4a11628f55a4df523b3ef910160405180910390a362000250600083836200058c565b60085490565b6000620003ee8284620008e8565b9392505050565b82546000908190818115620004555762000424876200041660018562000903565b600091825260209091200190565b60408051808201909152905463ffffffff8116825264010000000090046001600160e01b031660208201526200046a565b60408051808201909152600080825260208201525b905080602001516001600160e01b031693506200048884868860201c565b9250600082118015620004a15750805163ffffffff1643145b15620004f857620004bd83620005a460201b620020ff1760201c565b620004cf886200041660018662000903565b80546001600160e01b03929092166401000000000263ffffffff9092169190911790556200057d565b8660405180604001604052806200051a436200061360201b6200216c1760201c565b63ffffffff1681526020016200053b86620005a460201b620020ff1760201c565b6001600160e01b0390811690915282546001810184556000938452602093849020835194909301519091166401000000000263ffffffff909316929092179101555b5050935093915050565b505050565b620005878383836200067a60201b620021d11760201c565b60006001600160e01b038211156200060f5760405162461bcd60e51b815260206004820152602760248201527f53616665436173743a2076616c756520646f65736e27742066697420696e20326044820152663234206269747360c81b6064820152608401620002e3565b5090565b600063ffffffff8211156200060f5760405162461bcd60e51b815260206004820152602660248201527f53616665436173743a2076616c756520646f65736e27742066697420696e203360448201526532206269747360d01b6064820152608401620002e3565b620006928383836200058760201b620022031760201c565b6001600160a01b038381166000908152600d60205260408082205485841683529120546200058792918216911683818314801590620006d15750600081115b1562000587576001600160a01b038316156200075e576001600160a01b0383166000908152600e60209081526040822082916200071b9190620007e9901b620022081785620003f5565b91509150846001600160a01b031660008051602062005121833981519152838360405162000753929190918252602082015260400190565b60405180910390a250505b6001600160a01b0382161562000587576001600160a01b0382166000908152600e6020908152604082208291620007a29190620003e0901b620020f31785620003f5565b91509150836001600160a01b0316600080516020620051218339815191528383604051620007da929190918252602082015260400190565b60405180910390a25050505050565b6000620003ee828462000903565b82805462000805906200091d565b90600052602060002090601f01602090048101928262000829576000855562000874565b82601f106200084457805160ff191683800117855562000874565b8280016001018555821562000874579182015b828111156200087457825182559160200191906001019062000857565b506200060f9291505b808211156200060f57600081556001016200087d565b60008060408385031215620008a757600080fd5b825160208401519092506001600160a01b0381168114620008c757600080fd5b809150509250929050565b634e487b7160e01b600052601160045260246000fd5b60008219821115620008fe57620008fe620008d2565b500190565b600082821015620009185762000918620008d2565b500390565b600181811c908216806200093257607f821691505b602082108114156200095457634e487b7160e01b600052602260045260246000fd5b50919050565b60805160a05160c05160e051610100516101205161014051614734620009ed60003960006126ef0152600061273e01526000612719015260006126720152600061269c015260006126c601526000818161087e01528181610a6d01528181610d8c01528181610e2d01528181610ecb015281816110f10152818161188601528181611f16015261329601526147346000f3fe6080604052600436106103195760003560e01c80637ecebe00116101ab578063baf3292d116100f7578063eab45d9c11610095578063f1127ed81161006f578063f1127ed8146109cd578063f2fde38b14610a17578063f5ecbdbc14610a37578063fc0c546a14610a5757600080fd5b8063eab45d9c14610973578063eb8d72b714610993578063ed629c5c146109b357600080fd5b8063d1deba1f116100d1578063d1deba1f14610900578063d505accf14610913578063dd62ed3e14610933578063df2a5b3b1461095357600080fd5b8063baf3292d146108a0578063c3cda520146108c0578063cbed8b9c146108e057600080fd5b806395d89b4111610164578063a457c2d71161013e578063a457c2d71461080c578063a6c3d1651461082c578063a9059cbb1461084c578063b353aaa71461086c57600080fd5b806395d89b41146107b75780639ab24eb0146107cc5780639f38369a146107ec57600080fd5b80637ecebe00146106ec5780638cfd8f5c1461070c5780638da5cb5b146107445780638e539e8c146107625780639358928b14610782578063950c8a741461079757600080fd5b80633d8b38f61161026a5780635b8c41e6116102235780636fcfff45116101fd5780636fcfff451461064c57806370a0823114610681578063715018a6146106b75780637533d788146106cc57600080fd5b80635b8c41e6146105bd5780635c19a95c1461060c57806366ad5c8a1461062c57600080fd5b80633d8b38f6146104dc57806342d65a8d146104fc578063447705151461051c5780634c42899a146105315780635190563614610559578063587cde1e1461056c57600080fd5b806318160ddd116102d7578063313ce567116102b1578063313ce5671461046b5780633644e51514610487578063395093511461049c5780633a46b1a8146104bc57600080fd5b806318160ddd146103f757806323b872dd146104165780632a205e3d1461043657600080fd5b80621d35671461031e57806301ffc9a71461034057806306fdde031461037557806307e0db1714610397578063095ea7b3146103b757806310ddb137146103d7575b600080fd5b34801561032a57600080fd5b5061033e610339366004613aec565b610a6a565b005b34801561034c57600080fd5b5061036061035b366004613b81565b610c9b565b60405190151581526020015b60405180910390f35b34801561038157600080fd5b5061038a610cd9565b60405161036c9190613c03565b3480156103a357600080fd5b5061033e6103b2366004613c16565b610d6b565b3480156103c357600080fd5b506103606103d2366004613c48565b610df4565b3480156103e357600080fd5b5061033e6103f2366004613c16565b610e0c565b34801561040357600080fd5b506008545b60405190815260200161036c565b34801561042257600080fd5b50610360610431366004613c74565b610e64565b34801561044257600080fd5b50610456610451366004613cc5565b610e88565b6040805192835260208301919091520161036c565b34801561047757600080fd5b506040516012815260200161036c565b34801561049357600080fd5b50610408610f5b565b3480156104a857600080fd5b506103606104b7366004613c48565b610f6a565b3480156104c857600080fd5b506104086104d7366004613c48565b610f8c565b3480156104e857600080fd5b506103606104f7366004613d64565b611006565b34801561050857600080fd5b5061033e610517366004613d64565b6110d2565b34801561052857600080fd5b50610408600081565b34801561053d57600080fd5b50610546600081565b60405161ffff909116815260200161036c565b61033e610567366004613db8565b611158565b34801561057857600080fd5b506105a5610587366004613e81565b6001600160a01b039081166000908152600d60205260409020541690565b6040516001600160a01b03909116815260200161036c565b3480156105c957600080fd5b506104086105d8366004613f0b565b6004602090815260009384526040808520845180860184018051928152908401958401959095209452929052825290205481565b34801561061857600080fd5b5061033e610627366004613e81565b6111dd565b34801561063857600080fd5b5061033e610647366004613aec565b6111ea565b34801561065857600080fd5b5061066c610667366004613e81565b6112c6565b60405163ffffffff909116815260200161036c565b34801561068d57600080fd5b5061040861069c366004613e81565b6001600160a01b031660009081526006602052604090205490565b3480156106c357600080fd5b5061033e6112e8565b3480156106d857600080fd5b5061038a6106e7366004613c16565b6112fc565b3480156106f857600080fd5b50610408610707366004613e81565b611396565b34801561071857600080fd5b50610408610727366004613fad565b600260209081526000928352604080842090915290825290205481565b34801561075057600080fd5b506000546001600160a01b03166105a5565b34801561076e57600080fd5b5061040861077d366004613fe6565b6113b4565b34801561078e57600080fd5b50610408611410565b3480156107a357600080fd5b506003546105a5906001600160a01b031681565b3480156107c357600080fd5b5061038a61141b565b3480156107d857600080fd5b506104086107e7366004613e81565b61142a565b3480156107f857600080fd5b5061038a610807366004613c16565b6114b1565b34801561081857600080fd5b50610360610827366004613c48565b6115c1565b34801561083857600080fd5b5061033e610847366004613d64565b61163c565b34801561085857600080fd5b50610360610867366004613c48565b6116cf565b34801561087857600080fd5b506105a57f000000000000000000000000000000000000000000000000000000000000000081565b3480156108ac57600080fd5b5061033e6108bb366004613e81565b6116dd565b3480156108cc57600080fd5b5061033e6108db366004614010565b61173a565b3480156108ec57600080fd5b5061033e6108fb36600461406a565b611867565b61033e61090e366004613aec565b6118f1565b34801561091f57600080fd5b5061033e61092e3660046140dc565b611b07565b34801561093f57600080fd5b5061040861094e36600461414a565b611c6b565b34801561095f57600080fd5b5061033e61096e366004614178565b611c96565b34801561097f57600080fd5b5061033e61098e3660046141a8565b611d48565b34801561099f57600080fd5b5061033e6109ae366004613d64565b611d91565b3480156109bf57600080fd5b506005546103609060ff1681565b3480156109d957600080fd5b506109ed6109e83660046141c3565b611deb565b60408051825163ffffffff1681526020928301516001600160e01b0316928101929092520161036c565b348015610a2357600080fd5b5061033e610a32366004613e81565b611e6f565b348015610a4357600080fd5b5061038a610a523660046141fa565b611ee5565b348015610a6357600080fd5b50306105a5565b337f00000000000000000000000000000000000000000000000000000000000000006001600160a01b031614610ae75760405162461bcd60e51b815260206004820152601e60248201527f4c7a4170703a20696e76616c696420656e64706f696e742063616c6c6572000060448201526064015b60405180910390fd5b61ffff861660009081526001602052604081208054610b059061424b565b80601f0160208091040260200160405190810160405280929190818152602001828054610b319061424b565b8015610b7e5780601f10610b5357610100808354040283529160200191610b7e565b820191906000526020600020905b815481529060010190602001808311610b6157829003601f168201915b50505050509050805186869050148015610b99575060008151115b8015610bc1575080516020820120604051610bb79088908890614280565b6040518091039020145b610c1c5760405162461bcd60e51b815260206004820152602660248201527f4c7a4170703a20696e76616c696420736f757263652073656e64696e6720636f6044820152651b9d1c9858dd60d21b6064820152608401610ade565b610c928787878080601f01602080910402602001604051908101604052809392919081815260200183838082843760009201919091525050604080516020601f8a018190048102820181019092528881528a93509150889088908190840183828082843760009201919091525061221492505050565b50505050505050565b60006001600160e01b031982161580610cc457506001600160e01b031982166336372b0760e01b145b80610cd35750610cd38261228d565b92915050565b606060098054610ce89061424b565b80601f0160208091040260200160405190810160405280929190818152602001828054610d149061424b565b8015610d615780601f10610d3657610100808354040283529160200191610d61565b820191906000526020600020905b815481529060010190602001808311610d4457829003601f168201915b5050505050905090565b610d736122c2565b6040516307e0db1760e01b815261ffff821660048201527f00000000000000000000000000000000000000000000000000000000000000006001600160a01b0316906307e0db17906024015b600060405180830381600087803b158015610dd957600080fd5b505af1158015610ded573d6000803e3d6000fd5b5050505050565b600033610e0281858561231c565b5060019392505050565b610e146122c2565b6040516310ddb13760e01b815261ffff821660048201527f00000000000000000000000000000000000000000000000000000000000000006001600160a01b0316906310ddb13790602401610dbf565b600033610e72858285612440565b610e7d8585856124b4565b506001949350505050565b600080600080898989604051602001610ea494939291906142b9565b60408051601f198184030181529082905263040a7bb160e41b825291506001600160a01b037f000000000000000000000000000000000000000000000000000000000000000016906340a7bb1090610f0a908d90309086908c908c908c906004016142e8565b6040805180830381865afa158015610f26573d6000803e3d6000fd5b505050506040513d601f19601f82011682018060405250810190610f4a919061433e565b925092505097509795505050505050565b6000610f65612665565b905090565b600033610e02818585610f7d8383611c6b565b610f879190614378565b61231c565b6000438210610fdd5760405162461bcd60e51b815260206004820152601f60248201527f4552433230566f7465733a20626c6f636b206e6f7420796574206d696e6564006044820152606401610ade565b6001600160a01b0383166000908152600e60205260409020610fff908361278c565b9392505050565b61ffff8316600090815260016020526040812080548291906110279061424b565b80601f01602080910402602001604051908101604052809291908181526020018280546110539061424b565b80156110a05780601f10611075576101008083540402835291602001916110a0565b820191906000526020600020905b81548152906001019060200180831161108357829003601f168201915b5050505050905083836040516110b7929190614280565b60405180910390208180519060200120149150509392505050565b6110da6122c2565b6040516342d65a8d60e01b81526001600160a01b037f000000000000000000000000000000000000000000000000000000000000000016906342d65a8d9061112a90869086908690600401614390565b600060405180830381600087803b15801561114457600080fd5b505af1158015610c92573d6000803e3d6000fd5b6111d2898989898080601f01602080910402602001604051908101604052809392919081815260200183838082843760009201919091525050604080516020601f8a018190048102820181019092528881528c93508b92508a918a908a908190840183828082843760009201919091525061288392505050565b505050505050505050565b6111e7338261292a565b50565b3330146112485760405162461bcd60e51b815260206004820152602660248201527f4e6f6e626c6f636b696e674c7a4170703a2063616c6c6572206d7573742062656044820152650204c7a4170760d41b6064820152608401610ade565b6112be8686868080601f01602080910402602001604051908101604052809392919081815260200183838082843760009201919091525050604080516020601f8901819004810282018101909252878152899350915087908790819084018382808284376000920191909152506129a492505050565b505050505050565b6001600160a01b0381166000908152600e6020526040812054610cd39061216c565b6112f06122c2565b6112fa6000612a0b565b565b600160205260009081526040902080546113159061424b565b80601f01602080910402602001604051908101604052809291908181526020018280546113419061424b565b801561138e5780601f106113635761010080835404028352916020019161138e565b820191906000526020600020905b81548152906001019060200180831161137157829003601f168201915b505050505081565b6001600160a01b0381166000908152600b6020526040812054610cd3565b60004382106114055760405162461bcd60e51b815260206004820152601f60248201527f4552433230566f7465733a20626c6f636b206e6f7420796574206d696e6564006044820152606401610ade565b610cd3600f8361278c565b6000610f6560085490565b6060600a8054610ce89061424b565b6001600160a01b0381166000908152600e6020526040812054801561149e576001600160a01b0383166000908152600e6020526040902061146c6001836143ae565b8154811061147c5761147c6143c5565b60009182526020909120015464010000000090046001600160e01b03166114a1565b60005b6001600160e01b03169392505050565b61ffff81166000908152600160205260408120805460609291906114d49061424b565b80601f01602080910402602001604051908101604052809291908181526020018280546115009061424b565b801561154d5780601f106115225761010080835404028352916020019161154d565b820191906000526020600020905b81548152906001019060200180831161153057829003601f168201915b505050505090508051600014156115a65760405162461bcd60e51b815260206004820152601d60248201527f4c7a4170703a206e6f20747275737465642070617468207265636f72640000006044820152606401610ade565b610fff6000601483516115b991906143ae565b839190612a5b565b600033816115cf8286611c6b565b90508381101561162f5760405162461bcd60e51b815260206004820152602560248201527f45524332303a2064656372656173656420616c6c6f77616e63652062656c6f77604482015264207a65726f60d81b6064820152608401610ade565b610e7d828686840361231c565b6116446122c2565b818130604051602001611659939291906143db565b60408051601f1981840301815291815261ffff8516600090815260016020908152919020825161168e9391929091019061396f565b507f8c0400cfe2d1199b1a725c78960bcc2a344d869b80590d0f2bd005db15a572ce8383836040516116c293929190614390565b60405180910390a1505050565b600033610e028185856124b4565b6116e56122c2565b600380546001600160a01b0319166001600160a01b0383169081179091556040519081527f5db758e995a17ec1ad84bdef7e8c3293a0bd6179bcce400dff5d4c3d87db726b906020015b60405180910390a150565b8342111561178a5760405162461bcd60e51b815260206004820152601d60248201527f4552433230566f7465733a207369676e617475726520657870697265640000006044820152606401610ade565b604080517fe48329057bfd03d55e49b547132e39cffd9c1820ad7b9d4c5307691425d15adf60208201526001600160a01b038816918101919091526060810186905260808101859052600090611804906117fc9060a00160405160208183030381529060405280519060200120612b68565b858585612bb6565b905061180f81612bde565b861461185d5760405162461bcd60e51b815260206004820152601960248201527f4552433230566f7465733a20696e76616c6964206e6f6e6365000000000000006044820152606401610ade565b610c92818861292a565b61186f6122c2565b6040516332fb62e760e21b81526001600160a01b037f0000000000000000000000000000000000000000000000000000000000000000169063cbed8b9c906118c39088908890889088908890600401614401565b600060405180830381600087803b1580156118dd57600080fd5b505af11580156111d2573d6000803e3d6000fd5b61ffff861660009081526004602052604080822090516119149088908890614280565b90815260408051602092819003830190206001600160401b038716600090815292529020549050806119945760405162461bcd60e51b815260206004820152602360248201527f4e6f6e626c6f636b696e674c7a4170703a206e6f2073746f726564206d65737360448201526261676560e81b6064820152608401610ade565b8083836040516119a5929190614280565b604051809103902014611a045760405162461bcd60e51b815260206004820152602160248201527f4e6f6e626c6f636b696e674c7a4170703a20696e76616c6964207061796c6f616044820152601960fa1b6064820152608401610ade565b61ffff87166000908152600460205260408082209051611a279089908990614280565b90815260408051602092819003830181206001600160401b038916600090815290845282902093909355601f88018290048202830182019052868252611abf918991899089908190840183828082843760009201919091525050604080516020601f8a018190048102820181019092528881528a9350915088908890819084018382808284376000920191909152506129a492505050565b7fc264d91f3adc5588250e1551f547752ca0cfa8f6b530d243b9f9f4cab10ea8e58787878785604051611af695949392919061443a565b60405180910390a150505050505050565b83421115611b575760405162461bcd60e51b815260206004820152601d60248201527f45524332305065726d69743a206578706972656420646561646c696e650000006044820152606401610ade565b60007f6e71edae12b1b97f4d1f60370fef10105fa2faae0126114a169c64845d6126c9888888611b868c612bde565b6040805160208101969096526001600160a01b0394851690860152929091166060840152608083015260a082015260c0810186905260e0016040516020818303038152906040528051906020012090506000611be182612b68565b90506000611bf182878787612bb6565b9050896001600160a01b0316816001600160a01b031614611c545760405162461bcd60e51b815260206004820152601e60248201527f45524332305065726d69743a20696e76616c6964207369676e617475726500006044820152606401610ade565b611c5f8a8a8a61231c565b50505050505050505050565b6001600160a01b03918216600090815260076020908152604080832093909416825291909152205490565b611c9e6122c2565b60008111611ce65760405162461bcd60e51b81526020600482015260156024820152744c7a4170703a20696e76616c6964206d696e47617360581b6044820152606401610ade565b61ffff83811660008181526002602090815260408083209487168084529482529182902085905581519283528201929092529081018290527f9d5c7c0b934da8fefa9c7760c98383778a12dfbfc0c3b3106518f43fb9508ac0906060016116c2565b611d506122c2565b6005805460ff19168215159081179091556040519081527f1584ad594a70cbe1e6515592e1272a987d922b097ead875069cebe8b40c004a49060200161172f565b611d996122c2565b61ffff83166000908152600160205260409020611db79083836139ef565b507ffa41487ad5d6728f0b19276fa1eddc16558578f5109fc39d2dc33c3230470dab8383836040516116c293929190614390565b60408051808201909152600080825260208201526001600160a01b0383166000908152600e60205260409020805463ffffffff8416908110611e2f57611e2f6143c5565b60009182526020918290206040805180820190915291015463ffffffff8116825264010000000090046001600160e01b0316918101919091529392505050565b611e776122c2565b6001600160a01b038116611edc5760405162461bcd60e51b815260206004820152602660248201527f4f776e61626c653a206e6577206f776e657220697320746865207a65726f206160448201526564647265737360d01b6064820152608401610ade565b6111e781612a0b565b604051633d7b2f6f60e21b815261ffff808616600483015284166024820152306044820152606481018290526060907f00000000000000000000000000000000000000000000000000000000000000006001600160a01b03169063f5ecbdbc90608401600060405180830381865afa158015611f65573d6000803e3d6000fd5b505050506040513d6000823e601f3d908101601f19168201604052611f8d91908101906144c2565b95945050505050565b611fa08282612026565b6008546001600160e01b0310156120125760405162461bcd60e51b815260206004820152603060248201527f4552433230566f7465733a20746f74616c20737570706c79207269736b73206f60448201526f766572666c6f77696e6720766f74657360801b6064820152608401610ade565b612020600f6120f383612c06565b50505050565b6001600160a01b03821661207c5760405162461bcd60e51b815260206004820152601f60248201527f45524332303a206d696e7420746f20746865207a65726f2061646472657373006044820152606401610ade565b806008600082825461208e9190614378565b90915550506001600160a01b0382166000818152600660209081526040808320805486019055518481527fddf252ad1be2c89b69c2b068fc378daa952ba7f163c4a11628f55a4df523b3ef910160405180910390a36120ef60008383612d5a565b5050565b6000610fff8284614378565b60006001600160e01b038211156121685760405162461bcd60e51b815260206004820152602760248201527f53616665436173743a2076616c756520646f65736e27742066697420696e20326044820152663234206269747360c81b6064820152608401610ade565b5090565b600063ffffffff8211156121685760405162461bcd60e51b815260206004820152602660248201527f53616665436173743a2076616c756520646f65736e27742066697420696e203360448201526532206269747360d01b6064820152608401610ade565b6001600160a01b038381166000908152600d602052604080822054858416835291205461220392918216911683612d65565b505050565b6000610fff82846143ae565b6000806122775a60966366ad5c8a60e01b8989898960405160240161223c94939291906144f6565b60408051601f198184030181529190526020810180516001600160e01b03166001600160e01b03199093169290921790915230929190612ea2565b91509150816112be576112be8686868685612f2e565b60006001600160e01b03198216630a72677560e11b1480610cd357506301ffc9a760e01b6001600160e01b0319831614610cd3565b6000546001600160a01b031633146112fa5760405162461bcd60e51b815260206004820181905260248201527f4f776e61626c653a2063616c6c6572206973206e6f7420746865206f776e65726044820152606401610ade565b6001600160a01b03831661237e5760405162461bcd60e51b8152602060048201526024808201527f45524332303a20617070726f76652066726f6d20746865207a65726f206164646044820152637265737360e01b6064820152608401610ade565b6001600160a01b0382166123df5760405162461bcd60e51b815260206004820152602260248201527f45524332303a20617070726f766520746f20746865207a65726f206164647265604482015261737360f01b6064820152608401610ade565b6001600160a01b0383811660008181526007602090815260408083209487168084529482529182902085905590518481527f8c5be1e5ebec7d5bd14f71427d1e84f3dd0314c0f7b2291e5b200ac8c7c3b925910160405180910390a3505050565b600061244c8484611c6b565b9050600019811461202057818110156124a75760405162461bcd60e51b815260206004820152601d60248201527f45524332303a20696e73756666696369656e7420616c6c6f77616e63650000006044820152606401610ade565b612020848484840361231c565b6001600160a01b0383166125185760405162461bcd60e51b815260206004820152602560248201527f45524332303a207472616e736665722066726f6d20746865207a65726f206164604482015264647265737360d81b6064820152608401610ade565b6001600160a01b03821661257a5760405162461bcd60e51b815260206004820152602360248201527f45524332303a207472616e7366657220746f20746865207a65726f206164647260448201526265737360e81b6064820152608401610ade565b6001600160a01b038316600090815260066020526040902054818110156125f25760405162461bcd60e51b815260206004820152602660248201527f45524332303a207472616e7366657220616d6f756e7420657863656564732062604482015265616c616e636560d01b6064820152608401610ade565b6001600160a01b0380851660008181526006602052604080822086860390559286168082529083902080548601905591517fddf252ad1be2c89b69c2b068fc378daa952ba7f163c4a11628f55a4df523b3ef906126529086815260200190565b60405180910390a3612020848484612d5a565b6000306001600160a01b037f0000000000000000000000000000000000000000000000000000000000000000161480156126be57507f000000000000000000000000000000000000000000000000000000000000000046145b156126e857507f000000000000000000000000000000000000000000000000000000000000000090565b50604080517f00000000000000000000000000000000000000000000000000000000000000006020808301919091527f0000000000000000000000000000000000000000000000000000000000000000828401527f000000000000000000000000000000000000000000000000000000000000000060608301524660808301523060a0808401919091528351808403909101815260c0909201909252805191012090565b8154600090818160058111156127e65760006127a784612fcb565b6127b190856143ae565b600088815260209020909150869082015463ffffffff1611156127d6578091506127e4565b6127e1816001614378565b92505b505b808210156128335760006127fa83836130b0565b600088815260209020909150869082015463ffffffff16111561281f5780915061282d565b61282a816001614378565b92505b506127e6565b801561286d57612856866128486001846143ae565b600091825260209091200190565b5464010000000090046001600160e01b0316612870565b60005b6001600160e01b03169695505050505050565b6128918660008360006130cb565b600061289f88888888613145565b905060008087836040516020016128b893929190614534565b60405160208183030381529060405290506128d7888287878734613177565b886001600160a01b03168861ffff167f39a4c66499bcf4b56d79f0dde8ed7a9d4925a0df55825206b2b8531e202be0d08985604051612917929190614561565b60405180910390a3505050505050505050565b6001600160a01b038281166000818152600d6020818152604080842080546006845282862054949093528787166001600160a01b03198416811790915590519190951694919391928592917f3134e8a2e6d97e929a7e54011ea5485d7d196dd5f0ba4d4ef95803e8e3fc257f9190a4612020828483612d65565b602081015161ffff81166129c3576129be85858585613312565b610ded565b60405162461bcd60e51b815260206004820152601c60248201527f4f4654436f72653a20756e6b6e6f776e207061636b65742074797065000000006044820152606401610ade565b600080546001600160a01b038381166001600160a01b0319831681178455604051919092169283917f8be0079c531659141344cd1fd0a4f28419497f9722a3daafe3b4186f6b6457e09190a35050565b606081612a6981601f614378565b1015612aa85760405162461bcd60e51b815260206004820152600e60248201526d736c6963655f6f766572666c6f7760901b6044820152606401610ade565b612ab28284614378565b84511015612af65760405162461bcd60e51b8152602060048201526011602482015270736c6963655f6f75744f66426f756e647360781b6044820152606401610ade565b606082158015612b155760405191506000825260208201604052612b5f565b6040519150601f8416801560200281840101858101878315602002848b0101015b81831015612b4e578051835260209283019201612b36565b5050858452601f01601f1916604052505b50949350505050565b6000610cd3612b75612665565b8360405161190160f01b6020820152602281018390526042810182905260009060620160405160208183030381529060405280519060200120905092915050565b6000806000612bc78787878761339c565b91509150612bd48161345d565b5095945050505050565b6001600160a01b0381166000908152600b602052604090208054600181018255905b50919050565b82546000908190818115612c5357612c23876128486001856143ae565b60408051808201909152905463ffffffff8116825264010000000090046001600160e01b03166020820152612c68565b60408051808201909152600080825260208201525b905080602001516001600160e01b03169350612c8884868863ffffffff16565b9250600082118015612ca05750805163ffffffff1643145b15612ce557612cae836120ff565b612cbd886128486001866143ae565b80546001600160e01b03929092166401000000000263ffffffff909216919091179055612d50565b866040518060400160405280612cfa4361216c565b63ffffffff168152602001612d0e866120ff565b6001600160e01b0390811690915282546001810184556000938452602093849020835194909301519091166401000000000263ffffffff909316929092179101555b5050935093915050565b6122038383836121d1565b816001600160a01b0316836001600160a01b031614158015612d875750600081115b15612203576001600160a01b03831615612e15576001600160a01b0383166000908152600e602052604081208190612dc29061220885612c06565b91509150846001600160a01b03167fdec2bacdd2f05b59de34da9b523dff8be42e5e38e818c82fdb0bae774387a7248383604051612e0a929190918252602082015260400190565b60405180910390a250505b6001600160a01b03821615612203576001600160a01b0382166000908152600e602052604081208190612e4b906120f385612c06565b91509150836001600160a01b03167fdec2bacdd2f05b59de34da9b523dff8be42e5e38e818c82fdb0bae774387a7248383604051612e93929190918252602082015260400190565b60405180910390a25050505050565b6000606060008060008661ffff166001600160401b03811115612ec757612ec7613e9e565b6040519080825280601f01601f191660200182016040528015612ef1576020820181803683370190505b50905060008087516020890160008d8df191503d925086831115612f13578692505b828152826000602083013e9093509150505b94509492505050565b8180519060200120600460008761ffff1661ffff16815260200190815260200160002085604051612f5f9190614583565b9081526040805191829003602090810183206001600160401b0388166000908152915220919091557fe183f33de2837795525b4792ca4cd60535bd77c53b7e7030060bfcf5734d6b0c90612fbc908790879087908790879061459f565b60405180910390a15050505050565b600081612fda57506000919050565b60006001612fe7846135ab565b901c6001901b90506001818481613000576130006145fd565b048201901c90506001818481613018576130186145fd565b048201901c90506001818481613030576130306145fd565b048201901c90506001818481613048576130486145fd565b048201901c90506001818481613060576130606145fd565b048201901c90506001818481613078576130786145fd565b048201901c90506001818481613090576130906145fd565b048201901c9050610fff818285816130aa576130aa6145fd565b0461363f565b60006130bf6002848418614613565b610fff90848416614378565b60055460ff16156130e7576130e284848484613655565b612020565b8151156120205760405162461bcd60e51b815260206004820152602660248201527f4f4654436f72653a205f61646170746572506172616d73206d7573742062652060448201526532b6b83a3c9760d11b6064820152608401610ade565b6000336001600160a01b038616811461316357613163868285612440565b61316d8684613734565b5090949350505050565b61ffff8616600090815260016020526040812080546131959061424b565b80601f01602080910402602001604051908101604052809291908181526020018280546131c19061424b565b801561320e5780601f106131e35761010080835404028352916020019161320e565b820191906000526020600020905b8154815290600101906020018083116131f157829003601f168201915b505050505090508051600014156132805760405162461bcd60e51b815260206004820152603060248201527f4c7a4170703a2064657374696e6174696f6e20636861696e206973206e6f742060448201526f61207472757374656420736f7572636560801b6064820152608401610ade565b60405162c5803160e81b81526001600160a01b037f0000000000000000000000000000000000000000000000000000000000000000169063c58031009084906132d7908b9086908c908c908c908c90600401614635565b6000604051808303818588803b1580156132f057600080fd5b505af1158015613304573d6000803e3d6000fd5b505050505050505050505050565b60008082806020019051810190613329919061468f565b90935091506000905061333c838261373e565b90506133498782846137a3565b9150806001600160a01b03168761ffff167fbf551ec93859b170f9b2141bd9298bf3f64322c6f7beb2543a0cb669834118bf8460405161338b91815260200190565b60405180910390a350505050505050565b6000807f7fffffffffffffffffffffffffffffff5d576e7357a4501ddfe92f46681b20a08311156133d35750600090506003612f25565b6040805160008082526020820180845289905260ff881692820192909252606081018690526080810185905260019060a0016020604051602081039080840390855afa158015613427573d6000803e3d6000fd5b5050604051601f1901519150506001600160a01b03811661345057600060019250925050612f25565b9660009650945050505050565b6000816004811115613471576134716146e8565b141561347a5750565b600181600481111561348e5761348e6146e8565b14156134dc5760405162461bcd60e51b815260206004820152601860248201527f45434453413a20696e76616c6964207369676e617475726500000000000000006044820152606401610ade565b60028160048111156134f0576134f06146e8565b141561353e5760405162461bcd60e51b815260206004820152601f60248201527f45434453413a20696e76616c6964207369676e6174757265206c656e677468006044820152606401610ade565b6003816004811115613552576135526146e8565b14156111e75760405162461bcd60e51b815260206004820152602260248201527f45434453413a20696e76616c6964207369676e6174757265202773272076616c604482015261756560f01b6064820152608401610ade565b600080608083901c156135c057608092831c92015b604083901c156135d257604092831c92015b602083901c156135e457602092831c92015b601083901c156135f657601092831c92015b600883901c1561360857600892831c92015b600483901c1561361a57600492831c92015b600283901c1561362c57600292831c92015b600183901c15610cd35760010192915050565b600081831061364e5781610fff565b5090919050565b6000613660836137b6565b61ffff808716600090815260026020908152604080832093891683529290529081205491925090613692908490614378565b9050600081116136e45760405162461bcd60e51b815260206004820152601a60248201527f4c7a4170703a206d696e4761734c696d6974206e6f74207365740000000000006044820152606401610ade565b808210156112be5760405162461bcd60e51b815260206004820152601b60248201527f4c7a4170703a20676173206c696d697420697320746f6f206c6f7700000000006044820152606401610ade565b6120ef8282613812565b600061374b826014614378565b835110156137935760405162461bcd60e51b8152602060048201526015602482015274746f416464726573735f6f75744f66426f756e647360581b6044820152606401610ade565b500160200151600160601b900490565b60006137af838361382a565b5092915050565b600060228251101561380a5760405162461bcd60e51b815260206004820152601c60248201527f4c7a4170703a20696e76616c69642061646170746572506172616d73000000006044820152606401610ade565b506022015190565b61381c8282613834565b612020600f61220883612c06565b6120ef8282611f96565b6001600160a01b0382166138945760405162461bcd60e51b815260206004820152602160248201527f45524332303a206275726e2066726f6d20746865207a65726f206164647265736044820152607360f81b6064820152608401610ade565b6001600160a01b038216600090815260066020526040902054818110156139085760405162461bcd60e51b815260206004820152602260248201527f45524332303a206275726e20616d6f756e7420657863656564732062616c616e604482015261636560f01b6064820152608401610ade565b6001600160a01b03831660008181526006602090815260408083208686039055600880548790039055518581529192917fddf252ad1be2c89b69c2b068fc378daa952ba7f163c4a11628f55a4df523b3ef910160405180910390a361220383600084612d5a565b82805461397b9061424b565b90600052602060002090601f01602090048101928261399d57600085556139e3565b82601f106139b657805160ff19168380011785556139e3565b828001600101855582156139e3579182015b828111156139e35782518255916020019190600101906139c8565b50612168929150613a63565b8280546139fb9061424b565b90600052602060002090601f016020900481019282613a1d57600085556139e3565b82601f10613a365782800160ff198235161785556139e3565b828001600101855582156139e3579182015b828111156139e3578235825591602001919060010190613a48565b5b808211156121685760008155600101613a64565b61ffff811681146111e757600080fd5b60008083601f840112613a9a57600080fd5b5081356001600160401b03811115613ab157600080fd5b602083019150836020828501011115613ac957600080fd5b9250929050565b80356001600160401b0381168114613ae757600080fd5b919050565b60008060008060008060808789031215613b0557600080fd5b8635613b1081613a78565b955060208701356001600160401b0380821115613b2c57600080fd5b613b388a838b01613a88565b9097509550859150613b4c60408a01613ad0565b94506060890135915080821115613b6257600080fd5b50613b6f89828a01613a88565b979a9699509497509295939492505050565b600060208284031215613b9357600080fd5b81356001600160e01b031981168114610fff57600080fd5b60005b83811015613bc6578181015183820152602001613bae565b838111156120205750506000910152565b60008151808452613bef816020860160208601613bab565b601f01601f19169290920160200192915050565b602081526000610fff6020830184613bd7565b600060208284031215613c2857600080fd5b8135610fff81613a78565b6001600160a01b03811681146111e757600080fd5b60008060408385031215613c5b57600080fd5b8235613c6681613c33565b946020939093013593505050565b600080600060608486031215613c8957600080fd5b8335613c9481613c33565b92506020840135613ca481613c33565b929592945050506040919091013590565b80358015158114613ae757600080fd5b600080600080600080600060a0888a031215613ce057600080fd5b8735613ceb81613a78565b965060208801356001600160401b0380821115613d0757600080fd5b613d138b838c01613a88565b909850965060408a01359550869150613d2e60608b01613cb5565b945060808a0135915080821115613d4457600080fd5b50613d518a828b01613a88565b989b979a50959850939692959293505050565b600080600060408486031215613d7957600080fd5b8335613d8481613a78565b925060208401356001600160401b03811115613d9f57600080fd5b613dab86828701613a88565b9497909650939450505050565b600080600080600080600080600060e08a8c031215613dd657600080fd5b8935613de181613c33565b985060208a0135613df181613a78565b975060408a01356001600160401b0380821115613e0d57600080fd5b613e198d838e01613a88565b909950975060608c0135965060808c01359150613e3582613c33565b90945060a08b013590613e4782613c33565b90935060c08b01359080821115613e5d57600080fd5b50613e6a8c828d01613a88565b915080935050809150509295985092959850929598565b600060208284031215613e9357600080fd5b8135610fff81613c33565b634e487b7160e01b600052604160045260246000fd5b604051601f8201601f191681016001600160401b0381118282101715613edc57613edc613e9e565b604052919050565b60006001600160401b03821115613efd57613efd613e9e565b50601f01601f191660200190565b600080600060608486031215613f2057600080fd5b8335613f2b81613a78565b925060208401356001600160401b03811115613f4657600080fd5b8401601f81018613613f5757600080fd5b8035613f6a613f6582613ee4565b613eb4565b818152876020838501011115613f7f57600080fd5b81602084016020830137600060208383010152809450505050613fa460408501613ad0565b90509250925092565b60008060408385031215613fc057600080fd5b8235613fcb81613a78565b91506020830135613fdb81613a78565b809150509250929050565b600060208284031215613ff857600080fd5b5035919050565b803560ff81168114613ae757600080fd5b60008060008060008060c0878903121561402957600080fd5b863561403481613c33565b9550602087013594506040870135935061405060608801613fff565b92506080870135915060a087013590509295509295509295565b60008060008060006080868803121561408257600080fd5b853561408d81613a78565b9450602086013561409d81613a78565b93506040860135925060608601356001600160401b038111156140bf57600080fd5b6140cb88828901613a88565b969995985093965092949392505050565b600080600080600080600060e0888a0312156140f757600080fd5b873561410281613c33565b9650602088013561411281613c33565b9550604088013594506060880135935061412e60808901613fff565b925060a0880135915060c0880135905092959891949750929550565b6000806040838503121561415d57600080fd5b823561416881613c33565b91506020830135613fdb81613c33565b60008060006060848603121561418d57600080fd5b833561419881613a78565b92506020840135613ca481613a78565b6000602082840312156141ba57600080fd5b610fff82613cb5565b600080604083850312156141d657600080fd5b82356141e181613c33565b9150602083013563ffffffff81168114613fdb57600080fd5b6000806000806080858703121561421057600080fd5b843561421b81613a78565b9350602085013561422b81613a78565b9250604085013561423b81613c33565b9396929550929360600135925050565b600181811c9082168061425f57607f821691505b60208210811415612c0057634e487b7160e01b600052602260045260246000fd5b8183823760009101908152919050565b81835281816020850137506000828201602090810191909152601f909101601f19169091010190565b61ffff851681526060602082015260006142d7606083018587614290565b905082604083015295945050505050565b61ffff871681526001600160a01b038616602082015260a06040820181905260009061431690830187613bd7565b85151560608401528281036080840152614331818587614290565b9998505050505050505050565b6000806040838503121561435157600080fd5b505080516020909101519092909150565b634e487b7160e01b600052601160045260246000fd5b6000821982111561438b5761438b614362565b500190565b61ffff84168152604060208201526000611f8d604083018486614290565b6000828210156143c0576143c0614362565b500390565b634e487b7160e01b600052603260045260246000fd5b8284823760609190911b6bffffffffffffffffffffffff19169101908152601401919050565b600061ffff80881683528087166020840152508460408301526080606083015261442f608083018486614290565b979650505050505050565b61ffff86168152608060208201526000614458608083018688614290565b6001600160401b0394909416604083015250606001529392505050565b600082601f83011261448657600080fd5b8151614494613f6582613ee4565b8181528460208386010111156144a957600080fd5b6144ba826020830160208701613bab565b949350505050565b6000602082840312156144d457600080fd5b81516001600160401b038111156144ea57600080fd5b6144ba84828501614475565b61ffff851681526080602082015260006145136080830186613bd7565b6001600160401b0385166040840152828103606084015261442f8185613bd7565b61ffff841681526060602082015260006145516060830185613bd7565b9050826040830152949350505050565b6040815260006145746040830185613bd7565b90508260208301529392505050565b60008251614595818460208701613bab565b9190910192915050565b61ffff8616815260a0602082015260006145bc60a0830187613bd7565b6001600160401b038616604084015282810360608401526145dd8186613bd7565b905082810360808401526145f18185613bd7565b98975050505050505050565b634e487b7160e01b600052601260045260246000fd5b60008261463057634e487b7160e01b600052601260045260246000fd5b500490565b61ffff8716815260c06020820152600061465260c0830188613bd7565b82810360408401526146648188613bd7565b6001600160a01b0387811660608601528616608085015283810360a085015290506143318185613bd7565b6000806000606084860312156146a457600080fd5b83516146af81613a78565b60208501519093506001600160401b038111156146cb57600080fd5b6146d786828701614475565b925050604084015190509250925092565b634e487b7160e01b600052602160045260246000fdfea264697066735822122051c4c797469febc1ebe63e535b2a10c33817b0a749e418e0f3a4bef4e7392d0264736f6c634300080c0033dec2bacdd2f05b59de34da9b523dff8be42e5e38e818c82fdb0bae774387a724",
  "devdoc": {
    "kind": "dev",
    "methods": {
      "DOMAIN_SEPARATOR()": {
        "details": "See {IERC20Permit-DOMAIN_SEPARATOR}."
      },
      "allowance(address,address)": {
        "details": "See {IERC20-allowance}."
      },
      "approve(address,uint256)": {
        "details": "See {IERC20-approve}. NOTE: If `amount` is the maximum `uint256`, the allowance is not updated on `transferFrom`. This is semantically equivalent to an infinite approval. Requirements: - `spender` cannot be the zero address."
      },
      "balanceOf(address)": {
        "details": "See {IERC20-balanceOf}."
      },
      "checkpoints(address,uint32)": {
        "details": "Get the `pos`-th checkpoint for `account`."
      },
      "circulatingSupply()": {
        "details": "returns the circulating amount of tokens on current chain"
      },
      "decimals()": {
        "details": "Returns the number of decimals used to get its user representation. For example, if `decimals` equals `2`, a balance of `505` tokens should be displayed to a user as `5.05` (`505 / 10 ** 2`). Tokens usually opt for a value of 18, imitating the relationship between Ether and Wei. This is the value {ERC20} uses, unless this function is overridden; NOTE: This information is only used for _display_ purposes: it in no way affects any of the arithmetic of the contract, including {IERC20-balanceOf} and {IERC20-transfer}."
      },
      "decreaseAllowance(address,uint256)": {
        "details": "Atomically decreases the allowance granted to `spender` by the caller. This is an alternative to {approve} that can be used as a mitigation for problems described in {IERC20-approve}. Emits an {Approval} event indicating the updated allowance. Requirements: - `spender` cannot be the zero address. - `spender` must have allowance for the caller of at least `subtractedValue`."
      },
      "delegate(address)": {
        "details": "Delegate votes from the sender to `delegatee`."
      },
      "delegateBySig(address,uint256,uint256,uint8,bytes32,bytes32)": {
        "details": "Delegates votes from signer to `delegatee`"
      },
      "delegates(address)": {
        "details": "Get the address `account` is currently delegating to."
      },
      "estimateSendFee(uint16,bytes,uint256,bool,bytes)": {
        "details": "estimate send token `_tokenId` to (`_dstChainId`, `_toAddress`) _dstChainId - L0 defined chain id to send tokens too _toAddress - dynamic bytes array which contains the address to whom you are sending tokens to on the dstChain _amount - amount of the tokens to transfer _useZro - indicates to use zro to pay L0 fees _adapterParam - flexible bytes array to indicate messaging adapter services in L0"
      },
      "getPastTotalSupply(uint256)": {
        "details": "Retrieve the `totalSupply` at the end of `blockNumber`. Note, this value is the sum of all balances. It is but NOT the sum of all the delegated votes! Requirements: - `blockNumber` must have been already mined"
      },
      "getPastVotes(address,uint256)": {
        "details": "Retrieve the number of votes for `account` at the end of `blockNumber`. Requirements: - `blockNumber` must have been already mined"
      },
      "getVotes(address)": {
        "details": "Gets the current votes balance for `account`"
      },
      "increaseAllowance(address,uint256)": {
        "details": "Atomically increases the allowance granted to `spender` by the caller. This is an alternative to {approve} that can be used as a mitigation for problems described in {IERC20-approve}. Emits an {Approval} event indicating the updated allowance. Requirements: - `spender` cannot be the zero address."
      },
      "name()": {
        "details": "Returns the name of the token."
      },
      "nonces(address)": {
        "details": "See {IERC20Permit-nonces}."
      },
      "numCheckpoints(address)": {
        "details": "Get number of checkpoints for `account`."
      },
      "owner()": {
        "details": "Returns the address of the current owner."
      },
      "permit(address,address,uint256,uint256,uint8,bytes32,bytes32)": {
        "details": "See {IERC20Permit-permit}."
      },
      "renounceOwnership()": {
        "details": "Leaves the contract without owner. It will not be possible to call `onlyOwner` functions anymore. Can only be called by the current owner. NOTE: Renouncing ownership will leave the contract without an owner, thereby removing any functionality that is only available to the owner."
      },
      "sendFrom(address,uint16,bytes,uint256,address,address,bytes)": {
        "details": "send `_amount` amount of token to (`_dstChainId`, `_toAddress`) from `_from` `_from` the owner of token `_dstChainId` the destination chain identifier `_toAddress` can be any size depending on the `dstChainId`. `_amount` the quantity of tokens in wei `_refundAddress` the address LayerZero refunds if too much message fee is sent `_zroPaymentAddress` set to address(0x0) if not paying in ZRO (LayerZero Token) `_adapterParams` is a flexible bytes array to indicate messaging adapter services"
      },
      "symbol()": {
        "details": "Returns the symbol of the token, usually a shorter version of the name."
      },
      "token()": {
        "details": "returns the address of the ERC20 token"
      },
      "totalSupply()": {
        "details": "See {IERC20-totalSupply}."
      },
      "transfer(address,uint256)": {
        "details": "See {IERC20-transfer}. Requirements: - `to` cannot be the zero address. - the caller must have a balance of at least `amount`."
      },
      "transferFrom(address,address,uint256)": {
        "details": "See {IERC20-transferFrom}. Emits an {Approval} event indicating the updated allowance. This is not required by the EIP. See the note at the beginning of {ERC20}. NOTE: Does not update the allowance if the current allowance is the maximum `uint256`. Requirements: - `from` and `to` cannot be the zero address. - `from` must have a balance of at least `amount`. - the caller must have allowance for ``from``'s tokens of at least `amount`."
      },
      "transferOwnership(address)": {
        "details": "Transfers ownership of the contract to a new account (`newOwner`). Can only be called by the current owner."
      }
    },
    "version": 1
  },
  "userdoc": {
    "kind": "user",
    "methods": {},
    "version": 1
  },
  "storageLayout": {
    "storage": [
      {
        "astId": 7,
        "contract": "contracts/CrossChainDAOToken.sol:CrossChainDAOToken",
        "label": "_owner",
        "offset": 0,
        "slot": "0",
        "type": "t_address"
      },
      {
        "astId": 10405,
        "contract": "contracts/CrossChainDAOToken.sol:CrossChainDAOToken",
        "label": "trustedRemoteLookup",
        "offset": 0,
        "slot": "1",
        "type": "t_mapping(t_uint16,t_bytes_storage)"
      },
      {
        "astId": 10411,
        "contract": "contracts/CrossChainDAOToken.sol:CrossChainDAOToken",
        "label": "minDstGasLookup",
        "offset": 0,
        "slot": "2",
        "type": "t_mapping(t_uint16,t_mapping(t_uint16,t_uint256))"
      },
      {
        "astId": 10413,
        "contract": "contracts/CrossChainDAOToken.sol:CrossChainDAOToken",
        "label": "precrime",
        "offset": 0,
        "slot": "3",
        "type": "t_address"
      },
      {
        "astId": 10898,
        "contract": "contracts/CrossChainDAOToken.sol:CrossChainDAOToken",
        "label": "failedMessages",
        "offset": 0,
        "slot": "4",
        "type": "t_mapping(t_uint16,t_mapping(t_bytes_memory_ptr,t_mapping(t_uint64,t_bytes32)))"
      },
      {
        "astId": 11224,
        "contract": "contracts/CrossChainDAOToken.sol:CrossChainDAOToken",
        "label": "useCustomAdapterParams",
        "offset": 0,
        "slot": "5",
        "type": "t_bool"
      },
      {
        "astId": 2256,
        "contract": "contracts/CrossChainDAOToken.sol:CrossChainDAOToken",
        "label": "_balances",
        "offset": 0,
        "slot": "6",
        "type": "t_mapping(t_address,t_uint256)"
      },
      {
        "astId": 2262,
        "contract": "contracts/CrossChainDAOToken.sol:CrossChainDAOToken",
        "label": "_allowances",
        "offset": 0,
        "slot": "7",
        "type": "t_mapping(t_address,t_mapping(t_address,t_uint256))"
      },
      {
        "astId": 2264,
        "contract": "contracts/CrossChainDAOToken.sol:CrossChainDAOToken",
        "label": "_totalSupply",
        "offset": 0,
        "slot": "8",
        "type": "t_uint256"
      },
      {
        "astId": 2266,
        "contract": "contracts/CrossChainDAOToken.sol:CrossChainDAOToken",
        "label": "_name",
        "offset": 0,
        "slot": "9",
        "type": "t_string_storage"
      },
      {
        "astId": 2268,
        "contract": "contracts/CrossChainDAOToken.sol:CrossChainDAOToken",
        "label": "_symbol",
        "offset": 0,
        "slot": "10",
        "type": "t_string_storage"
      },
      {
        "astId": 3650,
        "contract": "contracts/CrossChainDAOToken.sol:CrossChainDAOToken",
        "label": "_nonces",
        "offset": 0,
        "slot": "11",
        "type": "t_mapping(t_address,t_struct(Counter)5579_storage)"
      },
      {
        "astId": 3658,
        "contract": "contracts/CrossChainDAOToken.sol:CrossChainDAOToken",
        "label": "_PERMIT_TYPEHASH_DEPRECATED_SLOT",
        "offset": 0,
        "slot": "12",
        "type": "t_bytes32"
      },
      {
        "astId": 2931,
        "contract": "contracts/CrossChainDAOToken.sol:CrossChainDAOToken",
        "label": "_delegates",
        "offset": 0,
        "slot": "13",
        "type": "t_mapping(t_address,t_address)"
      },
      {
        "astId": 2937,
        "contract": "contracts/CrossChainDAOToken.sol:CrossChainDAOToken",
        "label": "_checkpoints",
        "offset": 0,
        "slot": "14",
        "type": "t_mapping(t_address,t_array(t_struct(Checkpoint)2922_storage)dyn_storage)"
      },
      {
        "astId": 2941,
        "contract": "contracts/CrossChainDAOToken.sol:CrossChainDAOToken",
        "label": "_totalSupplyCheckpoints",
        "offset": 0,
        "slot": "15",
        "type": "t_array(t_struct(Checkpoint)2922_storage)dyn_storage"
      }
    ],
    "types": {
      "t_address": {
        "encoding": "inplace",
        "label": "address",
        "numberOfBytes": "20"
      },
      "t_array(t_struct(Checkpoint)2922_storage)dyn_storage": {
        "base": "t_struct(Checkpoint)2922_storage",
        "encoding": "dynamic_array",
        "label": "struct ERC20Votes.Checkpoint[]",
        "numberOfBytes": "32"
      },
      "t_bool": {
        "encoding": "inplace",
        "label": "bool",
        "numberOfBytes": "1"
      },
      "t_bytes32": {
        "encoding": "inplace",
        "label": "bytes32",
        "numberOfBytes": "32"
      },
      "t_bytes_memory_ptr": {
        "encoding": "bytes",
        "label": "bytes",
        "numberOfBytes": "32"
      },
      "t_bytes_storage": {
        "encoding": "bytes",
        "label": "bytes",
        "numberOfBytes": "32"
      },
      "t_mapping(t_address,t_address)": {
        "encoding": "mapping",
        "key": "t_address",
        "label": "mapping(address => address)",
        "numberOfBytes": "32",
        "value": "t_address"
      },
      "t_mapping(t_address,t_array(t_struct(Checkpoint)2922_storage)dyn_storage)": {
        "encoding": "mapping",
        "key": "t_address",
        "label": "mapping(address => struct ERC20Votes.Checkpoint[])",
        "numberOfBytes": "32",
        "value": "t_array(t_struct(Checkpoint)2922_storage)dyn_storage"
      },
      "t_mapping(t_address,t_mapping(t_address,t_uint256))": {
        "encoding": "mapping",
        "key": "t_address",
        "label": "mapping(address => mapping(address => uint256))",
        "numberOfBytes": "32",
        "value": "t_mapping(t_address,t_uint256)"
      },
      "t_mapping(t_address,t_struct(Counter)5579_storage)": {
        "encoding": "mapping",
        "key": "t_address",
        "label": "mapping(address => struct Counters.Counter)",
        "numberOfBytes": "32",
        "value": "t_struct(Counter)5579_storage"
      },
      "t_mapping(t_address,t_uint256)": {
        "encoding": "mapping",
        "key": "t_address",
        "label": "mapping(address => uint256)",
        "numberOfBytes": "32",
        "value": "t_uint256"
      },
      "t_mapping(t_bytes_memory_ptr,t_mapping(t_uint64,t_bytes32))": {
        "encoding": "mapping",
        "key": "t_bytes_memory_ptr",
        "label": "mapping(bytes => mapping(uint64 => bytes32))",
        "numberOfBytes": "32",
        "value": "t_mapping(t_uint64,t_bytes32)"
      },
      "t_mapping(t_uint16,t_bytes_storage)": {
        "encoding": "mapping",
        "key": "t_uint16",
        "label": "mapping(uint16 => bytes)",
        "numberOfBytes": "32",
        "value": "t_bytes_storage"
      },
      "t_mapping(t_uint16,t_mapping(t_bytes_memory_ptr,t_mapping(t_uint64,t_bytes32)))": {
        "encoding": "mapping",
        "key": "t_uint16",
        "label": "mapping(uint16 => mapping(bytes => mapping(uint64 => bytes32)))",
        "numberOfBytes": "32",
        "value": "t_mapping(t_bytes_memory_ptr,t_mapping(t_uint64,t_bytes32))"
      },
      "t_mapping(t_uint16,t_mapping(t_uint16,t_uint256))": {
        "encoding": "mapping",
        "key": "t_uint16",
        "label": "mapping(uint16 => mapping(uint16 => uint256))",
        "numberOfBytes": "32",
        "value": "t_mapping(t_uint16,t_uint256)"
      },
      "t_mapping(t_uint16,t_uint256)": {
        "encoding": "mapping",
        "key": "t_uint16",
        "label": "mapping(uint16 => uint256)",
        "numberOfBytes": "32",
        "value": "t_uint256"
      },
      "t_mapping(t_uint64,t_bytes32)": {
        "encoding": "mapping",
        "key": "t_uint64",
        "label": "mapping(uint64 => bytes32)",
        "numberOfBytes": "32",
        "value": "t_bytes32"
      },
      "t_string_storage": {
        "encoding": "bytes",
        "label": "string",
        "numberOfBytes": "32"
      },
      "t_struct(Checkpoint)2922_storage": {
        "encoding": "inplace",
        "label": "struct ERC20Votes.Checkpoint",
        "members": [
          {
            "astId": 2919,
            "contract": "contracts/CrossChainDAOToken.sol:CrossChainDAOToken",
            "label": "fromBlock",
            "offset": 0,
            "slot": "0",
            "type": "t_uint32"
          },
          {
            "astId": 2921,
            "contract": "contracts/CrossChainDAOToken.sol:CrossChainDAOToken",
            "label": "votes",
            "offset": 4,
            "slot": "0",
            "type": "t_uint224"
          }
        ],
        "numberOfBytes": "32"
      },
      "t_struct(Counter)5579_storage": {
        "encoding": "inplace",
        "label": "struct Counters.Counter",
        "members": [
          {
            "astId": 5578,
            "contract": "contracts/CrossChainDAOToken.sol:CrossChainDAOToken",
            "label": "_value",
            "offset": 0,
            "slot": "0",
            "type": "t_uint256"
          }
        ],
        "numberOfBytes": "32"
      },
      "t_uint16": {
        "encoding": "inplace",
        "label": "uint16",
        "numberOfBytes": "2"
      },
      "t_uint224": {
        "encoding": "inplace",
        "label": "uint224",
        "numberOfBytes": "28"
      },
      "t_uint256": {
        "encoding": "inplace",
        "label": "uint256",
        "numberOfBytes": "32"
      },
      "t_uint32": {
        "encoding": "inplace",
        "label": "uint32",
        "numberOfBytes": "4"
      },
      "t_uint64": {
        "encoding": "inplace",
        "label": "uint64",
        "numberOfBytes": "8"
      }
    }
  }
}