{
  "address": "0xfE5D3c52F7ee9aa32a69b96Bfbb088Ba0bCd8EfC",
  "abi": [
    {
      "inputs": [
        {
          "internalType": "contract IVotes",
          "name": "_token",
          "type": "address"
        },
        {
          "internalType": "address",
          "name": "lzEndpoint",
          "type": "address"
        },
        {
          "internalType": "uint16[]",
          "name": "_spokeChains",
          "type": "uint16[]"
        }
      ],
      "stateMutability": "nonpayable",
      "type": "constructor"
    },
    {
      "inputs": [],
      "name": "Empty",
      "type": "error"
    },
    {
      "anonymous": false,
      "inputs": [
        {
          "indexed": false,
          "internalType": "uint16",
          "name": "_srcChainId",
          "type": "uint16"
        },
        {
          "indexed": false,
          "internalType": "bytes",
          "name": "_srcAddress",
          "type": "bytes"
        },
        {
          "indexed": false,
          "internalType": "uint64",
          "name": "_nonce",
          "type": "uint64"
        },
        {
          "indexed": false,
          "internalType": "bytes",
          "name": "_payload",
          "type": "bytes"
        },
        {
          "indexed": false,
          "internalType": "bytes",
          "name": "_reason",
          "type": "bytes"
        }
      ],
      "name": "MessageFailed",
      "type": "event"
    },
    {
      "anonymous": false,
      "inputs": [
        {
          "indexed": true,
          "internalType": "address",
          "name": "previousOwner",
          "type": "address"
        },
        {
          "indexed": true,
          "internalType": "address",
          "name": "newOwner",
          "type": "address"
        }
      ],
      "name": "OwnershipTransferred",
      "type": "event"
    },
    {
      "anonymous": false,
      "inputs": [
        {
          "indexed": false,
          "internalType": "uint256",
          "name": "proposalId",
          "type": "uint256"
        }
      ],
      "name": "ProposalCanceled",
      "type": "event"
    },
    {
      "anonymous": false,
      "inputs": [
        {
          "indexed": false,
          "internalType": "uint256",
          "name": "proposalId",
          "type": "uint256"
        },
        {
          "indexed": false,
          "internalType": "address",
          "name": "proposer",
          "type": "address"
        },
        {
          "indexed": false,
          "internalType": "address[]",
          "name": "targets",
          "type": "address[]"
        },
        {
          "indexed": false,
          "internalType": "uint256[]",
          "name": "values",
          "type": "uint256[]"
        },
        {
          "indexed": false,
          "internalType": "string[]",
          "name": "signatures",
          "type": "string[]"
        },
        {
          "indexed": false,
          "internalType": "bytes[]",
          "name": "calldatas",
          "type": "bytes[]"
        },
        {
          "indexed": false,
          "internalType": "uint256",
          "name": "startBlock",
          "type": "uint256"
        },
        {
          "indexed": false,
          "internalType": "uint256",
          "name": "endBlock",
          "type": "uint256"
        },
        {
          "indexed": false,
          "internalType": "string",
          "name": "description",
          "type": "string"
        }
      ],
      "name": "ProposalCreated",
      "type": "event"
    },
    {
      "anonymous": false,
      "inputs": [
        {
          "indexed": false,
          "internalType": "uint256",
          "name": "proposalId",
          "type": "uint256"
        }
      ],
      "name": "ProposalExecuted",
      "type": "event"
    },
    {
      "anonymous": false,
      "inputs": [
        {
          "indexed": false,
          "internalType": "uint256",
          "name": "oldProposalThreshold",
          "type": "uint256"
        },
        {
          "indexed": false,
          "internalType": "uint256",
          "name": "newProposalThreshold",
          "type": "uint256"
        }
      ],
      "name": "ProposalThresholdSet",
      "type": "event"
    },
    {
      "anonymous": false,
      "inputs": [
        {
          "indexed": false,
          "internalType": "uint256",
          "name": "oldQuorumNumerator",
          "type": "uint256"
        },
        {
          "indexed": false,
          "internalType": "uint256",
          "name": "newQuorumNumerator",
          "type": "uint256"
        }
      ],
      "name": "QuorumNumeratorUpdated",
      "type": "event"
    },
    {
      "anonymous": false,
      "inputs": [
        {
          "indexed": false,
          "internalType": "uint16",
          "name": "_srcChainId",
          "type": "uint16"
        },
        {
          "indexed": false,
          "internalType": "bytes",
          "name": "_srcAddress",
          "type": "bytes"
        },
        {
          "indexed": false,
          "internalType": "uint64",
          "name": "_nonce",
          "type": "uint64"
        },
        {
          "indexed": false,
          "internalType": "bytes32",
          "name": "_payloadHash",
          "type": "bytes32"
        }
      ],
      "name": "RetryMessageSuccess",
      "type": "event"
    },
    {
      "anonymous": false,
      "inputs": [
        {
          "indexed": false,
          "internalType": "uint16",
          "name": "_dstChainId",
          "type": "uint16"
        },
        {
          "indexed": false,
          "internalType": "uint16",
          "name": "_type",
          "type": "uint16"
        },
        {
          "indexed": false,
          "internalType": "uint256",
          "name": "_minDstGas",
          "type": "uint256"
        }
      ],
      "name": "SetMinDstGas",
      "type": "event"
    },
    {
      "anonymous": false,
      "inputs": [
        {
          "indexed": false,
          "internalType": "address",
          "name": "precrime",
          "type": "address"
        }
      ],
      "name": "SetPrecrime",
      "type": "event"
    },
    {
      "anonymous": false,
      "inputs": [
        {
          "indexed": false,
          "internalType": "uint16",
          "name": "_remoteChainId",
          "type": "uint16"
        },
        {
          "indexed": false,
          "internalType": "bytes",
          "name": "_path",
          "type": "bytes"
        }
      ],
      "name": "SetTrustedRemote",
      "type": "event"
    },
    {
      "anonymous": false,
      "inputs": [
        {
          "indexed": false,
          "internalType": "uint16",
          "name": "_remoteChainId",
          "type": "uint16"
        },
        {
          "indexed": false,
          "internalType": "bytes",
          "name": "_remoteAddress",
          "type": "bytes"
        }
      ],
      "name": "SetTrustedRemoteAddress",
      "type": "event"
    },
    {
      "anonymous": false,
      "inputs": [
        {
          "indexed": true,
          "internalType": "address",
          "name": "voter",
          "type": "address"
        },
        {
          "indexed": false,
          "internalType": "uint256",
          "name": "proposalId",
          "type": "uint256"
        },
        {
          "indexed": false,
          "internalType": "uint8",
          "name": "support",
          "type": "uint8"
        },
        {
          "indexed": false,
          "internalType": "uint256",
          "name": "weight",
          "type": "uint256"
        },
        {
          "indexed": false,
          "internalType": "string",
          "name": "reason",
          "type": "string"
        }
      ],
      "name": "VoteCast",
      "type": "event"
    },
    {
      "anonymous": false,
      "inputs": [
        {
          "indexed": true,
          "internalType": "address",
          "name": "voter",
          "type": "address"
        },
        {
          "indexed": false,
          "internalType": "uint256",
          "name": "proposalId",
          "type": "uint256"
        },
        {
          "indexed": false,
          "internalType": "uint8",
          "name": "support",
          "type": "uint8"
        },
        {
          "indexed": false,
          "internalType": "uint256",
          "name": "weight",
          "type": "uint256"
        },
        {
          "indexed": false,
          "internalType": "string",
          "name": "reason",
          "type": "string"
        },
        {
          "indexed": false,
          "internalType": "bytes",
          "name": "params",
          "type": "bytes"
        }
      ],
      "name": "VoteCastWithParams",
      "type": "event"
    },
    {
      "anonymous": false,
      "inputs": [
        {
          "indexed": false,
          "internalType": "uint256",
          "name": "oldVotingDelay",
          "type": "uint256"
        },
        {
          "indexed": false,
          "internalType": "uint256",
          "name": "newVotingDelay",
          "type": "uint256"
        }
      ],
      "name": "VotingDelaySet",
      "type": "event"
    },
    {
      "anonymous": false,
      "inputs": [
        {
          "indexed": false,
          "internalType": "uint256",
          "name": "oldVotingPeriod",
          "type": "uint256"
        },
        {
          "indexed": false,
          "internalType": "uint256",
          "name": "newVotingPeriod",
          "type": "uint256"
        }
      ],
      "name": "VotingPeriodSet",
      "type": "event"
    },
    {
      "inputs": [],
      "name": "BALLOT_TYPEHASH",
      "outputs": [
        {
          "internalType": "bytes32",
          "name": "",
          "type": "bytes32"
        }
      ],
      "stateMutability": "view",
      "type": "function"
    },
    {
      "inputs": [],
      "name": "COUNTING_MODE",
      "outputs": [
        {
          "internalType": "string",
          "name": "",
          "type": "string"
        }
      ],
      "stateMutability": "pure",
      "type": "function"
    },
    {
      "inputs": [],
      "name": "EXTENDED_BALLOT_TYPEHASH",
      "outputs": [
        {
          "internalType": "bytes32",
          "name": "",
          "type": "bytes32"
        }
      ],
      "stateMutability": "view",
      "type": "function"
    },
    {
      "inputs": [
        {
          "internalType": "uint256",
          "name": "proposalId",
          "type": "uint256"
        },
        {
          "internalType": "uint8",
          "name": "support",
          "type": "uint8"
        }
      ],
      "name": "castVote",
      "outputs": [
        {
          "internalType": "uint256",
          "name": "",
          "type": "uint256"
        }
      ],
      "stateMutability": "nonpayable",
      "type": "function"
    },
    {
      "inputs": [
        {
          "internalType": "uint256",
          "name": "proposalId",
          "type": "uint256"
        },
        {
          "internalType": "uint8",
          "name": "support",
          "type": "uint8"
        },
        {
          "internalType": "uint8",
          "name": "v",
          "type": "uint8"
        },
        {
          "internalType": "bytes32",
          "name": "r",
          "type": "bytes32"
        },
        {
          "internalType": "bytes32",
          "name": "s",
          "type": "bytes32"
        }
      ],
      "name": "castVoteBySig",
      "outputs": [
        {
          "internalType": "uint256",
          "name": "",
          "type": "uint256"
        }
      ],
      "stateMutability": "nonpayable",
      "type": "function"
    },
    {
      "inputs": [
        {
          "internalType": "uint256",
          "name": "proposalId",
          "type": "uint256"
        },
        {
          "internalType": "uint8",
          "name": "support",
          "type": "uint8"
        },
        {
          "internalType": "string",
          "name": "reason",
          "type": "string"
        }
      ],
      "name": "castVoteWithReason",
      "outputs": [
        {
          "internalType": "uint256",
          "name": "",
          "type": "uint256"
        }
      ],
      "stateMutability": "nonpayable",
      "type": "function"
    },
    {
      "inputs": [
        {
          "internalType": "uint256",
          "name": "proposalId",
          "type": "uint256"
        },
        {
          "internalType": "uint8",
          "name": "support",
          "type": "uint8"
        },
        {
          "internalType": "string",
          "name": "reason",
          "type": "string"
        },
        {
          "internalType": "bytes",
          "name": "params",
          "type": "bytes"
        }
      ],
      "name": "castVoteWithReasonAndParams",
      "outputs": [
        {
          "internalType": "uint256",
          "name": "",
          "type": "uint256"
        }
      ],
      "stateMutability": "nonpayable",
      "type": "function"
    },
    {
      "inputs": [
        {
          "internalType": "uint256",
          "name": "proposalId",
          "type": "uint256"
        },
        {
          "internalType": "uint8",
          "name": "support",
          "type": "uint8"
        },
        {
          "internalType": "string",
          "name": "reason",
          "type": "string"
        },
        {
          "internalType": "bytes",
          "name": "params",
          "type": "bytes"
        },
        {
          "internalType": "uint8",
          "name": "v",
          "type": "uint8"
        },
        {
          "internalType": "bytes32",
          "name": "r",
          "type": "bytes32"
        },
        {
          "internalType": "bytes32",
          "name": "s",
          "type": "bytes32"
        }
      ],
      "name": "castVoteWithReasonAndParamsBySig",
      "outputs": [
        {
          "internalType": "uint256",
          "name": "",
          "type": "uint256"
        }
      ],
      "stateMutability": "nonpayable",
      "type": "function"
    },
    {
      "inputs": [
        {
          "internalType": "uint16",
          "name": "chainId",
          "type": "uint16"
        },
        {
          "internalType": "uint256",
          "name": "blockNum",
          "type": "uint256"
        }
      ],
      "name": "convertBlocks",
      "outputs": [
        {
          "internalType": "uint256",
          "name": "",
          "type": "uint256"
        }
      ],
      "stateMutability": "view",
      "type": "function"
    },
    {
      "inputs": [
        {
          "internalType": "address[]",
          "name": "targets",
          "type": "address[]"
        },
        {
          "internalType": "uint256[]",
          "name": "values",
          "type": "uint256[]"
        },
        {
          "internalType": "bytes[]",
          "name": "calldatas",
          "type": "bytes[]"
        },
        {
          "internalType": "bytes32",
          "name": "descriptionHash",
          "type": "bytes32"
        }
      ],
      "name": "execute",
      "outputs": [
        {
          "internalType": "uint256",
          "name": "",
          "type": "uint256"
        }
      ],
      "stateMutability": "payable",
      "type": "function"
    },
    {
      "inputs": [
        {
          "internalType": "uint16",
          "name": "",
          "type": "uint16"
        },
        {
          "internalType": "bytes",
          "name": "",
          "type": "bytes"
        },
        {
          "internalType": "uint64",
          "name": "",
          "type": "uint64"
        }
      ],
      "name": "failedMessages",
      "outputs": [
        {
          "internalType": "bytes32",
          "name": "",
          "type": "bytes32"
        }
      ],
      "stateMutability": "view",
      "type": "function"
    },
    {
      "inputs": [
        {
          "internalType": "uint256",
          "name": "proposalId",
          "type": "uint256"
        }
      ],
      "name": "finishCollectionPhase",
      "outputs": [],
      "stateMutability": "nonpayable",
      "type": "function"
    },
    {
      "inputs": [
        {
          "internalType": "uint16",
          "name": "_srcChainId",
          "type": "uint16"
        },
        {
          "internalType": "bytes",
          "name": "_srcAddress",
          "type": "bytes"
        }
      ],
      "name": "forceResumeReceive",
      "outputs": [],
      "stateMutability": "nonpayable",
      "type": "function"
    },
    {
      "inputs": [
        {
          "internalType": "uint16",
          "name": "_version",
          "type": "uint16"
        },
        {
          "internalType": "uint16",
          "name": "_chainId",
          "type": "uint16"
        },
        {
          "internalType": "address",
          "name": "",
          "type": "address"
        },
        {
          "internalType": "uint256",
          "name": "_configType",
          "type": "uint256"
        }
      ],
      "name": "getConfig",
      "outputs": [
        {
          "internalType": "bytes",
          "name": "",
          "type": "bytes"
        }
      ],
      "stateMutability": "view",
      "type": "function"
    },
    {
      "inputs": [
        {
          "internalType": "uint16",
          "name": "_remoteChainId",
          "type": "uint16"
        }
      ],
      "name": "getTrustedRemoteAddress",
      "outputs": [
        {
          "internalType": "bytes",
          "name": "",
          "type": "bytes"
        }
      ],
      "stateMutability": "view",
      "type": "function"
    },
    {
      "inputs": [
        {
          "internalType": "address",
          "name": "account",
          "type": "address"
        },
        {
          "internalType": "uint256",
          "name": "blockNumber",
          "type": "uint256"
        }
      ],
      "name": "getVotes",
      "outputs": [
        {
          "internalType": "uint256",
          "name": "",
          "type": "uint256"
        }
      ],
      "stateMutability": "view",
      "type": "function"
    },
    {
      "inputs": [
        {
          "internalType": "address",
          "name": "account",
          "type": "address"
        },
        {
          "internalType": "uint256",
          "name": "blockNumber",
          "type": "uint256"
        },
        {
          "internalType": "bytes",
          "name": "params",
          "type": "bytes"
        }
      ],
      "name": "getVotesWithParams",
      "outputs": [
        {
          "internalType": "uint256",
          "name": "",
          "type": "uint256"
        }
      ],
      "stateMutability": "view",
      "type": "function"
    },
    {
      "inputs": [
        {
          "internalType": "uint256",
          "name": "proposalId",
          "type": "uint256"
        },
        {
          "internalType": "address",
          "name": "account",
          "type": "address"
        }
      ],
      "name": "hasVoted",
      "outputs": [
        {
          "internalType": "bool",
          "name": "",
          "type": "bool"
        }
      ],
      "stateMutability": "view",
      "type": "function"
    },
    {
      "inputs": [
        {
          "internalType": "address[]",
          "name": "targets",
          "type": "address[]"
        },
        {
          "internalType": "uint256[]",
          "name": "values",
          "type": "uint256[]"
        },
        {
          "internalType": "bytes[]",
          "name": "calldatas",
          "type": "bytes[]"
        },
        {
          "internalType": "bytes32",
          "name": "descriptionHash",
          "type": "bytes32"
        }
      ],
      "name": "hashProposal",
      "outputs": [
        {
          "internalType": "uint256",
          "name": "",
          "type": "uint256"
        }
      ],
      "stateMutability": "pure",
      "type": "function"
    },
    {
      "inputs": [
        {
          "internalType": "uint16",
          "name": "_srcChainId",
          "type": "uint16"
        },
        {
          "internalType": "bytes",
          "name": "_srcAddress",
          "type": "bytes"
        }
      ],
      "name": "isTrustedRemote",
      "outputs": [
        {
          "internalType": "bool",
          "name": "",
          "type": "bool"
        }
      ],
      "stateMutability": "view",
      "type": "function"
    },
    {
      "inputs": [],
      "name": "lzEndpoint",
      "outputs": [
        {
          "internalType": "contract ILayerZeroEndpoint",
          "name": "",
          "type": "address"
        }
      ],
      "stateMutability": "view",
      "type": "function"
    },
    {
      "inputs": [
        {
          "internalType": "uint16",
          "name": "_srcChainId",
          "type": "uint16"
        },
        {
          "internalType": "bytes",
          "name": "_srcAddress",
          "type": "bytes"
        },
        {
          "internalType": "uint64",
          "name": "_nonce",
          "type": "uint64"
        },
        {
          "internalType": "bytes",
          "name": "_payload",
          "type": "bytes"
        }
      ],
      "name": "lzReceive",
      "outputs": [],
      "stateMutability": "nonpayable",
      "type": "function"
    },
    {
      "inputs": [
        {
          "internalType": "uint16",
          "name": "",
          "type": "uint16"
        },
        {
          "internalType": "uint16",
          "name": "",
          "type": "uint16"
        }
      ],
      "name": "minDstGasLookup",
      "outputs": [
        {
          "internalType": "uint256",
          "name": "",
          "type": "uint256"
        }
      ],
      "stateMutability": "view",
      "type": "function"
    },
    {
      "inputs": [],
      "name": "name",
      "outputs": [
        {
          "internalType": "string",
          "name": "",
          "type": "string"
        }
      ],
      "stateMutability": "view",
      "type": "function"
    },
    {
      "inputs": [
        {
          "internalType": "uint16",
          "name": "_srcChainId",
          "type": "uint16"
        },
        {
          "internalType": "bytes",
          "name": "_srcAddress",
          "type": "bytes"
        },
        {
          "internalType": "uint64",
          "name": "_nonce",
          "type": "uint64"
        },
        {
          "internalType": "bytes",
          "name": "_payload",
          "type": "bytes"
        }
      ],
      "name": "nonblockingLzReceive",
      "outputs": [],
      "stateMutability": "nonpayable",
      "type": "function"
    },
    {
      "inputs": [
        {
          "internalType": "address",
          "name": "",
          "type": "address"
        },
        {
          "internalType": "address",
          "name": "",
          "type": "address"
        },
        {
          "internalType": "uint256[]",
          "name": "",
          "type": "uint256[]"
        },
        {
          "internalType": "uint256[]",
          "name": "",
          "type": "uint256[]"
        },
        {
          "internalType": "bytes",
          "name": "",
          "type": "bytes"
        }
      ],
      "name": "onERC1155BatchReceived",
      "outputs": [
        {
          "internalType": "bytes4",
          "name": "",
          "type": "bytes4"
        }
      ],
      "stateMutability": "nonpayable",
      "type": "function"
    },
    {
      "inputs": [
        {
          "internalType": "address",
          "name": "",
          "type": "address"
        },
        {
          "internalType": "address",
          "name": "",
          "type": "address"
        },
        {
          "internalType": "uint256",
          "name": "",
          "type": "uint256"
        },
        {
          "internalType": "uint256",
          "name": "",
          "type": "uint256"
        },
        {
          "internalType": "bytes",
          "name": "",
          "type": "bytes"
        }
      ],
      "name": "onERC1155Received",
      "outputs": [
        {
          "internalType": "bytes4",
          "name": "",
          "type": "bytes4"
        }
      ],
      "stateMutability": "nonpayable",
      "type": "function"
    },
    {
      "inputs": [
        {
          "internalType": "address",
          "name": "",
          "type": "address"
        },
        {
          "internalType": "address",
          "name": "",
          "type": "address"
        },
        {
          "internalType": "uint256",
          "name": "",
          "type": "uint256"
        },
        {
          "internalType": "bytes",
          "name": "",
          "type": "bytes"
        }
      ],
      "name": "onERC721Received",
      "outputs": [
        {
          "internalType": "bytes4",
          "name": "",
          "type": "bytes4"
        }
      ],
      "stateMutability": "nonpayable",
      "type": "function"
    },
    {
      "inputs": [],
      "name": "owner",
      "outputs": [
        {
          "internalType": "address",
          "name": "",
          "type": "address"
        }
      ],
      "stateMutability": "view",
      "type": "function"
    },
    {
      "inputs": [],
      "name": "precrime",
      "outputs": [
        {
          "internalType": "address",
          "name": "",
          "type": "address"
        }
      ],
      "stateMutability": "view",
      "type": "function"
    },
    {
      "inputs": [
        {
          "internalType": "uint256",
          "name": "proposalId",
          "type": "uint256"
        }
      ],
      "name": "proposalDeadline",
      "outputs": [
        {
          "internalType": "uint256",
          "name": "",
          "type": "uint256"
        }
      ],
      "stateMutability": "view",
      "type": "function"
    },
    {
      "inputs": [
        {
          "internalType": "uint256",
          "name": "proposalId",
          "type": "uint256"
        }
      ],
      "name": "proposalSnapshot",
      "outputs": [
        {
          "internalType": "uint256",
          "name": "",
          "type": "uint256"
        }
      ],
      "stateMutability": "view",
      "type": "function"
    },
    {
      "inputs": [],
      "name": "proposalThreshold",
      "outputs": [
        {
          "internalType": "uint256",
          "name": "",
          "type": "uint256"
        }
      ],
      "stateMutability": "view",
      "type": "function"
    },
    {
      "inputs": [
        {
          "internalType": "uint256",
          "name": "proposalId",
          "type": "uint256"
        }
      ],
      "name": "proposalVotes",
      "outputs": [
        {
          "internalType": "uint256",
          "name": "againstVotes",
          "type": "uint256"
        },
        {
          "internalType": "uint256",
          "name": "forVotes",
          "type": "uint256"
        },
        {
          "internalType": "uint256",
          "name": "abstainVotes",
          "type": "uint256"
        }
      ],
      "stateMutability": "view",
      "type": "function"
    },
    {
      "inputs": [
        {
          "internalType": "address[]",
          "name": "targets",
          "type": "address[]"
        },
        {
          "internalType": "uint256[]",
          "name": "values",
          "type": "uint256[]"
        },
        {
          "internalType": "bytes[]",
          "name": "calldatas",
          "type": "bytes[]"
        },
        {
          "internalType": "string",
          "name": "description",
          "type": "string"
        }
      ],
      "name": "propose",
      "outputs": [
        {
          "internalType": "uint256",
          "name": "",
          "type": "uint256"
        }
      ],
      "stateMutability": "nonpayable",
      "type": "function"
    },
    {
      "inputs": [
        {
          "internalType": "uint256",
          "name": "blockNumber",
          "type": "uint256"
        }
      ],
      "name": "quorum",
      "outputs": [
        {
          "internalType": "uint256",
          "name": "",
          "type": "uint256"
        }
      ],
      "stateMutability": "view",
      "type": "function"
    },
    {
      "inputs": [],
      "name": "quorumDenominator",
      "outputs": [
        {
          "internalType": "uint256",
          "name": "",
          "type": "uint256"
        }
      ],
      "stateMutability": "view",
      "type": "function"
    },
    {
      "inputs": [
        {
          "internalType": "uint256",
          "name": "blockNumber",
          "type": "uint256"
        }
      ],
      "name": "quorumNumerator",
      "outputs": [
        {
          "internalType": "uint256",
          "name": "",
          "type": "uint256"
        }
      ],
      "stateMutability": "view",
      "type": "function"
    },
    {
      "inputs": [],
      "name": "quorumNumerator",
      "outputs": [
        {
          "internalType": "uint256",
          "name": "",
          "type": "uint256"
        }
      ],
      "stateMutability": "view",
      "type": "function"
    },
    {
      "inputs": [
        {
          "internalType": "address",
          "name": "target",
          "type": "address"
        },
        {
          "internalType": "uint256",
          "name": "value",
          "type": "uint256"
        },
        {
          "internalType": "bytes",
          "name": "data",
          "type": "bytes"
        }
      ],
      "name": "relay",
      "outputs": [],
      "stateMutability": "payable",
      "type": "function"
    },
    {
      "inputs": [],
      "name": "renounceOwnership",
      "outputs": [],
      "stateMutability": "nonpayable",
      "type": "function"
    },
    {
      "inputs": [
        {
          "internalType": "uint256",
          "name": "proposalId",
          "type": "uint256"
        }
      ],
      "name": "requestCollections",
      "outputs": [],
      "stateMutability": "payable",
      "type": "function"
    },
    {
      "inputs": [
        {
          "internalType": "uint16",
          "name": "_srcChainId",
          "type": "uint16"
        },
        {
          "internalType": "bytes",
          "name": "_srcAddress",
          "type": "bytes"
        },
        {
          "internalType": "uint64",
          "name": "_nonce",
          "type": "uint64"
        },
        {
          "internalType": "bytes",
          "name": "_payload",
          "type": "bytes"
        }
      ],
      "name": "retryMessage",
      "outputs": [],
      "stateMutability": "payable",
      "type": "function"
    },
    {
      "inputs": [
        {
          "internalType": "uint16",
          "name": "_version",
          "type": "uint16"
        },
        {
          "internalType": "uint16",
          "name": "_chainId",
          "type": "uint16"
        },
        {
          "internalType": "uint256",
          "name": "_configType",
          "type": "uint256"
        },
        {
          "internalType": "bytes",
          "name": "_config",
          "type": "bytes"
        }
      ],
      "name": "setConfig",
      "outputs": [],
      "stateMutability": "nonpayable",
      "type": "function"
    },
    {
      "inputs": [
        {
          "internalType": "uint16",
          "name": "_dstChainId",
          "type": "uint16"
        },
        {
          "internalType": "uint16",
          "name": "_packetType",
          "type": "uint16"
        },
        {
          "internalType": "uint256",
          "name": "_minGas",
          "type": "uint256"
        }
      ],
      "name": "setMinDstGas",
      "outputs": [],
      "stateMutability": "nonpayable",
      "type": "function"
    },
    {
      "inputs": [
        {
          "internalType": "address",
          "name": "_precrime",
          "type": "address"
        }
      ],
      "name": "setPrecrime",
      "outputs": [],
      "stateMutability": "nonpayable",
      "type": "function"
    },
    {
      "inputs": [
        {
          "internalType": "uint256",
          "name": "newProposalThreshold",
          "type": "uint256"
        }
      ],
      "name": "setProposalThreshold",
      "outputs": [],
      "stateMutability": "nonpayable",
      "type": "function"
    },
    {
      "inputs": [
        {
          "internalType": "uint16",
          "name": "_version",
          "type": "uint16"
        }
      ],
      "name": "setReceiveVersion",
      "outputs": [],
      "stateMutability": "nonpayable",
      "type": "function"
    },
    {
      "inputs": [
        {
          "internalType": "uint16",
          "name": "_version",
          "type": "uint16"
        }
      ],
      "name": "setSendVersion",
      "outputs": [],
      "stateMutability": "nonpayable",
      "type": "function"
    },
    {
      "inputs": [
        {
          "internalType": "uint16",
          "name": "_srcChainId",
          "type": "uint16"
        },
        {
          "internalType": "bytes",
          "name": "_path",
          "type": "bytes"
        }
      ],
      "name": "setTrustedRemote",
      "outputs": [],
      "stateMutability": "nonpayable",
      "type": "function"
    },
    {
      "inputs": [
        {
          "internalType": "uint16",
          "name": "_remoteChainId",
          "type": "uint16"
        },
        {
          "internalType": "bytes",
          "name": "_remoteAddress",
          "type": "bytes"
        }
      ],
      "name": "setTrustedRemoteAddress",
      "outputs": [],
      "stateMutability": "nonpayable",
      "type": "function"
    },
    {
      "inputs": [
        {
          "internalType": "uint256",
          "name": "newVotingDelay",
          "type": "uint256"
        }
      ],
      "name": "setVotingDelay",
      "outputs": [],
      "stateMutability": "nonpayable",
      "type": "function"
    },
    {
      "inputs": [
        {
          "internalType": "uint256",
          "name": "newVotingPeriod",
          "type": "uint256"
        }
      ],
      "name": "setVotingPeriod",
      "outputs": [],
      "stateMutability": "nonpayable",
      "type": "function"
    },
    {
      "inputs": [
        {
          "internalType": "uint256",
          "name": "proposalId",
          "type": "uint256"
        }
      ],
      "name": "state",
      "outputs": [
        {
          "internalType": "enum IGovernor.ProposalState",
          "name": "",
          "type": "uint8"
        }
      ],
      "stateMutability": "view",
      "type": "function"
    },
    {
      "inputs": [
        {
          "internalType": "bytes4",
          "name": "interfaceId",
          "type": "bytes4"
        }
      ],
      "name": "supportsInterface",
      "outputs": [
        {
          "internalType": "bool",
          "name": "",
          "type": "bool"
        }
      ],
      "stateMutability": "view",
      "type": "function"
    },
    {
      "inputs": [],
      "name": "token",
      "outputs": [
        {
          "internalType": "contract IVotes",
          "name": "",
          "type": "address"
        }
      ],
      "stateMutability": "view",
      "type": "function"
    },
    {
      "inputs": [
        {
          "internalType": "address",
          "name": "newOwner",
          "type": "address"
        }
      ],
      "name": "transferOwnership",
      "outputs": [],
      "stateMutability": "nonpayable",
      "type": "function"
    },
    {
      "inputs": [
        {
          "internalType": "uint16",
          "name": "",
          "type": "uint16"
        }
      ],
      "name": "trustedRemoteLookup",
      "outputs": [
        {
          "internalType": "bytes",
          "name": "",
          "type": "bytes"
        }
      ],
      "stateMutability": "view",
      "type": "function"
    },
    {
      "inputs": [
        {
          "internalType": "uint256",
          "name": "newQuorumNumerator",
          "type": "uint256"
        }
      ],
      "name": "updateQuorumNumerator",
      "outputs": [],
      "stateMutability": "nonpayable",
      "type": "function"
    },
    {
      "inputs": [],
      "name": "version",
      "outputs": [
        {
          "internalType": "string",
          "name": "",
          "type": "string"
        }
      ],
      "stateMutability": "view",
      "type": "function"
    },
    {
      "inputs": [],
      "name": "votingDelay",
      "outputs": [
        {
          "internalType": "uint256",
          "name": "",
          "type": "uint256"
        }
      ],
      "stateMutability": "view",
      "type": "function"
    },
    {
      "inputs": [],
      "name": "votingPeriod",
      "outputs": [
        {
          "internalType": "uint256",
          "name": "",
          "type": "uint256"
        }
      ],
      "stateMutability": "view",
      "type": "function"
    },
    {
      "stateMutability": "payable",
      "type": "receive"
    }
  ],
  "transactionHash": "0x16c8b71927fb459e58f849581a5910dce1d1b32b5983138d69e8857c8ae67262",
  "args": [
    "0xe573BCA813c741229ffB2488F7856C6cAa841041",
    "0xb23b28012ee92E8dE39DEb57Af31722223034747",
    []
  ],
  "numDeployments": 2,
  "solcInputHash": "2216bba40e563597412ef6e9cf2c3ccc",
  "bytecode": "0x6101806040523480156200001257600080fd5b50604051620061c0380380620061c08339810160408190526200003591620009ab565b81806004856001603260006040518060400160405280602081526020017f4d6f6f6e6265616d204578616d706c652043726f737320436861696e2044414f8152508062000087620001a560201b60201c565b815160208084019190912082518383012060e08290526101008190524660a0818152604080517f8b73c3c69bb8fe3d512ecc4cf759cc79239f7b179b0ffacaa9a75d522b39400f81880181905281830187905260608201869052608082019490945230818401528151808203909301835260c00190528051940193909320919290916080523060c05261012052505082516200012d92506000915060208401906200081c565b506200013b905083620001c0565b620001468262000201565b6200015181620002a8565b5050506001600160a01b0316610140526200016c81620002e9565b50620001783362000461565b6001600160a01b0316610160525080516200019b90600f906020840190620008a7565b5050505062000b0e565b6040805180820190915260018152603160f81b602082015290565b60045460408051918252602082018390527fc565b045403dc03c2eea82b81a0465edad9e2e7fc4d97e11421c209da93d7a93910160405180910390a1600455565b60008111620002675760405162461bcd60e51b815260206004820152602760248201527f476f7665726e6f7253657474696e67733a20766f74696e6720706572696f6420604482015266746f6f206c6f7760c81b60648201526084015b60405180910390fd5b60055460408051918252602082018390527f7e3f7f0708a84de9203036abaa450dccc85ad5ff52f78c170f3edb55cf5e8828910160405180910390a1600555565b60065460408051918252602082018390527fccb45da8d5717e6c4544694297c4ba5cf151d455c9bb0ed4fc7a38411bc05461910160405180910390a1600655565b60648111156200036e5760405162461bcd60e51b815260206004820152604360248201527f476f7665726e6f72566f74657351756f72756d4672616374696f6e3a2071756f60448201527f72756d4e756d657261746f72206f7665722071756f72756d44656e6f6d696e616064820152623a37b960e91b608482015260a4016200025e565b60006200037a620004b3565b905080158015906200038c5750600954155b15620004075760096000016040518060400160405280600063ffffffff168152602001620003c584620004eb60201b620026271760201c565b6001600160e01b0390811690915282546001810184556000938452602093849020835194909301519091166401000000000263ffffffff909316929092179101555b620004228260096200055a60201b620026941790919060201c565b505060408051828152602081018490527f0553476bf02ef2726e8ce5ced78d63e26e602e4a2257b1f559418e24b4633997910160405180910390a15050565b600a80546001600160a01b038381166001600160a01b0319831681179093556040519116919082907f8be0079c531659141344cd1fd0a4f28419497f9722a3daafe3b4186f6b6457e090600090a35050565b60095460009015620004e457620004d66009620005ad60201b620026ca1760201c565b6001600160e01b0316905090565b5060085490565b60006001600160e01b03821115620005565760405162461bcd60e51b815260206004820152602760248201527f53616665436173743a2076616c756520646f65736e27742066697420696e20326044820152663234206269747360c81b60648201526084016200025e565b5090565b60008062000597846000016200057b43620005fb60201b620027111760201c565b6200059186620004eb60201b620026271760201c565b62000662565b6001600160e01b03918216969116945092505050565b80546000908015620005f157620005d983620005cb60018462000aab565b600091825260209091200190565b5464010000000090046001600160e01b0316620005f4565b60005b9392505050565b600063ffffffff821115620005565760405162461bcd60e51b815260206004820152602660248201527f53616665436173743a2076616c756520646f65736e27742066697420696e203360448201526532206269747360d01b60648201526084016200025e565b825460009081908015620007be5760006200068487620005cb60018562000aab565b60408051808201909152905463ffffffff8082168084526401000000009092046001600160e01b031660208401529192509087161015620007085760405162461bcd60e51b815260206004820152601760248201527f436865636b706f696e743a20696e76616c6964206b657900000000000000000060448201526064016200025e565b8563ffffffff16816000015163ffffffff1614156200075d57846200073488620005cb60018662000aab565b80546001600160e01b03929092166401000000000263ffffffff909216919091179055620007ad565b6040805180820190915263ffffffff80881682526001600160e01b0380881660208085019182528b54600181018d5560008d81529190912094519151909216640100000000029216919091179101555b602001519250839150620008149050565b50506040805180820190915263ffffffff80851682526001600160e01b0380851660208085019182528854600181018a5560008a8152918220955192519093166401000000000291909316179201919091559050815b935093915050565b8280546200082a9062000ad1565b90600052602060002090601f0160209004810192826200084e576000855562000899565b82601f106200086957805160ff191683800117855562000899565b8280016001018555821562000899579182015b82811115620008995782518255916020019190600101906200087c565b50620005569291506200094d565b82805482825590600052602060002090600f01601090048101928215620008995791602002820160005b838211156200091357835183826101000a81548161ffff021916908361ffff1602179055509260200192600201602081600101049283019260010302620008d1565b8015620009435782816101000a81549061ffff021916905560020160208160010104928301926001030262000913565b5050620005569291505b5b808211156200055657600081556001016200094e565b6001600160a01b03811681146200097a57600080fd5b50565b634e487b7160e01b600052604160045260246000fd5b805161ffff81168114620009a657600080fd5b919050565b600080600060608486031215620009c157600080fd5b8351620009ce8162000964565b80935050602080850151620009e38162000964565b60408601519093506001600160401b038082111562000a0157600080fd5b818701915087601f83011262000a1657600080fd5b81518181111562000a2b5762000a2b6200097d565b8060051b604051601f19603f8301168101818110858211171562000a535762000a536200097d565b60405291825284820192508381018501918a83111562000a7257600080fd5b938501935b8285101562000a9b5762000a8b8562000993565b8452938501939285019262000a77565b8096505050505050509250925092565b60008282101562000acc57634e487b7160e01b600052601160045260246000fd5b500390565b600181811c9082168062000ae657607f821691505b6020821081141562000b0857634e487b7160e01b600052602260045260246000fd5b50919050565b60805160a05160c05160e0516101005161012051610140516101605161560d62000bb36000396000818161099f01528181610ca501528181611142015281816111cb015281816115ea015281816120b40152818161259c0152612edb015260008181610c80015281816133cd015261366501526000613a4901526000613a9801526000613a73015260006139cc015260006139f601526000613a20015261560d6000f3fe6080604052600436106103b05760003560e01c80637d5e81e2116101e7578063c28bc2fa1161010d578063eb8d72b7116100a0578063f2fde38b1161006f578063f2fde38b14610c0e578063f5ecbdbc14610c2e578063f8ce560a14610c4e578063fc0c546a14610c6e57600080fd5b8063eb8d72b714610b82578063eb9019d414610ba2578063ece40cc114610bc2578063f23a6e6114610be257600080fd5b8063dd4e2ba5116100dc578063dd4e2ba514610ac8578063deaaa7cc14610b0e578063df2a5b3b14610b42578063ea0217cf14610b6257600080fd5b8063c28bc2fa14610a62578063c59057e414610a75578063cbed8b9c14610a95578063d1deba1f14610ab557600080fd5b8063a6c3d16511610185578063baf3292d11610154578063baf3292d146109d6578063bc197c81146109f6578063be3c840d14610a22578063c01f9e3714610a4257600080fd5b8063a6c3d16514610958578063a7713a7014610978578063b353aaa71461098d578063b58131b0146109c157600080fd5b8063950c8a74116101c1578063950c8a74146108e457806397c3d334146109045780639a802a6d146109185780639f38369a1461093857600080fd5b80637d5e81e21461085a5780638cfd8f5c1461087a5780638da5cb5b146108b257600080fd5b80633e4f49e6116102d75780635f398a141161026a57806370b0f6601161023957806370b0f660146107e5578063715018a6146108055780637533d7881461081a5780637b3c71d31461083a57600080fd5b80635f398a141461076557806360c4247f1461078557806366ad5c8a146107a557806366b4e518146107c557600080fd5b806354fd4d50116102a657806354fd4d50146106b957806355f0f9c7146106e357806356781388146106f65780635b8c41e61461071657600080fd5b80633e4f49e6146105cd57806342d65a8d146105fa578063438596321461061a578063544ffc9c1461066457600080fd5b806310ddb1371161034f5780632fe3e2611161031e5780632fe3e261146105445780633932abb1146105785780633bccf4fd1461058d5780633d8b38f6146105ad57600080fd5b806310ddb137146104b8578063150b7a02146104d85780632656227d146105115780632d63f6931461052457600080fd5b8063034201811161038b578063034201811461043657806306f3f9e61461045657806306fdde031461047657806307e0db171461049857600080fd5b80621d3567146103be57806301ffc9a7146103de57806302a251a31461041357600080fd5b366103b957005b005b600080fd5b3480156103ca57600080fd5b506103b76103d9366004614298565b610ca2565b3480156103ea57600080fd5b506103fe6103f936600461432d565b610ed3565b60405190151581526020015b60405180910390f35b34801561041f57600080fd5b50610428610f40565b60405190815260200161040a565b34801561044257600080fd5b50610428610451366004614433565b610f50565b34801561046257600080fd5b506103b76104713660046144d9565b611048565b34801561048257600080fd5b5061048b61108f565b60405161040a919061454e565b3480156104a457600080fd5b506103b76104b3366004614561565b611121565b3480156104c457600080fd5b506103b76104d3366004614561565b6111aa565b3480156104e457600080fd5b506104f86104f3366004614595565b611202565b6040516001600160e01b0319909116815260200161040a565b61042861051f366004614766565b611213565b34801561053057600080fd5b5061042861053f3660046144d9565b61133a565b34801561055057600080fd5b506104287fb3b3f3b703cd84ce352197dcff232b1b5d3cfb2025ce47cf04742d0651f1af8881565b34801561058457600080fd5b50610428611371565b34801561059957600080fd5b506104286105a83660046147f5565b61137c565b3480156105b957600080fd5b506103fe6105c8366004614843565b6113f2565b3480156105d957600080fd5b506105ed6105e83660046144d9565b6114bf565b60405161040a91906148ad565b34801561060657600080fd5b506103b7610615366004614843565b6115cb565b34801561062657600080fd5b506103fe6106353660046148d5565b60008281526007602090815260408083206001600160a01b038516845260030190915290205460ff1692915050565b34801561067057600080fd5b5061069e61067f3660046144d9565b6000908152600760205260409020805460018201546002909201549092565b6040805193845260208401929092529082015260600161040a565b3480156106c557600080fd5b506040805180820190915260018152603160f81b602082015261048b565b6103b76106f13660046144d9565b611651565b34801561070257600080fd5b50610428610711366004614901565b6117a2565b34801561072257600080fd5b50610428610731366004614924565b600e602090815260009384526040808520845180860184018051928152908401958401959095209452929052825290205481565b34801561077157600080fd5b50610428610780366004614983565b6117c3565b34801561079157600080fd5b506104286107a03660046144d9565b61180d565b3480156107b157600080fd5b506103b76107c0366004614298565b6118a2565b3480156107d157600080fd5b506104286107e0366004614a06565b61197e565b3480156107f157600080fd5b506103b76108003660046144d9565b6119f2565b34801561081157600080fd5b506103b7611a36565b34801561082657600080fd5b5061048b610835366004614561565b611a4a565b34801561084657600080fd5b50610428610855366004614a32565b611ae4565b34801561086657600080fd5b50610428610875366004614a8b565b611b36565b34801561088657600080fd5b50610428610895366004614b3f565b600c60209081526000928352604080842090915290825290205481565b3480156108be57600080fd5b50600a546001600160a01b03165b6040516001600160a01b03909116815260200161040a565b3480156108f057600080fd5b50600d546108cc906001600160a01b031681565b34801561091057600080fd5b506064610428565b34801561092457600080fd5b50610428610933366004614b78565b611c73565b34801561094457600080fd5b5061048b610953366004614561565b611c80565b34801561096457600080fd5b506103b7610973366004614843565b611d90565b34801561098457600080fd5b50610428611e23565b34801561099957600080fd5b506108cc7f000000000000000000000000000000000000000000000000000000000000000081565b3480156109cd57600080fd5b50610428611e4d565b3480156109e257600080fd5b506103b76109f1366004614bce565b611e58565b348015610a0257600080fd5b506104f8610a11366004614be9565b63bc197c8160e01b95945050505050565b348015610a2e57600080fd5b506103b7610a3d3660046144d9565b611eb4565b348015610a4e57600080fd5b50610428610a5d3660046144d9565b611f69565b6103b7610a70366004614c78565b611f98565b348015610a8157600080fd5b50610428610a90366004614766565b61205b565b348015610aa157600080fd5b506103b7610ab0366004614cb9565b612095565b6103b7610ac3366004614298565b61212a565b348015610ad457600080fd5b506040805180820190915260208082527f737570706f72743d627261766f2671756f72756d3d666f722c6162737461696e9082015261048b565b348015610b1a57600080fd5b506104287f150214d74d59b7d1e90c73fc22ef3d991dd0a76b046543d4d80ab92d2a50328f81565b348015610b4e57600080fd5b506103b7610b5d366004614d2b565b612340565b348015610b6e57600080fd5b506103b7610b7d3660046144d9565b6123f2565b348015610b8e57600080fd5b506103b7610b9d366004614843565b612436565b348015610bae57600080fd5b50610428610bbd366004614d6c565b612490565b348015610bce57600080fd5b506103b7610bdd3660046144d9565b6124b1565b348015610bee57600080fd5b506104f8610bfd366004614d88565b63f23a6e6160e01b95945050505050565b348015610c1a57600080fd5b506103b7610c29366004614bce565b6124f5565b348015610c3a57600080fd5b5061048b610c49366004614dec565b61256b565b348015610c5a57600080fd5b50610428610c693660046144d9565b61261c565b348015610c7a57600080fd5b506108cc7f000000000000000000000000000000000000000000000000000000000000000081565b337f00000000000000000000000000000000000000000000000000000000000000006001600160a01b031614610d1f5760405162461bcd60e51b815260206004820152601e60248201527f4c7a4170703a20696e76616c696420656e64706f696e742063616c6c6572000060448201526064015b60405180910390fd5b61ffff86166000908152600b602052604081208054610d3d90614e3b565b80601f0160208091040260200160405190810160405280929190818152602001828054610d6990614e3b565b8015610db65780601f10610d8b57610100808354040283529160200191610db6565b820191906000526020600020905b815481529060010190602001808311610d9957829003601f168201915b50505050509050805186869050148015610dd1575060008151115b8015610df9575080516020820120604051610def9088908890614e76565b6040518091039020145b610e545760405162461bcd60e51b815260206004820152602660248201527f4c7a4170703a20696e76616c696420736f757263652073656e64696e6720636f6044820152651b9d1c9858dd60d21b6064820152608401610d16565b610eca8787878080601f01602080910402602001604051908101604052809392919081815260200183838082843760009201919091525050604080516020601f8a018190048102820181019092528881528a93509150889088908190840183828082843760009201919091525061277692505050565b50505050505050565b60006001600160e01b0319821663bf26d89760e01b1480610f0457506001600160e01b031982166379dd796f60e01b145b80610f1f57506001600160e01b03198216630271189760e51b145b80610f3a57506301ffc9a760e01b6001600160e01b03198316145b92915050565b6000610f4b60055490565b905090565b600080610ff4610fec7fb3b3f3b703cd84ce352197dcff232b1b5d3cfb2025ce47cf04742d0651f1af888c8c8c8c604051610f8c929190614e76565b60405180910390208b80519060200120604051602001610fd1959493929190948552602085019390935260ff9190911660408401526060830152608082015260a00190565b604051602081830303815290604052805190602001206127ef565b86868661283d565b905061103a8a828b8b8b8080601f0160208091040260200160405190810160405280939291908181526020018383808284376000920191909152508d925061285b915050565b9a9950505050505050505050565b3330146110675760405162461bcd60e51b8152600401610d1690614e86565b611083565b8061107760026129bd565b146110815761106c565b505b61108c81612a3c565b50565b60606000805461109e90614e3b565b80601f01602080910402602001604051908101604052809291908181526020018280546110ca90614e3b565b80156111175780601f106110ec57610100808354040283529160200191611117565b820191906000526020600020905b8154815290600101906020018083116110fa57829003601f168201915b5050505050905090565b611129612b88565b6040516307e0db1760e01b815261ffff821660048201527f00000000000000000000000000000000000000000000000000000000000000006001600160a01b0316906307e0db17906024015b600060405180830381600087803b15801561118f57600080fd5b505af11580156111a3573d6000803e3d6000fd5b5050505050565b6111b2612b88565b6040516310ddb13760e01b815261ffff821660048201527f00000000000000000000000000000000000000000000000000000000000000006001600160a01b0316906310ddb13790602401611175565b630a85bd0160e11b5b949350505050565b6000806112228686868661205b565b9050600061122f826114bf565b9050600481600781111561124557611245614897565b14806112625750600581600781111561126057611260614897565b145b6112b85760405162461bcd60e51b815260206004820152602160248201527f476f7665726e6f723a2070726f706f73616c206e6f74207375636365737366756044820152601b60fa1b6064820152608401610d16565b600082815260016020818152604092839020600201805460ff191690921790915590518381527f712ae1383f79ac853f8d882153778e0260ef8f03b504e2866e0593e04d2b291f910160405180910390a16113168288888888612be2565b6113238288888888612c67565b6113308288888888612d5d565b5095945050505050565b60008181526001602090815260408083208151928301909152546001600160401b0316908190525b6001600160401b031692915050565b6000610f4b60045490565b604080517f150214d74d59b7d1e90c73fc22ef3d991dd0a76b046543d4d80ab92d2a50328f602082015290810186905260ff8516606082015260009081906113ca90610fec90608001610fd1565b90506113e787828860405180602001604052806000815250612d62565b979650505050505050565b61ffff83166000908152600b60205260408120805482919061141390614e3b565b80601f016020809104026020016040519081016040528092919081815260200182805461143f90614e3b565b801561148c5780601f106114615761010080835404028352916020019161148c565b820191906000526020600020905b81548152906001019060200180831161146f57829003601f168201915b5050505050905083836040516114a3929190614e76565b60405180910390208180519060200120149150505b9392505050565b6000818152600160205260408120600281015460ff16156114e35750600792915050565b6002810154610100900460ff16156114fe5750600292915050565b60006115098461133a565b9050806115585760405162461bcd60e51b815260206004820152601d60248201527f476f7665726e6f723a20756e6b6e6f776e2070726f706f73616c2069640000006044820152606401610d16565b438110611569575060009392505050565b600061157485611f69565b905043811061158857506001949350505050565b61159185612d85565b80156115b0575060008581526007602052604090208054600190910154115b156115c057506004949350505050565b506003949350505050565b6115d3612b88565b6040516342d65a8d60e01b81526001600160a01b037f000000000000000000000000000000000000000000000000000000000000000016906342d65a8d9061162390869086908690600401614ee6565b600060405180830381600087803b15801561163d57600080fd5b505af1158015610eca573d6000803e3d6000fd5b60008181526011602052604090205460ff166116d55760405162461bcd60e51b815260206004820152603860248201527f436f6c6c656374696f6e20706861736520666f7220746869732070726f706f7360448201527f616c2068617320616c72656164792066696e69736865642100000000000000006064820152608401610d16565b60005b600f5461ffff8216101561179e57600080836040516020016116fc91815260200190565b60408051601f198184030181529082905261171a9291602001614f04565b604051602081830303815290604052905061178b600f8361ffff168154811061174557611745614f20565b90600052602060002090601091828204019190066002029054906101000a900461ffff16823060006040518060200160405280600081525067016345785d8a0000612dbc565b508061179681614f4c565b9150506116d8565b5050565b60008033905061120b84828560405180602001604052806000815250612d62565b6000803390506113e787828888888080601f0160208091040260200160405190810160405280939291908181526020018383808284376000920191909152508a925061285b915050565b60095460009080611822575050600854919050565b60006009611831600184614f6e565b8154811061184157611841614f20565b60009182526020918290206040805180820190915291015463ffffffff8116808352600160201b9091046001600160e01b0316928201929092529150841061189757602001516001600160e01b03169392505050565b61120b600985612f57565b3330146119005760405162461bcd60e51b815260206004820152602660248201527f4e6f6e626c6f636b696e674c7a4170703a2063616c6c6572206d7573742062656044820152650204c7a4170760d41b6064820152608401610d16565b6119768686868080601f01602080910402602001604051908101604052809392919081815260200183838082843760009201919091525050604080516020601f89018190048102820181019092528781528993509150879087908190840183828082843760009201919091525061300992505050565b505050505050565b600062340b7561278061ffff851614156119ca5762c67f1060026119a383600c614f85565b6119ad9190614fa4565b6119b74383614fc6565b6119c19190614f6e565b92505050610f3a565b8361ffff1661277a14156119ea57630107449460036119a383600c614f85565b509092915050565b333014611a115760405162461bcd60e51b8152600401610d1690614e86565b611a2d565b80611a2160026129bd565b14611a2b57611a16565b505b61108c8161304e565b611a3e612b88565b611a48600061308f565b565b600b6020526000908152604090208054611a6390614e3b565b80601f0160208091040260200160405190810160405280929190818152602001828054611a8f90614e3b565b8015611adc5780601f10611ab157610100808354040283529160200191611adc565b820191906000526020600020905b815481529060010190602001808311611abf57829003601f168201915b505050505081565b600080339050611b2c86828787878080601f016020809104026020016040519081016040528093929190818152602001838380828437600092019190915250612d6292505050565b9695505050505050565b600080611b45868686866130e1565b915061120b9050565b600f5461ffff82161015611330576000611ba5600f8361ffff1681548110611b7857611b78614f20565b90600052602060002090601091828204019190066002029054906101000a900461ffff166107e08561133a565b90506000611bf0600f8461ffff1681548110611bc357611bc3614f20565b90600052602060002090601091828204019190066002029054906101000a900461ffff166107e086611f69565b60408051602081018790529081018490526060810182905290915060009060019060800160408051601f1981840301815290829052611c329291602001614f04565b6040516020818303038152906040529050611c5d600f8561ffff168154811061174557611745614f20565b5050508080611c6b90614f4c565b915050611b4e565b600061120b8484846133a4565b61ffff81166000908152600b6020526040812080546060929190611ca390614e3b565b80601f0160208091040260200160405190810160405280929190818152602001828054611ccf90614e3b565b8015611d1c5780601f10611cf157610100808354040283529160200191611d1c565b820191906000526020600020905b815481529060010190602001808311611cff57829003601f168201915b50505050509050805160001415611d755760405162461bcd60e51b815260206004820152601d60248201527f4c7a4170703a206e6f20747275737465642070617468207265636f72640000006044820152606401610d16565b6114b8600060148351611d889190614f6e565b83919061343a565b611d98612b88565b818130604051602001611dad93929190614fde565b60408051601f1981840301815291815261ffff85166000908152600b60209081529190208251611de293919290910190614122565b507f8c0400cfe2d1199b1a725c78960bcc2a344d869b80590d0f2bd005db15a572ce838383604051611e1693929190614ee6565b60405180910390a1505050565b60095460009015611e4657611e3860096126ca565b6001600160e01b0316905090565b5060085490565b6000610f4b60065490565b611e60612b88565b600d80546001600160a01b0319166001600160a01b0383169081179091556040519081527f5db758e995a17ec1ad84bdef7e8c3293a0bd6179bcce400dff5d4c3d87db726b9060200160405180910390a150565b600160005b600f5461ffff8216108015611ecb5750815b15611f45576000838152601260205260408120600f805491929161ffff8516908110611ef957611ef9614f20565b6000918252602080832060108304015461ffff6002600f90941684026101000a90910416845283019390935260409091019020015460ff16915080611f3d81614f4c565b915050611eb9565b50801561179e576000828152601060205260409020805460ff191660011790555050565b60008181526001602081815260408084208151928301909152909101546001600160401b031690819052611362565b333014611fb75760405162461bcd60e51b8152600401610d1690614e86565b611fd3565b80611fc760026129bd565b14611fd157611fbc565b505b600080856001600160a01b0316858585604051611ff1929190614e76565b60006040518083038185875af1925050503d806000811461202e576040519150601f19603f3d011682016040523d82523d6000602084013e612033565b606091505b5091509150610eca828260405180606001604052806028815260200161558960289139613547565b60008484848460405160200161207494939291906150cd565b60408051601f19818403018152919052805160209091012095945050505050565b61209d612b88565b6040516332fb62e760e21b81526001600160a01b037f0000000000000000000000000000000000000000000000000000000000000000169063cbed8b9c906120f19088908890889088908890600401615118565b600060405180830381600087803b15801561210b57600080fd5b505af115801561211f573d6000803e3d6000fd5b505050505050505050565b61ffff86166000908152600e6020526040808220905161214d9088908890614e76565b90815260408051602092819003830190206001600160401b038716600090815292529020549050806121cd5760405162461bcd60e51b815260206004820152602360248201527f4e6f6e626c6f636b696e674c7a4170703a206e6f2073746f726564206d65737360448201526261676560e81b6064820152608401610d16565b8083836040516121de929190614e76565b60405180910390201461223d5760405162461bcd60e51b815260206004820152602160248201527f4e6f6e626c6f636b696e674c7a4170703a20696e76616c6964207061796c6f616044820152601960fa1b6064820152608401610d16565b61ffff87166000908152600e602052604080822090516122609089908990614e76565b90815260408051602092819003830181206001600160401b038916600090815290845282902093909355601f880182900482028301820190528682526122f8918991899089908190840183828082843760009201919091525050604080516020601f8a018190048102820181019092528881528a93509150889088908190840183828082843760009201919091525061300992505050565b7fc264d91f3adc5588250e1551f547752ca0cfa8f6b530d243b9f9f4cab10ea8e5878787878560405161232f959493929190615146565b60405180910390a150505050505050565b612348612b88565b600081116123905760405162461bcd60e51b81526020600482015260156024820152744c7a4170703a20696e76616c6964206d696e47617360581b6044820152606401610d16565b61ffff8381166000818152600c602090815260408083209487168084529482529182902085905581519283528201929092529081018290527f9d5c7c0b934da8fefa9c7760c98383778a12dfbfc0c3b3106518f43fb9508ac090606001611e16565b3330146124115760405162461bcd60e51b8152600401610d1690614e86565b61242d565b8061242160026129bd565b1461242b57612416565b505b61108c81613560565b61243e612b88565b61ffff83166000908152600b6020526040902061245c9083836141a2565b507ffa41487ad5d6728f0b19276fa1eddc16558578f5109fc39d2dc33c3230470dab838383604051611e1693929190614ee6565b60006114b883836124ac60408051602081019091526000815290565b6133a4565b3330146124d05760405162461bcd60e51b8152600401610d1690614e86565b6124ec565b806124e060026129bd565b146124ea576124d5565b505b61108c81613601565b6124fd612b88565b6001600160a01b0381166125625760405162461bcd60e51b815260206004820152602660248201527f4f776e61626c653a206e6577206f776e657220697320746865207a65726f206160448201526564647265737360d01b6064820152608401610d16565b61108c8161308f565b604051633d7b2f6f60e21b815261ffff808616600483015284166024820152306044820152606481018290526060907f00000000000000000000000000000000000000000000000000000000000000006001600160a01b03169063f5ecbdbc90608401600060405180830381865afa1580156125eb573d6000803e3d6000fd5b505050506040513d6000823e601f3d908101601f1916820160405261261391908101906151c6565b95945050505050565b6000610f3a82613642565b60006001600160e01b038211156126905760405162461bcd60e51b815260206004820152602760248201527f53616665436173743a2076616c756520646f65736e27742066697420696e20326044820152663234206269747360c81b6064820152608401610d16565b5090565b6000806126b2846126a443612711565b6126ad86612627565b6136ec565b6001600160e01b0391821693501690505b9250929050565b80546000908015612708576126f2836126e4600184614f6e565b600091825260209091200190565b54600160201b90046001600160e01b03166114b8565b60009392505050565b600063ffffffff8211156126905760405162461bcd60e51b815260206004820152602660248201527f53616665436173743a2076616c756520646f65736e27742066697420696e203360448201526532206269747360d01b6064820152608401610d16565b6000806127d95a60966366ad5c8a60e01b8989898960405160240161279e94939291906151fa565b60408051601f198184030181529190526020810180516001600160e01b03166001600160e01b03199093169290921790915230929190613896565b9150915081611976576119768686868685613922565b6000610f3a6127fc6139bf565b8360405161190160f01b6020820152602281018390526042810182905260009060620160405160208183030381529060405280519060200120905092915050565b600080600061284e87878787613ae6565b9150915061133081613ba7565b6000858152600160208190526040822090612875886114bf565b600781111561288657612886614897565b146128df5760405162461bcd60e51b815260206004820152602360248201527f476f7665726e6f723a20766f7465206e6f742063757272656e746c792061637460448201526269766560e81b6064820152608401610d16565b604080516020810190915281546001600160401b031690819052600090612908908890866133a4565b90506129178888888488613cf5565b835161296957866001600160a01b03167fb8e138887d0aa13bab447e82de9d5c1777041ecd21ca36ba824ff1e6c07ddda48988848960405161295c9493929190615238565b60405180910390a26113e7565b866001600160a01b03167fe2babfbac5889a709b63bb7f598b324e08bc5a4fb9ec647fb3cbc9ec07eb871289888489896040516129aa959493929190615260565b60405180910390a2979650505050505050565b60006129d88254600f81810b600160801b909204900b131590565b156129f657604051631ed9509560e11b815260040160405180910390fd5b508054600f0b6000818152600180840160205260408220805492905583546fffffffffffffffffffffffffffffffff191692016001600160801b03169190911790915590565b6064811115612abf5760405162461bcd60e51b815260206004820152604360248201527f476f7665726e6f72566f74657351756f72756d4672616374696f6e3a2071756f60448201527f72756d4e756d657261746f72206f7665722071756f72756d44656e6f6d696e616064820152623a37b960e91b608482015260a401610d16565b6000612ac9611e23565b90508015801590612ada5750600954155b15612b3e57604080518082019091526000815260099060208101612afd84612627565b6001600160e01b039081169091528254600181018455600093845260209384902083519490930151909116600160201b0263ffffffff909316929092179101555b612b49600983612694565b505060408051828152602081018490527f0553476bf02ef2726e8ce5ced78d63e26e602e4a2257b1f559418e24b4633997910160405180910390a15050565b600a546001600160a01b03163314611a485760405162461bcd60e51b815260206004820181905260248201527f4f776e61626c653a2063616c6c6572206973206e6f7420746865206f776e65726044820152606401610d16565b60008581526010602052604090205460ff16612c5a5760405162461bcd60e51b815260206004820152603160248201527f436f6c6c656374696f6e20706861736520666f7220746869732070726f706f73604482015270616c20697320756e66696e69736865642160781b6064820152608401610d16565b6111a38585858585612d5d565b60006040518060600160405280602781526020016155b160279139905060005b8551811015610eca57600080878381518110612ca557612ca5614f20565b60200260200101516001600160a01b0316878481518110612cc857612cc8614f20565b6020026020010151878581518110612ce257612ce2614f20565b6020026020010151604051612cf791906152a6565b60006040518083038185875af1925050503d8060008114612d34576040519150601f19603f3d011682016040523d82523d6000602084013e612d39565b606091505b5091509150612d49828286613547565b50505080612d56906152c2565b9050612c87565b6111a3565b600061261385858585612d8060408051602081019091526000815290565b61285b565b600081815260076020526040812060028101546001820154612da79190614fc6565b612db3610c698561133a565b11159392505050565b61ffff86166000908152600b602052604081208054612dda90614e3b565b80601f0160208091040260200160405190810160405280929190818152602001828054612e0690614e3b565b8015612e535780601f10612e2857610100808354040283529160200191612e53565b820191906000526020600020905b815481529060010190602001808311612e3657829003601f168201915b50505050509050805160001415612ec55760405162461bcd60e51b815260206004820152603060248201527f4c7a4170703a2064657374696e6174696f6e20636861696e206973206e6f742060448201526f61207472757374656420736f7572636560801b6064820152608401610d16565b60405162c5803160e81b81526001600160a01b037f0000000000000000000000000000000000000000000000000000000000000000169063c5803100908490612f1c908b9086908c908c908c908c906004016152dd565b6000604051808303818588803b158015612f3557600080fd5b505af1158015612f49573d6000803e3d6000fd5b505050505050505050505050565b6000438210612fa85760405162461bcd60e51b815260206004820181905260248201527f436865636b706f696e74733a20626c6f636b206e6f7420796574206d696e65646044820152606401610d16565b6000612fb383612711565b84549091506000612fc686848385613ef4565b90508015612ff357612fdd866126e4600184614f6e565b54600160201b90046001600160e01b0316612ff6565b60005b6001600160e01b03169695505050505050565b600080828060200190518101906130209190615344565b915061ffff16915081600014156130405761303b8682613f52565b611976565b816001141561197657611976565b60045460408051918252602082018390527fc565b045403dc03c2eea82b81a0465edad9e2e7fc4d97e11421c209da93d7a93910160405180910390a1600455565b600a80546001600160a01b038381166001600160a01b0319831681179093556040519116919082907f8be0079c531659141344cd1fd0a4f28419497f9722a3daafe3b4186f6b6457e090600090a35050565b60006130eb611e4d565b6130fa33610bbd600143614f6e565b10156131625760405162461bcd60e51b815260206004820152603160248201527f476f7665726e6f723a2070726f706f73657220766f7465732062656c6f7720706044820152701c9bdc1bdcd85b081d1a1c995cda1bdb19607a1b6064820152608401610d16565b6000613177868686868051906020012061205b565b9050845186511461319a5760405162461bcd60e51b8152600401610d1690615394565b83518651146131bb5760405162461bcd60e51b8152600401610d1690615394565b600086511161320c5760405162461bcd60e51b815260206004820152601860248201527f476f7665726e6f723a20656d7074792070726f706f73616c00000000000000006044820152606401610d16565b600081815260016020908152604091829020825191820190925281546001600160401b0316908190521561328c5760405162461bcd60e51b815260206004820152602160248201527f476f7665726e6f723a2070726f706f73616c20616c72656164792065786973746044820152607360f81b6064820152608401610d16565b600061329e613299611371565b614039565b6132a743614039565b6132b191906153d5565b905060006132c0613299610f40565b6132ca90836153d5565b835467ffffffffffffffff19166001600160401b038416178455905060018301805467ffffffffffffffff19166001600160401b0383161790557f7d84a6263ae0d98d3329bd7b46bb4e8d6f98cd35a7adb45c274c8b7fd5ebd5e084338b8b8d516001600160401b0381111561334257613342614368565b60405190808252806020026020018201604052801561337557816020015b60608152602001906001900390816133605790505b508c88888e60405161338f99989796959493929190615400565b60405180910390a15091979650505050505050565b604051630748d63560e31b81526001600160a01b038481166004830152602482018490526000917f000000000000000000000000000000000000000000000000000000000000000090911690633a46b1a890604401602060405180830381865afa158015613416573d6000803e3d6000fd5b505050506040513d601f19601f8201168201806040525081019061120b91906154ef565b60608161344881601f614fc6565b10156134875760405162461bcd60e51b815260206004820152600e60248201526d736c6963655f6f766572666c6f7760901b6044820152606401610d16565b6134918284614fc6565b845110156134d55760405162461bcd60e51b8152602060048201526011602482015270736c6963655f6f75744f66426f756e647360781b6044820152606401610d16565b6060821580156134f4576040519150600082526020820160405261353e565b6040519150601f8416801560200281840101858101878315602002848b0101015b8183101561352d578051835260209283019201613515565b5050858452601f01601f1916604052505b50949350505050565b606083156135565750816114b8565b6114b883836140a1565b600081116135c05760405162461bcd60e51b815260206004820152602760248201527f476f7665726e6f7253657474696e67733a20766f74696e6720706572696f6420604482015266746f6f206c6f7760c81b6064820152608401610d16565b60055460408051918252602082018390527f7e3f7f0708a84de9203036abaa450dccc85ad5ff52f78c170f3edb55cf5e8828910160405180910390a1600555565b60065460408051918252602082018390527fccb45da8d5717e6c4544694297c4ba5cf151d455c9bb0ed4fc7a38411bc05461910160405180910390a1600655565b6000606461364f8361180d565b604051632394e7a360e21b8152600481018590527f00000000000000000000000000000000000000000000000000000000000000006001600160a01b031690638e539e8c90602401602060405180830381865afa1580156136b4573d6000803e3d6000fd5b505050506040513d601f19601f820116820180604052508101906136d891906154ef565b6136e29190614f85565b610f3a9190614fa4565b82546000908190801561383957600061370a876126e4600185614f6e565b60408051808201909152905463ffffffff808216808452600160201b9092046001600160e01b03166020840152919250908716101561378b5760405162461bcd60e51b815260206004820152601760248201527f436865636b706f696e743a20696e76616c6964206b65790000000000000000006044820152606401610d16565b8563ffffffff16816000015163ffffffff1614156137da57846137b3886126e4600186614f6e565b80546001600160e01b0392909216600160201b0263ffffffff909216919091179055613829565b6040805180820190915263ffffffff80881682526001600160e01b0380881660208085019182528b54600181018d5560008d81529190912094519151909216600160201b029216919091179101555b60200151925083915061388e9050565b50506040805180820190915263ffffffff80851682526001600160e01b0380851660208085019182528854600181018a5560008a815291822095519251909316600160201b0291909316179201919091559050815b935093915050565b6000606060008060008661ffff166001600160401b038111156138bb576138bb614368565b6040519080825280601f01601f1916602001820160405280156138e5576020820181803683370190505b50905060008087516020890160008d8df191503d925086831115613907578692505b828152826000602083013e9093509150505b94509492505050565b8180519060200120600e60008761ffff1661ffff1681526020019081526020016000208560405161395391906152a6565b9081526040805191829003602090810183206001600160401b0388166000908152915220919091557fe183f33de2837795525b4792ca4cd60535bd77c53b7e7030060bfcf5734d6b0c906139b09087908790879087908790615508565b60405180910390a15050505050565b6000306001600160a01b037f000000000000000000000000000000000000000000000000000000000000000016148015613a1857507f000000000000000000000000000000000000000000000000000000000000000046145b15613a4257507f000000000000000000000000000000000000000000000000000000000000000090565b50604080517f00000000000000000000000000000000000000000000000000000000000000006020808301919091527f0000000000000000000000000000000000000000000000000000000000000000828401527f000000000000000000000000000000000000000000000000000000000000000060608301524660808301523060a0808401919091528351808403909101815260c0909201909252805191012090565b6000807f7fffffffffffffffffffffffffffffff5d576e7357a4501ddfe92f46681b20a0831115613b1d5750600090506003613919565b6040805160008082526020820180845289905260ff881692820192909252606081018690526080810185905260019060a0016020604051602081039080840390855afa158015613b71573d6000803e3d6000fd5b5050604051601f1901519150506001600160a01b038116613b9a57600060019250925050613919565b9660009650945050505050565b6000816004811115613bbb57613bbb614897565b1415613bc45750565b6001816004811115613bd857613bd8614897565b1415613c265760405162461bcd60e51b815260206004820152601860248201527f45434453413a20696e76616c6964207369676e617475726500000000000000006044820152606401610d16565b6002816004811115613c3a57613c3a614897565b1415613c885760405162461bcd60e51b815260206004820152601f60248201527f45434453413a20696e76616c6964207369676e6174757265206c656e677468006044820152606401610d16565b6003816004811115613c9c57613c9c614897565b141561108c5760405162461bcd60e51b815260206004820152602260248201527f45434453413a20696e76616c6964207369676e6174757265202773272076616c604482015261756560f01b6064820152608401610d16565b60008581526007602090815260408083206001600160a01b0388168452600381019092529091205460ff1615613d7d5760405162461bcd60e51b815260206004820152602760248201527f476f7665726e6f72566f74696e6753696d706c653a20766f746520616c726561604482015266191e4818d85cdd60ca1b6064820152608401610d16565b6001600160a01b03851660009081526003820160205260408120805460ff1916600117905560ff168460ff161415613dce5782816000016000828254613dc39190614fc6565b909155506119769050565b60ff841660011415613dee5782816001016000828254613dc39190614fc6565b60ff841660021415613e0e5782816002016000828254613dc39190614fc6565b60405162461bcd60e51b815260206004820152603560248201527f476f7665726e6f72566f74696e6753696d706c653a20696e76616c69642076616044820152746c756520666f7220656e756d20566f74655479706560581b6064820152608401610d16565b845181101561197657306001600160a01b0316858281518110613e9957613e99614f20565b60200260200101516001600160a01b03161415613ee457613ee4838281518110613ec557613ec5614f20565b60200260200101518051906020012060026140cb90919063ffffffff16565b613eed816152c2565b9050613e74565b60005b81831015613f4a576000613f0b8484614107565b60008781526020902090915063ffffffff86169082015463ffffffff161115613f3657809250613f44565b613f41816001614fc6565b93505b50613ef7565b509392505050565b600080600083806020019051810190613f6b919061555a565b600083815260126020908152604080832061ffff8c168452909152902060020154929550909350915060ff1615613fdb5760405162461bcd60e51b8152602060048201526014602482015273416c726561647920696e697469616c697a65642160601b6044820152606401610d16565b604080516060810182529283526020808401928352600184830181815260009687526012835283872061ffff99909916875297909152932091518255519181019190915591516002909201805460ff19169215159290921790915550565b60006001600160401b038211156126905760405162461bcd60e51b815260206004820152602660248201527f53616665436173743a2076616c756520646f65736e27742066697420696e203660448201526534206269747360d01b6064820152608401610d16565b8151156140b15781518083602001fd5b8060405162461bcd60e51b8152600401610d16919061454e565b8154600160801b90819004600f0b6000818152600180860160205260409091209390935583546001600160801b03908116939091011602179055565b60006141166002848418614fa4565b6114b890848416614fc6565b82805461412e90614e3b565b90600052602060002090601f0160209004810192826141505760008555614196565b82601f1061416957805160ff1916838001178555614196565b82800160010185558215614196579182015b8281111561419657825182559160200191906001019061417b565b50612690929150614216565b8280546141ae90614e3b565b90600052602060002090601f0160209004810192826141d05760008555614196565b82601f106141e95782800160ff19823516178555614196565b82800160010185558215614196579182015b828111156141965782358255916020019190600101906141fb565b5b808211156126905760008155600101614217565b61ffff8116811461108c57600080fd5b60008083601f84011261424d57600080fd5b5081356001600160401b0381111561426457600080fd5b6020830191508360208285010111156126c357600080fd5b80356001600160401b038116811461429357600080fd5b919050565b600080600080600080608087890312156142b157600080fd5b86356142bc8161422b565b955060208701356001600160401b03808211156142d857600080fd5b6142e48a838b0161423b565b90975095508591506142f860408a0161427c565b9450606089013591508082111561430e57600080fd5b5061431b89828a0161423b565b979a9699509497509295939492505050565b60006020828403121561433f57600080fd5b81356001600160e01b0319811681146114b857600080fd5b803560ff8116811461429357600080fd5b634e487b7160e01b600052604160045260246000fd5b604051601f8201601f191681016001600160401b03811182821017156143a6576143a6614368565b604052919050565b60006001600160401b038211156143c7576143c7614368565b50601f01601f191660200190565b60006143e86143e3846143ae565b61437e565b90508281528383830111156143fc57600080fd5b828260208301376000602084830101529392505050565b600082601f83011261442457600080fd5b6114b8838335602085016143d5565b60008060008060008060008060e0898b03121561444f57600080fd5b8835975061445f60208a01614357565b965060408901356001600160401b038082111561447b57600080fd5b6144878c838d0161423b565b909850965060608b01359150808211156144a057600080fd5b506144ad8b828c01614413565b9450506144bc60808a01614357565b925060a0890135915060c089013590509295985092959890939650565b6000602082840312156144eb57600080fd5b5035919050565b60005b8381101561450d5781810151838201526020016144f5565b8381111561451c576000848401525b50505050565b6000815180845261453a8160208601602086016144f2565b601f01601f19169290920160200192915050565b6020815260006114b86020830184614522565b60006020828403121561457357600080fd5b81356114b88161422b565b80356001600160a01b038116811461429357600080fd5b600080600080608085870312156145ab57600080fd5b6145b48561457e565b93506145c26020860161457e565b92506040850135915060608501356001600160401b038111156145e457600080fd5b6145f087828801614413565b91505092959194509250565b60006001600160401b0382111561461557614615614368565b5060051b60200190565b600082601f83011261463057600080fd5b813560206146406143e3836145fc565b82815260059290921b8401810191818101908684111561465f57600080fd5b8286015b84811015614681576146748161457e565b8352918301918301614663565b509695505050505050565b600082601f83011261469d57600080fd5b813560206146ad6143e3836145fc565b82815260059290921b840181019181810190868411156146cc57600080fd5b8286015b8481101561468157803583529183019183016146d0565b600082601f8301126146f857600080fd5b813560206147086143e3836145fc565b82815260059290921b8401810191818101908684111561472757600080fd5b8286015b848110156146815780356001600160401b0381111561474a5760008081fd5b6147588986838b0101614413565b84525091830191830161472b565b6000806000806080858703121561477c57600080fd5b84356001600160401b038082111561479357600080fd5b61479f8883890161461f565b955060208701359150808211156147b557600080fd5b6147c18883890161468c565b945060408701359150808211156147d757600080fd5b506147e4878288016146e7565b949793965093946060013593505050565b600080600080600060a0868803121561480d57600080fd5b8535945061481d60208701614357565b935061482b60408701614357565b94979396509394606081013594506080013592915050565b60008060006040848603121561485857600080fd5b83356148638161422b565b925060208401356001600160401b0381111561487e57600080fd5b61488a8682870161423b565b9497909650939450505050565b634e487b7160e01b600052602160045260246000fd5b60208101600883106148cf57634e487b7160e01b600052602160045260246000fd5b91905290565b600080604083850312156148e857600080fd5b823591506148f86020840161457e565b90509250929050565b6000806040838503121561491457600080fd5b823591506148f860208401614357565b60008060006060848603121561493957600080fd5b83356149448161422b565b925060208401356001600160401b0381111561495f57600080fd5b61496b86828701614413565b92505061497a6040850161427c565b90509250925092565b60008060008060006080868803121561499b57600080fd5b853594506149ab60208701614357565b935060408601356001600160401b03808211156149c757600080fd5b6149d389838a0161423b565b909550935060608801359150808211156149ec57600080fd5b506149f988828901614413565b9150509295509295909350565b60008060408385031215614a1957600080fd5b8235614a248161422b565b946020939093013593505050565b60008060008060608587031215614a4857600080fd5b84359350614a5860208601614357565b925060408501356001600160401b03811115614a7357600080fd5b614a7f8782880161423b565b95989497509550505050565b60008060008060808587031215614aa157600080fd5b84356001600160401b0380821115614ab857600080fd5b614ac48883890161461f565b95506020870135915080821115614ada57600080fd5b614ae68883890161468c565b94506040870135915080821115614afc57600080fd5b614b08888389016146e7565b93506060870135915080821115614b1e57600080fd5b508501601f81018713614b3057600080fd5b6145f0878235602084016143d5565b60008060408385031215614b5257600080fd5b8235614b5d8161422b565b91506020830135614b6d8161422b565b809150509250929050565b600080600060608486031215614b8d57600080fd5b614b968461457e565b92506020840135915060408401356001600160401b03811115614bb857600080fd5b614bc486828701614413565b9150509250925092565b600060208284031215614be057600080fd5b6114b88261457e565b600080600080600060a08688031215614c0157600080fd5b614c0a8661457e565b9450614c186020870161457e565b935060408601356001600160401b0380821115614c3457600080fd5b614c4089838a0161468c565b94506060880135915080821115614c5657600080fd5b614c6289838a0161468c565b935060808801359150808211156149ec57600080fd5b60008060008060608587031215614c8e57600080fd5b614c978561457e565b93506020850135925060408501356001600160401b03811115614a7357600080fd5b600080600080600060808688031215614cd157600080fd5b8535614cdc8161422b565b94506020860135614cec8161422b565b93506040860135925060608601356001600160401b03811115614d0e57600080fd5b614d1a8882890161423b565b969995985093965092949392505050565b600080600060608486031215614d4057600080fd5b8335614d4b8161422b565b92506020840135614d5b8161422b565b929592945050506040919091013590565b60008060408385031215614d7f57600080fd5b614a248361457e565b600080600080600060a08688031215614da057600080fd5b614da98661457e565b9450614db76020870161457e565b9350604086013592506060860135915060808601356001600160401b03811115614de057600080fd5b6149f988828901614413565b60008060008060808587031215614e0257600080fd5b8435614e0d8161422b565b93506020850135614e1d8161422b565b9250614e2b6040860161457e565b9396929550929360600135925050565b600181811c90821680614e4f57607f821691505b60208210811415614e7057634e487b7160e01b600052602260045260246000fd5b50919050565b8183823760009101908152919050565b60208082526018908201527f476f7665726e6f723a206f6e6c79476f7665726e616e63650000000000000000604082015260600190565b81835281816020850137506000828201602090810191909152601f909101601f19169091010190565b61ffff84168152604060208201526000612613604083018486614ebd565b60ff8316815260406020820152600061120b6040830184614522565b634e487b7160e01b600052603260045260246000fd5b634e487b7160e01b600052601160045260246000fd5b600061ffff80831681811415614f6457614f64614f36565b6001019392505050565b600082821015614f8057614f80614f36565b500390565b6000816000190483118215151615614f9f57614f9f614f36565b500290565b600082614fc157634e487b7160e01b600052601260045260246000fd5b500490565b60008219821115614fd957614fd9614f36565b500190565b8284823760609190911b6bffffffffffffffffffffffff19169101908152601401919050565b600081518084526020808501945080840160005b8381101561503d5781516001600160a01b031687529582019590820190600101615018565b509495945050505050565b600081518084526020808501945080840160005b8381101561503d5781518752958201959082019060010161505c565b600081518084526020808501808196508360051b8101915082860160005b858110156150c05782840389526150ae848351614522565b98850198935090840190600101615096565b5091979650505050505050565b6080815260006150e06080830187615004565b82810360208401526150f28187615048565b905082810360408401526151068186615078565b91505082606083015295945050505050565b600061ffff8088168352808716602084015250846040830152608060608301526113e7608083018486614ebd565b61ffff86168152608060208201526000615164608083018688614ebd565b6001600160401b0394909416604083015250606001529392505050565b600082601f83011261519257600080fd5b81516151a06143e3826143ae565b8181528460208386010111156151b557600080fd5b61120b8260208301602087016144f2565b6000602082840312156151d857600080fd5b81516001600160401b038111156151ee57600080fd5b61120b84828501615181565b61ffff851681526080602082015260006152176080830186614522565b6001600160401b038516604084015282810360608401526113e78185614522565b84815260ff84166020820152826040820152608060608201526000611b2c6080830184614522565b85815260ff8516602082015283604082015260a06060820152600061528860a0830185614522565b828103608084015261529a8185614522565b98975050505050505050565b600082516152b88184602087016144f2565b9190910192915050565b60006000198214156152d6576152d6614f36565b5060010190565b61ffff8716815260c0602082015260006152fa60c0830188614522565b828103604084015261530c8188614522565b6001600160a01b0387811660608601528616608085015283810360a085015290506153378185614522565b9998505050505050505050565b6000806040838503121561535757600080fd5b82516153628161422b565b60208401519092506001600160401b0381111561537e57600080fd5b61538a85828601615181565b9150509250929050565b60208082526021908201527f476f7665726e6f723a20696e76616c69642070726f706f73616c206c656e67746040820152600d60fb1b606082015260800190565b60006001600160401b038083168185168083038211156153f7576153f7614f36565b01949350505050565b60006101208b8352602060018060a01b038c16818501528160408501526154298285018c615004565b9150838203606085015261543d828b615048565b915083820360808501528189518084528284019150828160051b850101838c0160005b8381101561548e57601f1987840301855261547c838351614522565b94860194925090850190600101615460565b505086810360a08801526154a2818c615078565b9450505050506154bd60c08401876001600160401b03169052565b6001600160401b03851660e08401528281036101008401526154df8185614522565b9c9b505050505050505050505050565b60006020828403121561550157600080fd5b5051919050565b61ffff8616815260a06020820152600061552560a0830187614522565b6001600160401b038616604084015282810360608401526155468186614522565b9050828103608084015261529a8185614522565b60008060006060848603121561556f57600080fd5b835192506020840151915060408401519050925092509256fe476f7665726e6f723a2072656c617920726576657274656420776974686f7574206d657373616765476f7665726e6f723a2063616c6c20726576657274656420776974686f7574206d657373616765a26469706673582212202cc864fcf5271913b3f95fd9f3f6b060d011cb7a472c0e63c21d5626fe24c13f64736f6c634300080c0033",
  "devdoc": {
    "errors": {
      "Empty()": [
        {
          "details": "An operation (e.g. {front}) couldn't be completed due to the queue being empty."
        }
      ]
    },
    "kind": "dev",
    "methods": {
      "COUNTING_MODE()": {
        "details": "See {IGovernor-COUNTING_MODE}."
      },
      "castVote(uint256,uint8)": {
        "details": "See {IGovernor-castVote}."
      },
      "castVoteBySig(uint256,uint8,uint8,bytes32,bytes32)": {
        "details": "See {IGovernor-castVoteBySig}."
      },
      "castVoteWithReason(uint256,uint8,string)": {
        "details": "See {IGovernor-castVoteWithReason}."
      },
      "castVoteWithReasonAndParams(uint256,uint8,string,bytes)": {
        "details": "See {IGovernor-castVoteWithReasonAndParams}."
      },
      "castVoteWithReasonAndParamsBySig(uint256,uint8,string,bytes,uint8,bytes32,bytes32)": {
        "details": "See {IGovernor-castVoteWithReasonAndParamsBySig}."
      },
      "execute(address[],uint256[],bytes[],bytes32)": {
        "details": "See {IGovernor-execute}."
      },
      "getVotes(address,uint256)": {
        "details": "See {IGovernor-getVotes}."
      },
      "getVotesWithParams(address,uint256,bytes)": {
        "details": "See {IGovernor-getVotesWithParams}."
      },
      "hasVoted(uint256,address)": {
        "details": "See {IGovernor-hasVoted}."
      },
      "hashProposal(address[],uint256[],bytes[],bytes32)": {
        "details": "See {IGovernor-hashProposal}. The proposal id is produced by hashing the ABI encoded `targets` array, the `values` array, the `calldatas` array and the descriptionHash (bytes32 which itself is the keccak256 hash of the description string). This proposal id can be produced from the proposal data which is part of the {ProposalCreated} event. It can even be computed in advance, before the proposal is submitted. Note that the chainId and the governor address are not part of the proposal id computation. Consequently, the same proposal (with same operation and same description) will have the same id if submitted on multiple governors across multiple networks. This also means that in order to execute the same operation twice (on the same governor) the proposer will have to change the description in order to avoid proposal id conflicts."
      },
      "name()": {
        "details": "See {IGovernor-name}."
      },
      "onERC1155BatchReceived(address,address,uint256[],uint256[],bytes)": {
        "details": "See {IERC1155Receiver-onERC1155BatchReceived}."
      },
      "onERC1155Received(address,address,uint256,uint256,bytes)": {
        "details": "See {IERC1155Receiver-onERC1155Received}."
      },
      "onERC721Received(address,address,uint256,bytes)": {
        "details": "See {IERC721Receiver-onERC721Received}."
      },
      "owner()": {
        "details": "Returns the address of the current owner."
      },
      "proposalDeadline(uint256)": {
        "details": "See {IGovernor-proposalDeadline}."
      },
      "proposalSnapshot(uint256)": {
        "details": "See {IGovernor-proposalSnapshot}."
      },
      "proposalVotes(uint256)": {
        "details": "Accessor to the internal vote counts."
      },
      "propose(address[],uint256[],bytes[],string)": {
        "details": "See {IGovernor-propose}."
      },
      "quorumDenominator()": {
        "details": "Returns the quorum denominator. Defaults to 100, but may be overridden."
      },
      "quorumNumerator()": {
        "details": "Returns the current quorum numerator. See {quorumDenominator}."
      },
      "quorumNumerator(uint256)": {
        "details": "Returns the quorum numerator at a specific block number. See {quorumDenominator}."
      },
      "relay(address,uint256,bytes)": {
        "details": "Relays a transaction or function call to an arbitrary target. In cases where the governance executor is some contract other than the governor itself, like when using a timelock, this function can be invoked in a governance proposal to recover tokens or Ether that was sent to the governor contract by mistake. Note that if the executor is simply the governor itself, use of `relay` is redundant."
      },
      "renounceOwnership()": {
        "details": "Leaves the contract without owner. It will not be possible to call `onlyOwner` functions anymore. Can only be called by the current owner. NOTE: Renouncing ownership will leave the contract without an owner, thereby removing any functionality that is only available to the owner."
      },
      "setProposalThreshold(uint256)": {
        "details": "Update the proposal threshold. This operation can only be performed through a governance proposal. Emits a {ProposalThresholdSet} event."
      },
      "setVotingDelay(uint256)": {
        "details": "Update the voting delay. This operation can only be performed through a governance proposal. Emits a {VotingDelaySet} event."
      },
      "setVotingPeriod(uint256)": {
        "details": "Update the voting period. This operation can only be performed through a governance proposal. Emits a {VotingPeriodSet} event."
      },
      "state(uint256)": {
        "details": "See {IGovernor-state}."
      },
      "supportsInterface(bytes4)": {
        "details": "See {IERC165-supportsInterface}."
      },
      "transferOwnership(address)": {
        "details": "Transfers ownership of the contract to a new account (`newOwner`). Can only be called by the current owner."
      },
      "updateQuorumNumerator(uint256)": {
        "details": "Changes the quorum numerator. Emits a {QuorumNumeratorUpdated} event. Requirements: - Must be called through a governance proposal. - New numerator must be smaller or equal to the denominator."
      },
      "version()": {
        "details": "See {IGovernor-version}."
      },
      "votingDelay()": {
        "details": "Delay, in number of block, between the proposal is created and the vote starts. This can be increassed to leave time for users to buy voting power, or delegate it, before the voting of a proposal starts."
      },
      "votingPeriod()": {
        "details": "Delay, in number of blocks, between the vote start and vote ends. NOTE: The {votingDelay} can delay the start of the vote. This must be considered when setting the voting duration compared to the voting delay."
      }
    },
    "version": 1
  },
  "userdoc": {
    "kind": "user",
    "methods": {},
    "version": 1
  },
  "storageLayout": {
    "storage": [
      {
        "astId": 172,
        "contract": "contracts/CrossChainDAO.sol:CrossChainDAO",
        "label": "_name",
        "offset": 0,
        "slot": "0",
        "type": "t_string_storage"
      },
      {
        "astId": 177,
        "contract": "contracts/CrossChainDAO.sol:CrossChainDAO",
        "label": "_proposals",
        "offset": 0,
        "slot": "1",
        "type": "t_mapping(t_uint256,t_struct(ProposalCore)170_storage)"
      },
      {
        "astId": 180,
        "contract": "contracts/CrossChainDAO.sol:CrossChainDAO",
        "label": "_governanceCall",
        "offset": 0,
        "slot": "2",
        "type": "t_struct(Bytes32Deque)7343_storage"
      },
      {
        "astId": 1951,
        "contract": "contracts/CrossChainDAO.sol:CrossChainDAO",
        "label": "_votingDelay",
        "offset": 0,
        "slot": "4",
        "type": "t_uint256"
      },
      {
        "astId": 1953,
        "contract": "contracts/CrossChainDAO.sol:CrossChainDAO",
        "label": "_votingPeriod",
        "offset": 0,
        "slot": "5",
        "type": "t_uint256"
      },
      {
        "astId": 1955,
        "contract": "contracts/CrossChainDAO.sol:CrossChainDAO",
        "label": "_proposalThreshold",
        "offset": 0,
        "slot": "6",
        "type": "t_uint256"
      },
      {
        "astId": 1743,
        "contract": "contracts/CrossChainDAO.sol:CrossChainDAO",
        "label": "_proposalVotes",
        "offset": 0,
        "slot": "7",
        "type": "t_mapping(t_uint256,t_struct(ProposalVote)1738_storage)"
      },
      {
        "astId": 8194,
        "contract": "contracts/CrossChainDAO.sol:CrossChainDAO",
        "label": "_quorumNumerator",
        "offset": 0,
        "slot": "8",
        "type": "t_uint256"
      },
      {
        "astId": 8197,
        "contract": "contracts/CrossChainDAO.sol:CrossChainDAO",
        "label": "_quorumNumeratorHistory",
        "offset": 0,
        "slot": "9",
        "type": "t_struct(History)2598_storage"
      },
      {
        "astId": 7,
        "contract": "contracts/CrossChainDAO.sol:CrossChainDAO",
        "label": "_owner",
        "offset": 0,
        "slot": "10",
        "type": "t_address"
      },
      {
        "astId": 8655,
        "contract": "contracts/CrossChainDAO.sol:CrossChainDAO",
        "label": "trustedRemoteLookup",
        "offset": 0,
        "slot": "11",
        "type": "t_mapping(t_uint16,t_bytes_storage)"
      },
      {
        "astId": 8661,
        "contract": "contracts/CrossChainDAO.sol:CrossChainDAO",
        "label": "minDstGasLookup",
        "offset": 0,
        "slot": "12",
        "type": "t_mapping(t_uint16,t_mapping(t_uint16,t_uint256))"
      },
      {
        "astId": 8663,
        "contract": "contracts/CrossChainDAO.sol:CrossChainDAO",
        "label": "precrime",
        "offset": 0,
        "slot": "13",
        "type": "t_address"
      },
      {
        "astId": 9148,
        "contract": "contracts/CrossChainDAO.sol:CrossChainDAO",
        "label": "failedMessages",
        "offset": 0,
        "slot": "14",
        "type": "t_mapping(t_uint16,t_mapping(t_bytes_memory_ptr,t_mapping(t_uint64,t_bytes32)))"
      },
      {
        "astId": 7730,
        "contract": "contracts/CrossChainDAO.sol:CrossChainDAO",
        "label": "spokeChains",
        "offset": 0,
        "slot": "15",
        "type": "t_array(t_uint16)dyn_storage"
      },
      {
        "astId": 7734,
        "contract": "contracts/CrossChainDAO.sol:CrossChainDAO",
        "label": "collectionFinished",
        "offset": 0,
        "slot": "16",
        "type": "t_mapping(t_uint256,t_bool)"
      },
      {
        "astId": 7738,
        "contract": "contracts/CrossChainDAO.sol:CrossChainDAO",
        "label": "collectionStarted",
        "offset": 0,
        "slot": "17",
        "type": "t_mapping(t_uint256,t_bool)"
      },
      {
        "astId": 7745,
        "contract": "contracts/CrossChainDAO.sol:CrossChainDAO",
        "label": "voting",
        "offset": 0,
        "slot": "18",
        "type": "t_mapping(t_uint256,t_mapping(t_uint16,t_struct(ExternalVotingData)7727_storage))"
      },
      {
        "astId": 7747,
        "contract": "contracts/CrossChainDAO.sol:CrossChainDAO",
        "label": "collectionPhaseWaitingPeriod",
        "offset": 0,
        "slot": "19",
        "type": "t_uint16"
      }
    ],
    "types": {
      "t_address": {
        "encoding": "inplace",
        "label": "address",
        "numberOfBytes": "20"
      },
      "t_array(t_struct(Checkpoint)2603_storage)dyn_storage": {
        "base": "t_struct(Checkpoint)2603_storage",
        "encoding": "dynamic_array",
        "label": "struct Checkpoints.Checkpoint[]",
        "numberOfBytes": "32"
      },
      "t_array(t_uint16)dyn_storage": {
        "base": "t_uint16",
        "encoding": "dynamic_array",
        "label": "uint16[]",
        "numberOfBytes": "32"
      },
      "t_bool": {
        "encoding": "inplace",
        "label": "bool",
        "numberOfBytes": "1"
      },
      "t_bytes32": {
        "encoding": "inplace",
        "label": "bytes32",
        "numberOfBytes": "32"
      },
      "t_bytes_memory_ptr": {
        "encoding": "bytes",
        "label": "bytes",
        "numberOfBytes": "32"
      },
      "t_bytes_storage": {
        "encoding": "bytes",
        "label": "bytes",
        "numberOfBytes": "32"
      },
      "t_int128": {
        "encoding": "inplace",
        "label": "int128",
        "numberOfBytes": "16"
      },
      "t_mapping(t_address,t_bool)": {
        "encoding": "mapping",
        "key": "t_address",
        "label": "mapping(address => bool)",
        "numberOfBytes": "32",
        "value": "t_bool"
      },
      "t_mapping(t_bytes_memory_ptr,t_mapping(t_uint64,t_bytes32))": {
        "encoding": "mapping",
        "key": "t_bytes_memory_ptr",
        "label": "mapping(bytes => mapping(uint64 => bytes32))",
        "numberOfBytes": "32",
        "value": "t_mapping(t_uint64,t_bytes32)"
      },
      "t_mapping(t_int128,t_bytes32)": {
        "encoding": "mapping",
        "key": "t_int128",
        "label": "mapping(int128 => bytes32)",
        "numberOfBytes": "32",
        "value": "t_bytes32"
      },
      "t_mapping(t_uint16,t_bytes_storage)": {
        "encoding": "mapping",
        "key": "t_uint16",
        "label": "mapping(uint16 => bytes)",
        "numberOfBytes": "32",
        "value": "t_bytes_storage"
      },
      "t_mapping(t_uint16,t_mapping(t_bytes_memory_ptr,t_mapping(t_uint64,t_bytes32)))": {
        "encoding": "mapping",
        "key": "t_uint16",
        "label": "mapping(uint16 => mapping(bytes => mapping(uint64 => bytes32)))",
        "numberOfBytes": "32",
        "value": "t_mapping(t_bytes_memory_ptr,t_mapping(t_uint64,t_bytes32))"
      },
      "t_mapping(t_uint16,t_mapping(t_uint16,t_uint256))": {
        "encoding": "mapping",
        "key": "t_uint16",
        "label": "mapping(uint16 => mapping(uint16 => uint256))",
        "numberOfBytes": "32",
        "value": "t_mapping(t_uint16,t_uint256)"
      },
      "t_mapping(t_uint16,t_struct(ExternalVotingData)7727_storage)": {
        "encoding": "mapping",
        "key": "t_uint16",
        "label": "mapping(uint16 => struct CrossChainDAO.ExternalVotingData)",
        "numberOfBytes": "32",
        "value": "t_struct(ExternalVotingData)7727_storage"
      },
      "t_mapping(t_uint16,t_uint256)": {
        "encoding": "mapping",
        "key": "t_uint16",
        "label": "mapping(uint16 => uint256)",
        "numberOfBytes": "32",
        "value": "t_uint256"
      },
      "t_mapping(t_uint256,t_bool)": {
        "encoding": "mapping",
        "key": "t_uint256",
        "label": "mapping(uint256 => bool)",
        "numberOfBytes": "32",
        "value": "t_bool"
      },
      "t_mapping(t_uint256,t_mapping(t_uint16,t_struct(ExternalVotingData)7727_storage))": {
        "encoding": "mapping",
        "key": "t_uint256",
        "label": "mapping(uint256 => mapping(uint16 => struct CrossChainDAO.ExternalVotingData))",
        "numberOfBytes": "32",
        "value": "t_mapping(t_uint16,t_struct(ExternalVotingData)7727_storage)"
      },
      "t_mapping(t_uint256,t_struct(ProposalCore)170_storage)": {
        "encoding": "mapping",
        "key": "t_uint256",
        "label": "mapping(uint256 => struct Governor.ProposalCore)",
        "numberOfBytes": "32",
        "value": "t_struct(ProposalCore)170_storage"
      },
      "t_mapping(t_uint256,t_struct(ProposalVote)1738_storage)": {
        "encoding": "mapping",
        "key": "t_uint256",
        "label": "mapping(uint256 => struct GovernorCountingSimple.ProposalVote)",
        "numberOfBytes": "32",
        "value": "t_struct(ProposalVote)1738_storage"
      },
      "t_mapping(t_uint64,t_bytes32)": {
        "encoding": "mapping",
        "key": "t_uint64",
        "label": "mapping(uint64 => bytes32)",
        "numberOfBytes": "32",
        "value": "t_bytes32"
      },
      "t_string_storage": {
        "encoding": "bytes",
        "label": "string",
        "numberOfBytes": "32"
      },
      "t_struct(BlockNumber)4264_storage": {
        "encoding": "inplace",
        "label": "struct Timers.BlockNumber",
        "members": [
          {
            "astId": 4263,
            "contract": "contracts/CrossChainDAO.sol:CrossChainDAO",
            "label": "_deadline",
            "offset": 0,
            "slot": "0",
            "type": "t_uint64"
          }
        ],
        "numberOfBytes": "32"
      },
      "t_struct(Bytes32Deque)7343_storage": {
        "encoding": "inplace",
        "label": "struct DoubleEndedQueue.Bytes32Deque",
        "members": [
          {
            "astId": 7336,
            "contract": "contracts/CrossChainDAO.sol:CrossChainDAO",
            "label": "_begin",
            "offset": 0,
            "slot": "0",
            "type": "t_int128"
          },
          {
            "astId": 7338,
            "contract": "contracts/CrossChainDAO.sol:CrossChainDAO",
            "label": "_end",
            "offset": 16,
            "slot": "0",
            "type": "t_int128"
          },
          {
            "astId": 7342,
            "contract": "contracts/CrossChainDAO.sol:CrossChainDAO",
            "label": "_data",
            "offset": 0,
            "slot": "1",
            "type": "t_mapping(t_int128,t_bytes32)"
          }
        ],
        "numberOfBytes": "64"
      },
      "t_struct(Checkpoint)2603_storage": {
        "encoding": "inplace",
        "label": "struct Checkpoints.Checkpoint",
        "members": [
          {
            "astId": 2600,
            "contract": "contracts/CrossChainDAO.sol:CrossChainDAO",
            "label": "_blockNumber",
            "offset": 0,
            "slot": "0",
            "type": "t_uint32"
          },
          {
            "astId": 2602,
            "contract": "contracts/CrossChainDAO.sol:CrossChainDAO",
            "label": "_value",
            "offset": 4,
            "slot": "0",
            "type": "t_uint224"
          }
        ],
        "numberOfBytes": "32"
      },
      "t_struct(ExternalVotingData)7727_storage": {
        "encoding": "inplace",
        "label": "struct CrossChainDAO.ExternalVotingData",
        "members": [
          {
            "astId": 7722,
            "contract": "contracts/CrossChainDAO.sol:CrossChainDAO",
            "label": "quorum",
            "offset": 0,
            "slot": "0",
            "type": "t_uint256"
          },
          {
            "astId": 7724,
            "contract": "contracts/CrossChainDAO.sol:CrossChainDAO",
            "label": "voteWeight",
            "offset": 0,
            "slot": "1",
            "type": "t_uint256"
          },
          {
            "astId": 7726,
            "contract": "contracts/CrossChainDAO.sol:CrossChainDAO",
            "label": "initialized",
            "offset": 0,
            "slot": "2",
            "type": "t_bool"
          }
        ],
        "numberOfBytes": "96"
      },
      "t_struct(History)2598_storage": {
        "encoding": "inplace",
        "label": "struct Checkpoints.History",
        "members": [
          {
            "astId": 2597,
            "contract": "contracts/CrossChainDAO.sol:CrossChainDAO",
            "label": "_checkpoints",
            "offset": 0,
            "slot": "0",
            "type": "t_array(t_struct(Checkpoint)2603_storage)dyn_storage"
          }
        ],
        "numberOfBytes": "32"
      },
      "t_struct(ProposalCore)170_storage": {
        "encoding": "inplace",
        "label": "struct Governor.ProposalCore",
        "members": [
          {
            "astId": 162,
            "contract": "contracts/CrossChainDAO.sol:CrossChainDAO",
            "label": "voteStart",
            "offset": 0,
            "slot": "0",
            "type": "t_struct(BlockNumber)4264_storage"
          },
          {
            "astId": 165,
            "contract": "contracts/CrossChainDAO.sol:CrossChainDAO",
            "label": "voteEnd",
            "offset": 0,
            "slot": "1",
            "type": "t_struct(BlockNumber)4264_storage"
          },
          {
            "astId": 167,
            "contract": "contracts/CrossChainDAO.sol:CrossChainDAO",
            "label": "executed",
            "offset": 0,
            "slot": "2",
            "type": "t_bool"
          },
          {
            "astId": 169,
            "contract": "contracts/CrossChainDAO.sol:CrossChainDAO",
            "label": "canceled",
            "offset": 1,
            "slot": "2",
            "type": "t_bool"
          }
        ],
        "numberOfBytes": "96"
      },
      "t_struct(ProposalVote)1738_storage": {
        "encoding": "inplace",
        "label": "struct GovernorCountingSimple.ProposalVote",
        "members": [
          {
            "astId": 1729,
            "contract": "contracts/CrossChainDAO.sol:CrossChainDAO",
            "label": "againstVotes",
            "offset": 0,
            "slot": "0",
            "type": "t_uint256"
          },
          {
            "astId": 1731,
            "contract": "contracts/CrossChainDAO.sol:CrossChainDAO",
            "label": "forVotes",
            "offset": 0,
            "slot": "1",
            "type": "t_uint256"
          },
          {
            "astId": 1733,
            "contract": "contracts/CrossChainDAO.sol:CrossChainDAO",
            "label": "abstainVotes",
            "offset": 0,
            "slot": "2",
            "type": "t_uint256"
          },
          {
            "astId": 1737,
            "contract": "contracts/CrossChainDAO.sol:CrossChainDAO",
            "label": "hasVoted",
            "offset": 0,
            "slot": "3",
            "type": "t_mapping(t_address,t_bool)"
          }
        ],
        "numberOfBytes": "128"
      },
      "t_uint16": {
        "encoding": "inplace",
        "label": "uint16",
        "numberOfBytes": "2"
      },
      "t_uint224": {
        "encoding": "inplace",
        "label": "uint224",
        "numberOfBytes": "28"
      },
      "t_uint256": {
        "encoding": "inplace",
        "label": "uint256",
        "numberOfBytes": "32"
      },
      "t_uint32": {
        "encoding": "inplace",
        "label": "uint32",
        "numberOfBytes": "4"
      },
      "t_uint64": {
        "encoding": "inplace",
        "label": "uint64",
        "numberOfBytes": "8"
      }
    }
  }
}